:020000040800F2
:10000000300E0020E52400083503000837030008FF
:100010003B0300083F030008430300080000000002
:10002000000000000000000000000000470300087E
:1000300049030008000000004B0300084D030008BE
:10004000FF240008FF240008FF240008FF24000804
:10005000FF240008FF240008FF240008FF240008F4
:10006000FF240008FF240008FF240008FF240008E4
:10007000FF240008FF240008FF240008FF240008D4
:10008000FF240008FF240008FF240008FF240008C4
:10009000FF240008FF240008FF240008FF240008B4
:1000A000FF240008FF240008FF240008FF240008A4
:1000B00069220008FF240008B7110008FF24000887
:1000C000FF240008FF240008FF240008FF24000884
:1000D000FF2400085B240008A70F0008FF24000885
:1000E000FF240008FF240008FF240008FF24000864
:1000F000FF240008FF240008FF240008FF24000854
:10010000FF240008FF240008FF240008FF24000843
:10011000FF240008FF240008FF240008FF24000833
:10012000FF240008FF240008FF240008FF24000823
:1001300000F002F800F0B0F80AA090E8000C824449
:100140008344AAF10107DA4501D100F0A5F8AFF226
:10015000090EBAE80F0013F0010F18BFFB1A43F0A5
:1001600001031847586E0000786E00000A444FF0F3
:10017000000C10F8013B13F0070408BF10F8014B06
:100180001D1108BF10F8015B641E05D010F8016B4B
:10019000641E01F8016BF9D113F0080F1EBF10F8AF
:1001A000014BAD1C0C1B09D16D1E58BF01F801CBD2
:1001B000FAD505E014F8016B01F8016B6D1EF9D555
:1001C0009142D6D37047000000230024002500266A
:1001D000103A28BF78C1FBD8520728BF30C148BFAA
:1001E0000B6070476E2904F02784702904F0C782E1
:1001F000662906F06A82652906F06782672906F09B
:1002000064826129AFF3008003681B0A28BF41F0B4
:100210008001692904F03882642904F03582752947
:1002200004F032826F2904F02D87782904F093823C
:10023000E92904F0C786E42904F0C486F52904F00E
:10024000C186EF2904F02A87F82904F09282036816
:10025000DB0928BF41F08001632904F03686732949
:1002600004F03B86E32904F0B787F32904F0BC8748
:10027000002070471FB504F01BFF04000020002180
:1002800005F0ACFC401C60600020002105F090FCF3
:10029000E0601FBD10B510BD05F040F81146FFF736
:1002A000E9FF00F009F805F067F803B4FFF7F2FF83
:1002B00003BC02F077F800001FB501201749086061
:1002C00002F006F84FF4165002F07BF84FF4A060ED
:1002D00002F0ACFE01F0C8F900F090FF01F012F856
:1002E000002001F07CF809E00DA1684604F066F9F1
:1002F00002236A461946002001F0A9F800F01EFD0D
:100300000028F1D101F06BF84FF47A7002F01DF87B
:1003100003E000F00DF900BFFEE7FAE74C00002013
:10032000425420434F4E4E454354494E472E2E2EA5
:1003300000000000704700BFFEE700BFFEE700BFFF
:10034000FEE700BFFEE77047704770477047000048
:100350000CB50020019000906C48006840F480309B
:100360006A49086000BF6948006800F400300090E6
:100370000198401C0190009818B90198B0F5A06F41
:10038000F1D16248006800F4003010B10120009003
:1003900001E0002000900098012843D15C480068EB
:1003A00040F010005A4908600846006820F0030039
:1003B00008600846006840F0020008605348406842
:1003C000524948600846406848600846406840F422
:1003D000806048600846406820F47C104860084609
:1003E000406840F4E81048600846006840F08070BB
:1003F000086000BF4548006800F000700028F9D090
:100400004248406820F00300404948600846406880
:1004100040F00200486000BF3C48406800F00C001B
:100420000828F9D10CBD10B5FFF792FF10BD10B52B
:100430003648006840F001003449086008464068CA
:10044000344908403149486008460068324908404C
:100450002E4908600846006820F48020086008469D
:10046000406820F4FE0048604FF41F008860FFF7EA
:10047000DAFF4FF000602949086010BD10B5002177
:1004800000200022214B5B6803F00C0121B10429FC
:1004900006D0082928D107E0214B224C236027E011
:1004A0001F4B204C236023E0184B5B6803F4701053
:1004B000164B5B6803F48032022303EB904022B9B1
:1004C000194B4343174C23600DE0104B5B6803F45A
:1004D000003323B1144B4343124C236003E0104B11
:1004E0004343104C236003E00D4B0E4C236000BFD0
:1004F00000BF064B5B68C3F303130C4CE15C094B74
:100500001B68CB40074C236010BD00000010024068
:10051000002002400000FFF8FFFFF6FE08ED00E0BB
:1005200000127A000400002000093D0008000020AD
:100530002DE9F04101F0E8F801F0ACF901F007FD18
:1005400001F0CBFD29E06420FC4908600846FCA1CD
:100550000268FD4804F032F80223FB4A062100201D
:1005600000F075FFF5480168F8A000F008FE01F002
:10057000CBF8F848006805F01DFE044622460B46FD
:10058000F5A1F14804F01AF80223EF4A00210846C9
:1005900000F05DFF0A2001F0D8FEF249ED48006846
:1005A00005F0E3FFCFD32AE04FF48770E3490860FA
:1005B0000846E3A10268E44804F000F80223E24A96
:1005C0000621002000F043FFDC480168DFA000F0B6
:1005D000D6FD01F05FF9E448006805F0EBFD044644
:1005E00022460B46E1A1D84803F0E8FF0223D64A91
:1005F0000021084600F02BFF0A2001F0A6FEDE498C
:10060000D948006805F0B1FFCED329E0B420CB492A
:1006100008600846CAA10268CB4803F0CFFF022356
:10062000C94A0621002000F012FFC4480168C7A093
:1006300000F0A5FD01F02EF9CB48006805F0BAFDE9
:10064000044622460B46C9A1BF4803F0B7FF022368
:10065000BD4A0021084600F0FAFE052001F075FEB3
:10066000C649C148006805F080FFCFD31BE06F206A
:10067000B24908600846B2A10268B34803F09EFF81
:100680000223B14A0621002000F0E1FEAB480168D8
:10069000AEA000F074FD052001F057FEB8480068D8
:1006A000401CB7490860B64800680A28DFDB002014
:1006B000B34908601CE040F24D10A04908600846AC
:1006C0009FA10268A04803F079FF02239E4A0621F9
:1006D000002000F0BCFE994801689CA000F04FFD8E
:1006E000052001F032FEA6480068401CA4490860BD
:1006F000A34800680A28DEDB0020A14908601BE04F
:10070000DE208E49086008468DA102688E4803F0FD
:1007100055FF02238C4A0621002000F098FE8748EE
:1007200001688AA000F02BFD052001F00EFE944820
:100730000068401C92490860914800686428DFDB2B
:1007400000208F490860C82001F0FFFD01F0A2F8E9
:1007500001F0FDFB002000F042FE8849824800685D
:1007600005F054FD0746874905F030FF044605F0C3
:1007700021FD05462A460B4683A1734803F01EFF60
:100780000223714A0021084600F061FE76480068A5
:1007900005F010FD044622460B467FA16A4803F08F
:1007A0000DFF0223684A1946002000F050FE4FF06A
:1007B00082417E48006805F029FD80467C4905F0AD
:1007C0000FFF05467B4905F001FF044605F0F2FCEA
:1007D000064632460B4678A15B4803F0EFFE022343
:1007E000594A0421002000F032FE71496F48006828
:1007F00005F0F6FE064605F0DDFC044622460B46F3
:1008000071A1514803F0DAFE02234F4A062100206D
:1008100000F01DFE40F6B83001F097FDBDE8F08114
:100820002DE9F04100F070FF01F034F801F0F9F823
:1008300001F08DFB01F051FC67494648006805F066
:1008400094FE09D34C494848006805F00FFE03D3D5
:1008500062480068012808D16420384908600020F7
:100860005E49086001205E4908605E4939480068B9
:1008700005F07BFE09D35C493648006805F0F6FDBB
:1008800003D357480068012809D14FF487702B49DA
:10089000086000205249086001205449086054490A
:1008A0005448006805F0E2FD03D350480068012871
:1008B00008D1B4202149086000204C49086001207B
:1008C0004D4908601D481EA102681F4803F076FECE
:1008D00002231D4A0621002000F0B9FD17480168D7
:1008E0001AA000F04CFC45494548006805F03DFE63
:1008F00009D32F494248006805F0B8FD03D33E48AC
:10090000006801287ED101E001F0E7FB28493C485E
:10091000006805F02AFEF7D36F20084908600846F2
:1009200007A10268084803F049FE0223064A06218F
:10093000002000F08CFD0148016864E00000002008
:1009400042543A20256400004C05002025640D0A1D
:10095000000000000C050020444953313A20256670
:10096000000000000000A04110050020444953325F
:100970003A202566000000000000204200002041CF
:100980005C00002000000C4246726F6E743A202515
:10099000362E336620636D00426568696E643A20C6
:1009A00025362E336620636D0000000020050020F0
:1009B0000000BE420000C8414C6566743A202536EE
:1009C0002E336620636D000052696768743A2025F3
:1009D000362E336620636D00000096431C00002015
:1009E0002C0000200000A0420000DC42300000206B
:1009F00000005C421405002034000020000070421A
:100A000024050020B3E0AFF2BC0000F0B8FB4FF4C7
:100A1000FA7001F09AFC40F29A20B4490860084646
:100A2000AFF2E4010268B24803F0C8FD0223B04A05
:100A30000621002000F00BFDAC480168AFF2F40085
:100A400000F09DFB4FF4FA6001F07FFCDE20A74927
:100A500008600846AFF218110268A54803F0AEFD21
:100A60000223A34A0621002000F0F1FC9F48016800
:100A7000AFF2281000F083FBC82001F066FC00F004
:100A8000D0FF01F064FA002000F0A9FC99499A48CF
:100A9000006805F0A5FD064605F08CFB04462246DD
:100AA0000B46AFF21C11924803F088FD0223904AD6
:100AB0000021084600F0CBFC8E498F48006805F005
:100AC0008FFD80468D4905F0A1FB05468C4905F058
:100AD0007DFD044605F06EFB064632460B46AFF23E
:100AE0004811834803F06AFD0223814A1946002019
:100AF00000F0ADFC4FF082418248006805F086FBB3
:100B00000746814905F062FD044605F053FB0546A2
:100B10002A460B46AFF26011754803F04FFD0223E1
:100B2000734A0421002000F092FC7648006805F02A
:100B300041FB044622460B46AFF274116C4803F0A9
:100B40003DFD02236A4A0621002000F080FC40F6A9
:100B5000B83001F0FAFB00206C49086001206C49B4
:100B6000086000206B49086001206B490860BDE8FF
:100B7000F08110B500F0C8FD00F08CFE00F051FFD0
:100B800001F0E5F901F0A9FA5A495E48006805F05C
:100B90006DFC03D35E480068012808D164205349E6
:100BA000086000205A49086001205C4908605C49DF
:100BB0005C48006805F05AFC03D3584800680128D7
:100BC00008D1BE204949086000205449086001202E
:100BD000554908604A495348006805F047FC03D36B
:100BE00051480068012817D10AE0B4203F49086045
:100BF00008460168AFF2AC2000F0C1FA01F0A7F995
:100C00004A493D48006805F0B0FCEED30020464953
:100C100008600120464908603448AFF2DC210268D0
:100C2000334803F0CBFC0223314A0621002000F0B8
:100C30000EFC2E480168AFF2EC2000F0A0FA3B4910
:100C40002D48006805F012FC03D3394800680128DC
:100C50004BD101E001F07BF934492748006805F0E9
:100C600084FCF7D36F20214908600846AFF2303189
:100C700002681F4803F0A2FC02231D4A062100203F
:100C800000F0E5FB19480168AFF2403000F077FA58
:100C90004FF4FA7001F059FBDE2014490860084651
:100CA000AFF264310268124803F088FC0223104A54
:100CB0000621002000F0CBFB0C480168AFF2743035
:100CC00000F05DFAC82001F040FB4FF47A7001F0AB
:100CD0003CFB0020164908600120164908600020EE
:100CE0000D49086001201449086010BD0000002073
:100CF0004C0500200000704220050020000020412B
:100D000000000C42140500200000C84134000020FF
:100D10003800002050000020540000203C0000203B
:100D2000000007430C0500204000002000003E4367
:100D3000440000204800002058000020F8B50A2692
:100D400001250121042001F009FF0220ADF8000077
:100D500010208DF8030003208DF8020069467B48BF
:100D600001F040FC0221794801F0EBFC4FF41650F1
:100D700000F08FF932E00120754908600A2001F087
:100D8000E4FA74A000F0FBF900207449C1F8840172
:100D900000240AE07248008800F4004000B106E038
:100DA000052001F0D2FA601CC4B20A2CF2DB00BFAD
:100DB0006B48008800F4004080B169480578002045
:100DC00067490880042D09D1664800784F2805D16D
:100DD000644840784B2801D1002504E03000A6F19A
:100DE0000101CEB2C7D100BF06B901252846F8BD22
:100DF00070B50F2630E00120554908600A2001F047
:100E0000A4FA59A000F0BBF900250AE00A2001F07D
:100E10009CFA5348008800F4004000B103E0681CCD
:100E2000C5B2142DF2DB00BF0020494908604C48D0
:100E3000008800F4004078B149480478002048490F
:100E400008800D2C08D1474800782B2804D145484C
:100E500080793038C4B204E03000A6F10101CEB28E
:100E6000C9D100BF06B9FF24204670BD2DE9F0416D
:100E700005460F272FE00120354908600A2001F0C0
:100E800064FA29463BA000F07AF900203349C1F802
:100E9000840100260AE03248008800F4004000B1D6
:100EA00006E0052001F051FA701CC6B2142EF2DBE8
:100EB00000BF2B48008800F4004060B12848047847
:100EC000002027490880042C05D1264800784F28A7
:100ED00001D1002404E03800A7F10101CFB2CAD14A
:100EE00000BF07B9FF242046BDE8F08170B5044675
:100EF0000120174908600A2001F027FA21461DA0A9
:100F000000F03DF900260AE01548008800F4004092
:100F100000B106E00A2001F018FA701CC6B2322EA9
:100F2000F2DB00BF00200A4908600D48008800F489
:100F3000004048B10A48057800200949088009495D
:100F400048550EA003F02EFB70BD000000080140C4
:100F50008401214241540D0A00000000000021429A
:100F6000600000202806002041542B524F4C453F82
:100F70000D0A000025730D0A000000000D0A2573FC
:100F80000000000010B5044644B10021944803F06D
:100F9000A9F80121924802F011FE03E000219048D7
:100FA00002F00CFE10BD10B540F225518D4801F045
:100FB000F9FF00B38B4801F075FFC4B28A4800887E
:100FC000C82812DA0021864803F08CF88648008889
:100FD00010B90120FFF7D6FF834801880088401C24
:100FE000814A10808148445405E07F48008840F4DD
:100FF00000407D49088010BD7FB505460C460121A3
:10100000042001F0B8FDADF80450ADF80040002018
:10101000ADF80600ADF802006946714802F072FAB8
:10102000012211466E4802F0E4FD1E208DF80C00EE
:1010300001208DF80D0002208DF80E0001208DF8A2
:101040000F0003A801F0F7FF7FBD70B58CB0064616
:101050000C4615460121084601F073FD304602F0AA
:1010600053F80194029510200390002004900590FD
:101070008020069000200790089009904FF480503F
:101080000A9000200B9001A9304602F0DFF80CB066
:1010900070BD10B586B004460121042001F05EFD4C
:1010A0000121480401F067FD4E4801F0BBFD04201A
:1010B000ADF8100003208DF8120018208DF81300F1
:1010C00004A94B4801F08EFA0820ADF81000042066
:1010D0008DF8130004A9464801F084FA009400201A
:1010E000ADF80400ADF80600ADF80800ADF80C004E
:1010F0000C20ADF80A0069463A4801F0D6FD0122FD
:101100008021384801F08EFE3A4A3649091D3A4896
:10111000FFF79BFF0121334801F053FE012240F20B
:101120002551304801F059FE26208DF81400022088
:101130008DF8150003208DF8160001208DF817009A
:1011400005A801F078FF41F61F416320FFF754FF27
:10115000002025490880FFF715FF06B010BD70B5C7
:1011600004460D460021204602F09BF82946204601
:1011700002F0ACF80121204602F093F870BD0FB4E4
:1011800038B505A800901B48009A049903F0F8F9B7
:101190000020009000BF184802F09AF80028FAD109
:1011A000144803F0BBFBC4B221461348FFF7D7FF36
:1011B00038BC5DF814FB10B50121094802F0C7FFE7
:1011C00060B10948008840F40040074908800121C7
:1011D000034802F0CDFF0020FFF7D4FE10BD000051
:1011E0000008004000440040600000202806002065
:1011F00000080140600500208000024000B585B075
:101200000121480501F0B7FC0121082001F0A6FCEE
:10121000C020ADF8000003208DF802001C208DF8DE
:1012200003006946F44801F0DDF9F44802F0A4FF38
:101230000020ADF808004BF6FF70ADF80A00302032
:10124000ADF80C004FF48060ADF80E000001ADF871
:101250001000EB4801900121E84803F024F801A9AF
:10126000E64802F0A2FF05B000BD70B504460D4689
:1012700000BF4FF40031E14803F03CF90028F8D1F9
:101280000121DE4803F033F800BFDE49DB4803F0FC
:101290000FF90028F9D000227821D84803F07DF812
:1012A00000BFD949D54803F003F90028F9D02146F9
:1012B000D24803F06CF800BFD349891CCF4803F033
:1012C000F7F80028F8D02946CC4803F060F800BFB2
:1012D000CD49891CC94803F0EBF80028F8D001215A
:1012E000C64803F010F870BD10B504462146002032
:1012F000FFF7BBFF10BD10B5044621464020FFF7A5
:10130000B4FF10BD10B5642001F01FF8AE20FFF748
:10131000EBFF2020FFF7E8FF1020FFF7E5FFB020EC
:10132000FFF7E2FFC820FFF7DFFF0020FFF7DCFF39
:101330001020FFF7D9FF4020FFF7D6FF8120FFF7ED
:10134000D3FFFF20FFF7D0FFA120FFF7CDFFA6209E
:10135000FFF7CAFFA820FFF7C7FF3F20FFF7C4FF32
:10136000A420FFF7C1FFD320FFF7BEFF0020FFF747
:10137000BBFFD520FFF7B8FFF020FFF7B5FFD9205E
:10138000FFF7B2FF2220FFF7AFFFDA20FFF7ACFF35
:101390001220FFF7A9FFDB20FFF7A6FF2020FFF7B1
:1013A000A3FF8D20FFF7A0FF1420FFF79DFFAF20C4
:1013B000FFF79AFF10BD70B504460D4605F1B00168
:1013C000C8B2FFF791FF102141EA1410FFF78CFF1C
:1013D00004F00F0141F00100FFF786FF70BD70B50A
:1013E0000646002415E004F1B001C8B2FFF77CFF07
:1013F0000020FFF779FF1020FFF776FF002504E0BB
:101400003046FFF778FF681CC5B2802DF8DB601C02
:10141000C4B2082CE7DB70BD10B50020FFF7DFFF7A
:1014200010BD10B58D20FFF75FFF1420FFF75CFFA4
:10143000AF20FFF759FF10BD10B58D20FFF754FF07
:101440001020FFF751FFAE20FFF74EFF10BD2DE932
:10145000F0470646894617469A464FF00008002492
:101460000025BAF1010F03D0BAF1020F5ED125E0D9
:1014700020E0785D203800F0FF087E2E04DD002695
:1014800009F1010000F0FF0949463046FFF793FFDC
:10149000002409E008EB48015C4A02EB4101085DC9
:1014A000FFF729FF601CC4B2062CF3DBB01DC6B2E7
:1014B000681CC5B2785D0028DBD137E032E0785D8A
:1014C000203800F0FF08782E04DD002609F1010025
:1014D00000F0FF0949463046FFF76DFF002407E0A2
:1014E00004EB08114A4A505CFFF705FF601CC4B2C8
:1014F000082CF5DB09F10100C1B23046FFF75BFFB4
:10150000002408E004EB08110831414A505CFFF761
:10151000F2FE601CC4B2082CF4DB06F10800C6B26F
:10152000681CC5B2785D0028C9D100BF00BFBDE806
:10153000F0872DE9F04180460E46174600247D01D4
:1015400031464046FFF737FF00BF06E03149485DAE
:10155000FFF7D1FE6D1C601CC4B2102CF6DB701CB2
:10156000C1B24046FFF727FF002406E02949485D45
:10157000FFF7C1FE6D1C601CC4B2102CF6DBBDE889
:10158000F0812DE9F05F06460F4690461C46DDF8D7
:1015900028A04FF0000BE11704EB5171C910A4EB28
:1015A000C10131B92046E11704EB5171C1F3C70500
:1015B00006E02046E11704EB5171C910491CCDB279
:1015C0003D4614E029463046FFF7F5FEB1460AE0F5
:1015D00059460BF1010B1AF80100FFF78CFE09F1D7
:1015E000010000F0FF09C145F2DB681CC5B2A5424D
:1015F000E8DBBDE8F09F0000000C01400054004013
:10160000801A06000100030082000700CE66000871
:10161000F6680008620000207FB505460C460121EF
:10162000084601F0A8FAADF80850ADF804400020D3
:10163000ADF80A00ADF8060001A94FF0804001F0B6
:1016400061FF01221146900702F0D3FA1C208DF8A9
:10165000000001208DF801008DF802008DF80300D4
:10166000684601F0E8FC7FBD08B501210D2001F0BE
:1016700075FA0121FE4801F086F845F22800ADF820
:10168000000028208DF8030003208DF80200694631
:10169000F84800F0A7FF4AF21010ADF80000102043
:1016A0008DF8030003208DF802006946F14800F030
:1016B00099FF4FF23811EF4801F041F84FF4A8506C
:1016C000ADF8000028208DF8030003208DF80200FB
:1016D0006946E94800F086FF4FF40A40ADF8000083
:1016E00010208DF8030003208DF802006946E248BF
:1016F00000F078FF4FF41F41DF4801F020F8472148
:101700000A20FFF789FF08BD2DE9F0470020DB49DB
:10171000086052E00120DA4908600F2000F0F1FD76
:101720000020D849C1F8B40100BFD548843800680A
:101730000028FAD00121880702F040FA00BFD04803
:10174000843800680128FAD000214FF0804002F070
:1017500035FA4FF0804002F0E8FCCB490860CB48F6
:10176000008800EB8000096801EB4000C649086072
:101770000846006804F022FB0646C54AC54B04F043
:1017800031FB04460022C44B04F02AFC804604F0DE
:101790003BFAC249086000204FF080418884BB4971
:1017A0000880BE480068BE49B44A126841F8220069
:1017B000B2480068401CB1490860B048006803287E
:1017C000A8DBB74A5168106804F020FD0546B4480C
:1017D0008168284604F01AFD0446B24904F084FDED
:1017E000AE490860AE490868AC49096804F0F8FEE3
:1017F000064604F0DFFC21F00041044604F004FA40
:10180000A9490860A6494868A449096804F0E8FEA7
:10181000064604F0CFFC21F00041044604F0F4F940
:10182000A14948609E4988689C49096804F0D8FE2F
:10183000064604F0BFFC21F00041044604F0E4F940
:10184000994988600A465168106804F00FFE0AD86A
:10185000954A9168106804F009FE04D89048006821
:101860008E49086014E0904A1168506804F0FEFD4B
:101870000AD88D4A9168506804F0F8FD04D8884869
:1018800040688649086003E08548806883490860AD
:10189000BDE8F0872DE9F04700207849086053E063
:1018A00001207749083108600F2000F02AFD002050
:1018B0007449C1F8BC0100BF71487C380068002839
:1018C000FAD00121880702F079F900BF6C487C3812
:1018D00000680128FAD000214FF0804002F06EF934
:1018E0004FF0804002F021FC67490860674800889B
:1018F00000EB8000096801EB40006349086008467E
:10190000006804F05BFA0646614A624B04F06AFA2A
:1019100004460022604B04F063FB804604F074F937
:101920006249086000204FF0804188845749088050
:101930005E4800685A49514A126841F822004F48EF
:101940000068401C4D4908604C4800680328A7DB2C
:10195000534A5168106804F059FC054650488168A4
:10196000284604F053FC04464E4904F0BDFC4F49A0
:1019700008604B4908684D49096804F031FE064685
:1019800004F018FC21F00041044604F03DF94649FA
:101990000860434948684549096804F021FE064645
:1019A00004F008FC21F00041044604F02DF93E4902
:1019B00048603B4988683D49096804F011FE0646C5
:1019C00004F0F8FB21F00041044604F01DF936490B
:1019D00088600A465168106804F048FD0AD8324A07
:1019E0009168106804F042FD04D82D4800682F4922
:1019F000086014E02C4A1168506804F037FD0AD8DA
:101A0000294A9168506804F031FD04D824484068A0
:101A10002649086003E02248806824490860BDE840
:101A2000F0872DE9F04700201449086078E0012094
:101A30001F4908600F2000F064FC00201D49C1F818
:101A4000A40100BF1A48843800680028FAD0012198
:101A5000880702F0B3F800BF1548843800680128F1
:101A6000FAD000214FF0804002F0A8F824E00000F6
:101A700000023000000C0140000801402805002051
:101A8000B481214200802142080500200405002085
:101A90009CC420B07268913F000008400C050020F3
:101AA000F006002000004040FC0600201005002049
:101AB000A4012142000021424FF0804002F035FB9A
:101AC000FE490860FE48008800EB8000096801EBD1
:101AD0004000FA4908600846006804F06FF90646BD
:101AE000F84AF94B04F07EF904460022F74B04F063
:101AF00077FA804604F088F8F549086000204FF036
:101B000080418884EE490880F1480068F149F24A32
:101B1000126841F82200F0480068401CEE49086055
:101B2000ED480068032882DBEA4A5168106804F037
:101B30006DFB0546E7488168284604F067FB0446CC
:101B4000E64904F0D1FBE2490860E2490868E0494F
:101B5000096804F045FD064604F02CFB21F0004125
:101B6000044604F051F8DE490860DA494868D8496B
:101B7000096804F035FD064604F01CFB21F0004125
:101B8000044604F041F8D6494860D2498868D049F3
:101B9000096804F025FD064604F00CFB21F0004125
:101BA000044604F031F8CE4988600A46516810684E
:101BB00004F05CFC0AD8CA4A9168106804F056FC2C
:101BC00004D8C4480068C249086014E0C44A1168D7
:101BD000506804F04BFC0AD8C14A9168506804F080
:101BE00045FC04D8BB484068B949086003E0B948DF
:101BF0008068B7490860BDE8F0872DE9F04700200C
:101C0000B549086052E00120B64908600F2000F095
:101C100078FB0020B449C1F8AC0100BFB14884385A
:101C200000680028FAD00121880701F0C7FF00BF33
:101C3000AC48843800680128FAD000214FF0804079
:101C400001F0BCFF4FF0804002F06FFA9B49086042
:101C50009B48008800EB8000096801EB4000974931
:101C600008600846006804F0A9F80646954A964BB5
:101C700004F0B8F804460022944B04F0B1F9804611
:101C800003F0C2FF9949086000204FF0804188842A
:101C90008B490880954800688E498F4A126841F840
:101CA00022008D480068401C8B4908608A48006803
:101CB0000328A8DB874A5168106804F0A7FA054694
:101CC00084488168284604F0A1FA0446834904F058
:101CD0000BFB864908607F4908688449096804F05D
:101CE0007FFC064604F066FA21F00041044603F04A
:101CF0008BFF7B490860774948687C49096804F094
:101D00006FFC064604F056FA21F00041044603F049
:101D10007BFF734948606F4988687449096804F01B
:101D20005FFC064604F046FA21F00041044603F049
:101D30006BFF6B4988600A465168106804F096FB97
:101D40000AD8674A9168106804F090FB04D861488B
:101D500000686649086014E0614A1168506804F040
:101D600085FB0AD85E4A9168506804F07FFB04D86E
:101D7000584840685D49086003E0564880685B4900
:101D80000860BDE8F0872DE9F0470020524908605F
:101D900053E001205349103108600F2000F0B1FAE0
:101DA00000205149C1F8BC0100BF4E487C38006892
:101DB0000028FAD00121880701F000FF00BF494840
:101DC0007C3800680128FAD000214FF0804001F0F3
:101DD000F5FE4FF0804002F0A8F938490860384815
:101DE000008800EB8000096801EB4000334908607F
:101DF0000846006803F0E2FF0646324A324B03F021
:101E0000F1FF04460022314B04F0EAF8804603F06B
:101E1000FBFE3749086000204FF080418884284944
:101E20000880334800682B492B4A126841F8220089
:101E300029480068401C2849086027480068032892
:101E4000A7DB244A5168106804F0E0F905462148F0
:101E50008168284604F0DAF90446204904F044FA7F
:101E6000234908601B4908682149096804F0B8FB48
:101E7000064604F09FF921F00041044603F0C4FE39
:101E800017490860134948681949096804F0A8FB14
:101E9000064604F08FF921F00041044603F0B4FE39
:101EA0000F4948600B4988681149096804F098FB9C
:101EB000064604F07FF921F000411BE008050020F0
:101EC000040500209CC420B07268913F00000840C7
:101ED00014050020F00600202805002000004040E6
:101EE000FC060020AC012142000021421805002020
:101EF0001C050020044603F087FEE74988600A4677
:101F00005168106804F0B2FA0AD8E34A9168106880
:101F100004F0ACFA04D8E1480068E149086014E034
:101F2000DD4A1168506804F0A1FA0AD8DA4A9168CB
:101F3000506804F09BFA04D8D8484068D849086033
:101F400003E0D6488068D6490860BDE8F0872DE9EF
:101F5000F0470020D349086052E00120D2490860D0
:101F60000F2000F0CEF90020D049C1F8900100BF49
:101F7000CD48843800680028FAD00121880701F094
:101F80001DFE00BFC848843800680128FAD000212F
:101F90004FF0804001F012FE4FF0804002F0C5F893
:101FA000C3490860C348008800EB8000096801EB62
:101FB0004000BF4908600846006803F0FFFE06467F
:101FC000BD4ABE4B03F00EFF04460022BC4B04F09A
:101FD00007F8804603F018FEBA49086000204FF069
:101FE00080418884B3490880B6480068AB49AD4A4F
:101FF000126841F82200AB480068401CA9490860FB
:10200000A84800680328A8DBA44A5168106804F0B7
:10201000FDF80546A1488168284604F0F7F8044613
:10202000A94904F061F9A74908609C490868A549D5
:10203000096804F0D5FA064604F0BCF821F0004126
:10204000044603F0E1FD94490860944948689D49BD
:10205000096804F0C5FA064604F0ACF821F0004126
:10206000044603F0D1FD8C4948608C498868954945
:10207000096804F0B5FA064604F09CF821F0004126
:10208000044603F0C1FD844988600A46516810681F
:1020900004F0ECF90AD8804A9168106804F0E6F977
:1020A00004D87E4800688749086014E07A4A1168BD
:1020B000506804F0DBF90AD8774A9168506804F058
:1020C000D5F904D8754840687E49086003E0734834
:1020D00080687C490860BDE8F0872DE9F047002062
:1020E0007049086053E001206F49103108600F20EB
:1020F00000F007F900206D49C1F8A00100BF6A484F
:102100007C3800680028FAD00121880701F056FDCC
:1021100000BF65487C3800680128FAD000214FF0E4
:10212000804001F04BFD4FF0804001F0FEFF604920
:1021300008606048008800EB8000096801EB4000FF
:102140005B4908600846006803F038FE06465A4AB4
:102150005A4B03F047FE04460022594B03F040FF60
:10216000804603F051FD5949086000204FF080413E
:10217000888450490880554800684849494A12688F
:1021800041F8220047480068401C4649086045481D
:1021900000680328A7DB414A5168106804F036F84C
:1021A00005463E488168284604F030F80446464912
:1021B00004F09AF8454908603849086843490968B5
:1021C00004F00EFA064603F0F5FF21F00041044644
:1021D00003F01AFD30490860304948683B490968F6
:1021E00004F0FEF9064603F0E5FF21F00041044645
:1021F00003F00AFD2849486028498868334909687E
:1022000004F0EEF9064603F0D5FF21F00041044644
:1022100003F0FAFC204988600A465168106804F00F
:1022200025F90AD81C4A9168106804F01FF904D8EF
:102230001A4800682549086014E0174A1168506878
:1022400004F014F90AD8144A9168506804F00EF9A1
:1022500004D8124840681D49086003E00F488068B0
:102260001A490860BDE8F08710B50121880701F020
:102270006EFF78B10121880701F07AFF0D480088D0
:10228000401C0C49088008460088B0F5FA6F01D15F
:102290000020088010BD0000FC060020F006002091
:1022A0001C05002028050020908121420080214249
:1022B00008050020040500209CC420B07268913FEE
:1022C00000000840200500200000404024050020B8
:1022D00010B56FF0040000F0F8FE2E4800682E499B
:1022E000B0FBF1F02D4908700846007800EB400182
:1022F000C1EBC0104FF6FF7101EAC0002849088009
:1023000010BD0146254A12784A434FF0E0235A6136
:1023100000229A611A46126942F001021A6100BF56
:102320004FF0E022106900F001021AB100F480328F
:10233000002AF5D04FF0E022126922F001024FF09E
:10234000E0231A6100229A6170470146144A1288FC
:102350004A434FF0E0235A6100229A611A461269FB
:1023600042F001021A6100BF4FF0E022106900F054
:1023700001021AB100F48032002AF5D04FF0E022B9
:10238000126922F001024FF0E0231A6100229A61E3
:10239000704700000400002000127A002C05002085
:1023A0002E050020014600BF704700BF494A128831
:1023B00002F04002002AF9D0C2B2464B1B1D1A801F
:1023C000704710B586B00446012144F2040000F0C5
:1023D000C5FB4FF40070ADF8140003208DF8160013
:1023E00018208DF8170005A93B4800F0FBF84FF4C2
:1023F0008060ADF8140004208DF8170005A9364858
:1024000000F0F0F825208DF8000003208DF8010081
:102410008DF8020001208DF80300684600F00BFEE5
:1024200001940020ADF80800ADF80A00ADF80C00EA
:10243000ADF810000C20ADF80E0001A9254800F001
:1024400034FC012240F22551224800F0C6FC012153
:10245000204800F0B6FC06B010BD10B540F2255182
:102460001C4800F09FFD10B31A4800F01BFDC4B2D9
:102470001A48008800F40040C8B91848008800F4E1
:10248000804060B10A2C03D000201449088020E06D
:102490001248008840F400401049088019E00D2CD3
:1024A00006D10E48008840F480400C49088010E0B6
:1024B0000A480088C0F30D0009490C5407480088F9
:1024C000401C0649088008460088C72801DD002016
:1024D000088010BD0038014000080140340500208C
:1024E000080700200948804709480047FEE7FEE743
:1024F000FEE7FEE7FEE7FEE7FEE7FEE7FEE7FEE7B4
:1025000004480549054A064B704700002F0400089F
:102510003101000830080020300E0020300A002071
:10252000300A002010B50446CC48844208D101216D
:10253000042000F02DFB0021042000F029FB46E0E0
:10254000C748844208D10121082000F021FB002166
:10255000082000F01DFB3AE0C248844208D1012166
:10256000102000F015FB0021102000F011FB2EE0E0
:10257000BD48844208D10121202000F009FB002140
:10258000202000F005FB22E0B848844208D1012158
:10259000402000F0FDFA0021402000F0F9FA16E09A
:1025A000B348844208D10121802000F0F1FA0021D3
:1025B000802000F0EDFA0AE0AE48844207D1012104
:1025C000801500F0E5FA0021A01500F0E1FA10BD39
:1025D00010B50121084600F0DBFA0021012000F0CF
:1025E000D7FA10BD2DE9F041024600250026002053
:1025F00000230024002791F803C00CF00F0591F888
:1026000003C00CF0100CBCF1000F03D091F802C015
:102610004CEA050591F800C0BCF1000F31D01468F8
:1026200000202BE04FF0010C0CFA00F3B1F800C0D1
:102630000CEA03069E4220D183004FF00F0C0CFAE7
:1026400003F7BC4305FA03FC4CEA040491F803C009
:10265000BCF1280F06D14FF0010C0CFA00FCC2F8B7
:1026600014C00AE091F803C0BCF1480F05D14FF047
:10267000010C0CFA00FCC2F810C0401C0828D1D391
:102680001460B1F800C0BCF1FF0F34DD54680020C5
:102690002EE000F1080C4FF0010808FA0CF3B1F835
:1026A00000C00CEA03069E4221D183004FF00F0CBC
:1026B0000CFA03F7BC4305FA03FC4CEA040491F856
:1026C00003C0BCF1280F05D100F1080C08FA0CF882
:1026D000C2F8148091F803C0BCF1480F07D100F193
:1026E000080C4FF0010808FA0CF8C2F81080401CE2
:1026F0000828CED35460BDE8F0814FF6FF71018009
:10270000022181700421C170704702460020936845
:102710000B400BB1012000E00020704701468868A3
:1027200080B2704702460020D3680B400BB10120F5
:1027300000E0002070470146C86880B27047016120
:102740007047416170470AB1016100E04161704723
:10275000C16070474FF480320A43826181618261B7
:1027600082698269704702460020434B18684FF621
:102770008073184040EA021008433F4B18607047CE
:102780003E49C8617047F0B50A4600230024002185
:10279000002500F00046B6F1004F02D1364EF16937
:1027A00001E0354E7168C0F3034583B200F4401672
:1027B000B6F5401F08D121F070612F4E766826F0E3
:1027C00070662D4F7E6012E000F48016B6F5801F13
:1027D00006D1032606FA05F4A14341F0706106E034
:1027E000460D360103FA06F6B14341F0706122B19D
:1027F000460D360103FA06F6314300F00046B6F105
:10280000004F02D11C4EF16101E01B4E7160F0BD22
:1028100030B500228B071C0F0F2303FA04F2164B6E
:1028200008338C1053F824309343134C08348D1024
:1028300044F8253023468C1053F824308C07240F9D
:1028400000FA04F423430C4C08348D1044F825306E
:1028500030BD0A49DC3108607047000000080140C3
:10286000000C01400010014000140140001801401C
:10287000001C0140002001400000014000002042F7
:10288000DF48006840F00100DD4908600846406804
:10289000DC490840DA49486008460068DA490840DF
:1028A000D74908600846006820F480200860084680
:1028B000406820F4FE0048604FF41F0088607047B5
:1028C000CF49096821F48031CD4A11601146096869
:1028D00021F480211160B0F5803F03D0B0F5802F46
:1028E0000ED106E0C649096841F48031C44A11603E
:1028F00007E0C349096841F4A021C14A116000E022
:1029000000BF00BF704710B5014600220023002021
:102910004A11012A02D1BA4C236806E0022A02D1E8
:10292000B74C236A01E0B64C636A01F01F02012430
:1029300094401C400CB1012000E0002010BD38B5CF
:10294000002000900024002500BF3120FFF7DBFFAE
:1029500005460098401C00900098B0F5A06F01D08B
:10296000002DF2D03120FFF7CEFF08B1012400E0A6
:102970000024204638BD01460020A14A106820F0FE
:10298000F80040EAC10010607047A0490860704735
:10299000024600209A4B586820F47C1042EA01035A
:1029A0001843974B5860704798490866704701462E
:1029B0000020934A506820F003000843506070479D
:1029C0008F48406800F00C007047014600208C4A98
:1029D000506820F0F0000843506070470146002026
:1029E000874A506820F4E060084350607047014611
:1029F0000020834A506820F4605040EAC1005060D3
:102A0000704729B17E4A527A02437D4B5A7204E0E4
:102A10007B4A527A82437A4B5A7270477B49D8314B
:102A20000860704701460020754A506820F4404015
:102A30000843506070470021714A20321170704A7B
:102A400082F82010012802D004280AD104E00121D4
:102A50006B4A2032117005E00521694A203211705D
:102A600000E000BF00BF70476949086070476449D3
:102A7000096A0143624A1162704765494439086036
:102A8000704730B500210022002400235C4D6D68A2
:102A900005F00C0121B1042905D0082923D105E056
:102AA0005C4D056022E05B4D05601FE0544D6D6894
:102AB00005F47012524D6D6805F48034022505EB63
:102AC00092421CB9544D554305600BE04C4D6D6866
:102AD00005F400351DB1504D5543056002E04D4DE4
:102AE0005543056002E04B4D056000BF00BF444DFB
:102AF0006D6805F0F0010909484D6B5C0568DD4023
:102B000045603F4D6D6805F4E061090A434D6B5C1B
:102B10004568DD4085603A4D6D6805F46051C90A2D
:102B20003E4D6B5C4568DD40C560354D6D6805F414
:102B30004041890B3A4D6B5CC568B5FBF3F5056107
:102B400030BD29B12E4A526902432D4B5A6104E02F
:102B50002B4A526982432A4B5A61704729B1284A4D
:102B600092690243264B9A6104E0254A92698243A6
:102B7000234B9A61704729B1214AD2690243204B05
:102B8000DA6104E01E4AD26982431D4BDA61704764
:102B900029B11B4AD2680243194BDA6004E0184A93
:102BA000D2688243164BDA60704729B1144A126921
:102BB0000243134B1A6104E0114A12698243104B1D
:102BC0001A61704712494039086070470F49C8645C
:102BD00070470B49C87170470948406A40F08070DF
:102BE00007494862704701460020054A92680A403A
:102BF0000AB1012000E00020704701498872704747
:102C0000001002400000FFF8FFFFF6FE0000424205
:102C10008004424200127A0000093D00360500207F
:102C20004605002010B50446FB48844209D1012125
:102C30008803FFF7ADFF00214FF48040FFF7A8FFA6
:102C400032E0F648844209D101214804FFF7ADFF84
:102C500000214FF40030FFF7A8FF25E0F048844240
:102C600009D101218804FFF7A0FF00214FF4802043
:102C7000FFF79BFF18E0EB48844209D10121C8040B
:102C8000FFF793FF00214FF40020FFF78EFF0BE0CA
:102C9000E548844208D101210805FFF786FF00219D
:102CA0004FF48010FFF781FF10BD2DE9F04786B08B
:102CB00005460E460024A24600BFA1460027B08963
:102CC00000B100BF2F462C8A4CF6FF700440F088FC
:102CD00004432C82AC894EF6F3100440B08831894D
:102CE0000843718908430443AC81AC8A4FF6FF4026
:102CF0000440B0890443AC8201A8FFF7C2FEC64875
:102D0000874202D1DDF810A001E0DDF80CA0A8890F
:102D100000F4004040B10AEBCA0000EB0A10316831
:102D20004900B0FBF1F807E00AEBCA0000EB0A101B
:102D300031688900B0FBF1F86420B8FBF0F00401C1
:102D40002009642101FB1089A88900F4004040B1EA
:102D5000322000EBC900B0FBF1F000F007000443A3
:102D600008E0322000EB09106421B0FBF1F000F024
:102D70000F0004432C8106B0BDE8F0874FF41651D4
:102D8000016000218180C18001810C2141810021ED
:102D90008181704710B502460020108A4FF2FF0370
:102DA00018400B884C8823438C882343CC882343CA
:102DB0001843108210BD0021018041808180C180B4
:102DC000704721B1828942F40052828104E08289F5
:102DD0004DF6FF731A4082817047F0B50346002418
:102DE00000260025002040F66A17B94200D100BF36
:102DF0001846C1F3421401F01F06012707FA06F531
:102E0000012C01D10C3004E0022C01D1103000E083
:102E100014301AB107682F43076002E00768AF4318
:102E20000760F0BD1AB1838A0B43838202E0838A74
:102E30008B4383827047028A4FF6F0731A400282F6
:102E4000028A0A430282704782894FF2FF731A4056
:102E5000828182890A438281704721B1828942F04E
:102E60000202828104E082894FF6FD731A4082815A
:102E70007047028A4FF6DF731A400282028A0A43C1
:102E80000282704721B1028A42F48042028204E049
:102E9000028A4BF6FF731A4002827047C1F30802A0
:102EA0008280704701468888C0F308007047818996
:102EB00041F0010181817047028BD2B20283028B03
:102EC00042EA012202837047028B02F47F420283AE
:102ED000028B0A430283704721B1828A42F02002AA
:102EE000828204E0828A4FF6DF731A408282704742
:102EF00021B1828A42F01002828204E0828A4FF677
:102F0000EF731A408282704721B1828A42F0080230
:102F1000828204E0828A4FF6F7731A4082827047F9
:102F200021B1828942F40042828103E08289C2F3A6
:102F30000E028281704721B1828A42F4006282824D
:102F400004E0828A4FF2FF731A4082827047828ABD
:102F50004FF6FB731A408282828A0A43828270474C
:102F600021B1828A42F00202828204E0828A4FF614
:102F7000FD731A408282704702460020B1F5007F3F
:102F800000D100BF13880B400BB1012000E00020EE
:102F9000704701F40072B2F5007F00D100BFCA4350
:102FA0000280704770B502460024002300250020EF
:102FB00040F66A16B14200D100BFC1F3421501F0DC
:102FC0001F03012606FA03F3012D02D1968933402F
:102FD00006E0022D02D1168A334001E0968A334082
:102FE0000C12012606FA04F41688344013B10CB111
:102FF000012000E0002070BD10B50022002340F643
:103000006A14A14200D100BF0A1201249440A3B265
:10301000DC43048010BD0000003801400044004043
:1030200000480040004C004000500040314901433E
:10303000314A1160704770B5002100230F22C47817
:1030400004B32D4C246804F4E064C4F5E064210A60
:10305000C1F10403CA40447804FA03F184781440AF
:1030600021430901254C0678A155047804F01F0579
:103070000124AC4005786D11AD0005F1E025C5F8DF
:10308000004109E0047804F01F050124AC401C4D08
:103090000678761145F8264070BD1A4A0A40024368
:1030A000154B1B1F1A60704739B1134A121D126865
:1030B0000243114B1B1D1A6006E00F4A121D1268D5
:1030C00082430D4B1B1D1A607047042808D14FF036
:1030D000E021096941F004014FF0E022116107E0AD
:1030E0004FF0E021096921F004014FF0E022116165
:1030F000704700000000FA050CED00E000E400E07D
:1031000080E100E080FFFF1F01684FF6FE72114072
:1031100001600021016041608160C1608D49884289
:1031200008D18C490839496841F00F01894A083AA9
:1031300051608AE087491431884208D185490839AD
:10314000496841F0F001834A083A51607DE08149C5
:103150002831884208D17F490839496841F47061B3
:103160007C4A083A516070E07A493C31884208D183
:1031700078490839496841F47041764A083A516003
:1031800063E074495031884208D17249083949686E
:1031900041F470216F4A083A516056E06D4964313C
:1031A000884208D16B490839496841F47001694A7D
:1031B000083A516049E067497831884208D1654949
:1031C0000839496841F07061624A083A51603CE050
:1031D0006149884206D1011F096841F00F01021FB1
:1031E000116032E05C491431884208D15A49091F04
:1031F000096841F0F001584A121F116025E0564954
:103200002831884208D15449091F096841F4706186
:10321000514A121F116018E04F493C31884208D1D1
:103220004D49091F096841F470414B4A121F116052
:103230000BE049495031884207D14749091F0968C5
:1032400041F47021444A121F1160704710B50022EA
:10325000026847F6F0739A430C6A8B6823430C6943
:1032600023434C6923438C692343CC6923434C6A31
:1032700023438C6A23431A430260CB6843600B6884
:1032800083604B68C36010BD0021016041608160B4
:10329000C160016141618161C1610162416281621C
:1032A000704721B1026842F00102026004E0026846
:1032B0004FF6FE731A40026070471AB103680B4361
:1032C000036002E003688B4303607047416070470E
:1032D0000146486880B2704701460020002201F094
:1032E00080531BB11C4B083B1A6802E0194B083B8A
:1032F0001A6802EA01030BB1012000E000207047C8
:1033000000F0805119B11449091F086002E0114909
:1033100008394860704701460020002201F08053C0
:103320001BB10D4B083B1A6802E00A4B083B1A68B8
:1033300002EA01030BB1012000E00020704700F019
:10334000805119B10449091F086002E00149083998
:1033500048607047080002400804024010B5044667
:10336000FE48844208D10121C014FFF711FC00215E
:10337000E014FFF70DFCC4E0B4F1804F08D1012147
:103380000846FFF712FC00210120FFF70EFCB8E011
:10339000F348844208D101210220FFF706FC0021F6
:1033A0000220FFF702FCACE0EE48844208D1012184
:1033B0000420FFF7FAFB00210420FFF7F6FBA0E052
:1033C000E948844208D101210820FFF7EEFB0021E3
:1033D0000820FFF7EAFB94E0E448844208D1012189
:1033E0001020FFF7E2FB00211020FFF7DEFB88E052
:1033F000DF48844208D101212020FFF7D6FB0021BD
:103400002020FFF7D2FB7CE0DA48844208D101217A
:103410004014FFF7BDFB00216014FFF7B9FB70E01B
:10342000D548844209D10121C804FFF7B1FB00212E
:103430004FF40020FFF7ACFB63E0D048844209D191
:1034400001210805FFF7A4FB00214FF48010FFF7CE
:103450009FFB56E0CA48844209D101214805FFF785
:1034600097FB00214FF40010FFF792FB49E0C5489D
:10347000844208D101214020FFF797FB0021402022
:10348000FFF793FB3DE0C048844208D10121802032
:10349000FFF78BFB00218020FFF787FB31E0BB4863
:1034A000844208D101218015FFF77FFB0021A01580
:1034B000FFF77BFB25E0B648844209D101210804CF
:1034C000FFF766FB00214FF48030FFF761FB18E047
:1034D000B048844209D101214804FFF759FB00217B
:1034E0004FF40030FFF754FB0BE0AB48844208D1A7
:1034F00001218804FFF74CFB00214FF48020FFF7E7
:1035000047FB10BD00220288944B98420ED0994B85
:1035100098420BD0B0F1804F08D0914B984205D023
:10352000904B984202D0904B984204D14FF68F7343
:103530001A404B881A438D4B984207D08C4B9842C7
:1035400004D04FF6FF431A40CB881A4302808B8881
:1035500083850B880385814B98420BD0854B98421D
:1035600008D08B4B984205D08A4B984202D08A4BA8
:10357000984201D10B7A038601238382704770B58C
:10358000002400220023058C4FF6FE76354005848A
:10359000028C8388048B4FF68F752C40B51E2C400F
:1035A0000D882C43751E2A400D892A434D882A43D5
:1035B0006A4DA8420BD06F4DA84208D0744DA84266
:1035C00005D0744DA84202D0734DA84213D14FF6D6
:1035D000F7752A404D892A434FF6FB752A408D889E
:1035E0002A434FF6FF652B404FF6FF552B408D8940
:1035F0002B43CD892B4383800483CD888586028429
:1036000070BD70B5002400220023058C4FF6EF76C4
:1036100035400584028C8388048B48F6FF752C4066
:103620004FF6FF452C400D884FF6FF7606EA05253C
:103630002C434FF6DF752A400D8906EA05152A430B
:103640004D8806EA05152A43444DA84202D0494D4B
:10365000A8421DD14FF67F752A404D894FF6FF765F
:1036600006EA05152A434FF6BF752A408D8806EAFB
:1036700005152A434FF6FF352B404FF2FF752B40BF
:103680008D8906EA85052B43CD8906EA85052B43FE
:1036900083800483CD880587028470BD70B50024C3
:1036A00000220023058C4FF6FF6635400584028C0E
:1036B0008388848B4FF68F752C404FF6FC752C4019
:1036C0000D882C434FF6FF552A400D894FF6FF76A3
:1036D00006EA05252A434D8806EA05252A431F4D9B
:1036E000A84202D0234DA8421DD14FF2FF752A40B7
:1036F0004D894FF6FF7606EA05252A434FF6FF353A
:103700002A408D8806EA05252A434EF6FF752B4090
:103710004DF6FF752B408D8906EA05152B43CD89A3
:1037200006EA05152B4383808483CD888587028430
:1037300070BD70B5002200230024058C4EF6FF7684
:1037400035400584038C8488828B48F6FF752A40B7
:103750004FF6FF452A400D8820E00000002C014074
:103760000004004000080040000C00400010004031
:103770000014004000340140004C01400050014062
:103780000054014000180040001C00400020004090
:103790000040014000440140004801404FF6FF76E0
:1037A00006EA05252A434DF6FF752B400D8906EAEA
:1037B00005352B434D8806EA05352B43FA4DA842C3
:1037C00002D0FA4DA84208D14BF6FF752C408D89E6
:1037D0004FF6FF7606EA85152C4384808283CD88D8
:1037E000A0F84050038470BD828B4FF2FF331A4023
:1037F0008283828B4FF6FF7303EA01231A4382838D
:103800007047F0B50C461546002200210026078CB3
:103810004EF6FF7C07EA0C070784828B018C4FF67B
:10382000FF7707EA043640F6FF473A404FF6FF7746
:1038300007EA05273A434FF6FF7707EA03373A438B
:10384000D94FB8420ED0D94FB8420BD0B0F1804F0B
:1038500008D0D74FB84205D0D64FB84202D0D64F85
:10386000B84206D14DF6FF77394046F480573943C8
:1038700005E047F6FF57394044F4805739438283C7
:103880000184F0BD828B4FF6F3731A408283828BE2
:103890000A4382837047F0B50C461546002200218A
:1038A0000026078C4FF6FF6C07EA0C070784828B13
:1038B000018C4FF6FF7707EA04264FF60C773A4063
:1038C0004FF6FF7707EA03172F433A43B64FB84244
:1038D0000ED0B64FB8420BD0B0F1804F08D0B44FE5
:1038E000B84205D0B34FB84202D0B34FB84206D168
:1038F0004FF6FF57394046F48077394305E04FF2E1
:10390000FF57394044F48077394382830184F0BD06
:10391000028B4FF2FF331A400283028B4FF6FF7384
:1039200003EA01231A4302837047F0B50C4615469B
:10393000002200210026078C4FF6EF7C07EA0C07D7
:103940000784028B018C4FF6FF7707EA041640F6D6
:10395000FF473A404FF6FF7707EA03373A434FF6FF
:10396000FF7707EA05273A438F4FB8420ED08F4FB3
:10397000B8420BD0B0F1804F08D08D4FB84205D07F
:103980008C4FB84202D08C4FB84206D14FF6DF7749
:10399000394046F01007394305E04FF65F7739406C
:1039A00044F01007394302830184F0BD028B4FF6C7
:1039B000F3731A400283028B0A4302837047F0B507
:1039C0000C46154600220021068C4FF6FE773E403D
:1039D0000684028B018C4FF60C7632407E1C06EA80
:1039E00003162E433243704EB0420ED06F4EB0429B
:1039F0000BD0B0F1804F08D06D4EB04205D06D4E67
:103A0000B04202D06C4EB04206D14FF6FD76314046
:103A100044F00106314305E04FF6F576314044F0BD
:103A20000106314302830184F0BD70B505460C46A2
:103A30005D4885420ED05D4885420BD0B5F1804F80
:103A400008D05B48854205D05A48854202D05A4882
:103A5000854200D100E000BF208850B92389A288A8
:103A600061882846FFF7ABFFE1882846FFF79EFFF5
:103A700025E0208804280AD12389A2886188284665
:103A8000FFF753FFE1882846FFF742FF17E0208841
:103A900008280AD12389A28861882846FFF7FBFEFF
:103AA000E1882846FFF7EEFE09E02389A2886188B5
:103AB0002846FFF7A6FEE1882846FFF795FE70BD71
:103AC0002DE9F04105460C4600260127608808B91B
:103AD000022600E00026A088012801D1022700E08C
:103AE00001272088A0B92389A28861882846FFF78A
:103AF00066FFE1882846FFF759FF23893A46314699
:103B00002846FFF712FFE1882846FFF701FF13E080
:103B10002389A28861882846FFF707FFE1882846A5
:103B2000FFF7F6FE23893A4631462846FFF747FF5E
:103B3000E1882846FFF73AFFBDE8F0810A884B8804
:103B40001A438B881A43CB881A430B891A434B8933
:103B50001A438B891A43A0F8442070474FF6FF712F
:103B6000818000210180C180418001727047002165
:103B7000018041808180C180018141818181C18139
:103B80007047002101804180012181800021C18096
:103B9000018170470021018041808180C1800181C5
:103BA0004181818170470000002C014000340140B8
:103BB0000004004000080040000C004021B10288D1
:103BC00042F00102028004E002884FF6FE731A40C0
:103BD0000280704731B1B0F8442042F40042A0F8AE
:103BE000442005E0B0F84420C2F30E02A0F84420BF
:103BF00070471AB183890B43838102E083898B4329
:103C0000838170478182704741EA0203A0F84830FF
:103C100070471AB183890B43838102E083898B4308
:103C20008381704701894FF6F87211400181704716
:103C30000A46002101894FF68F7319401143018113
:103C4000704730B504460D4629462046FFF7F0FF81
:103C5000208940F00700208130BD2DE9F041044665
:103C60000D4616461F46602D06D13B4601223146C1
:103C70002046FFF75AFE05E03B460122314620462A
:103C8000FFF79DFE29462046FFF7D2FF208940F02E
:103C900007002081BDE8F08130B50C460021018984
:103CA000C9B24FF6FF7505EA03251543254329439D
:103CB000018130BD2DE9F04105460E461746984674
:103CC000002443463A4631462846FFF7E5FF2C8953
:103CD0004FF6F870044044F007044FF68F7004402C
:103CE00044F070042C81BDE8F081F0B504460D4627
:103CF00016461F463B46324629462046FFF7CCFF74
:103D0000208940F480402081F0BD01858282704787
:103D10000A46002101884FF68F7319401143018034
:103D20007047F0B50C4615461E46002100220023C0
:103D30000189028B038C4FF6F877394021434FF607
:103D4000FC473A4040F201173A434FF6DD773B40DB
:103D50004FF6FF7707EA06172F433B4301810283A3
:103D60000384F0BD0A460021018B4FF68F73194082
:103D70001143018370470A460021018B48F6FF7307
:103D800019404FF6FF7303EA02231943018370477A
:103D90000A460021818B4FF68F73194011438183AE
:103DA00070470A460021818B48F6FF7319404FF691
:103DB000FF7303EA022319438183704721B102880C
:103DC00042F08002028004E002884FF67F731A40BE
:103DD0000280704721B1828842F00402828004E0B0
:103DE00082884FF6FB731A408280704721B1828827
:103DF00042F00802828004E082884FF6F7731A408E
:103E00008280704721B1828842F00102828004E002
:103E100082884FF6FE731A40828070470A4600215E
:103E2000018B4FF6F77319401143018370470A461F
:103E30000021018B4FF2FF7319404FF6FF7303EA25
:103E400002231943018370470A460021818B4FF6F4
:103E5000F77319401143818370470A460021818B13
:103E60004FF2FF7319404FF6FF7303EA0223194321
:103E7000818370470A460021018B4FF6FB7319407E
:103E80001143018370470A460021018B4FF6FF332F
:103E900019404FF6FF7303EA022319430183704769
:103EA0000A460021818B4FF6FB7319401143818331
:103EB00070470A460021818B4FF6FF3319404FF6B9
:103EC000FF7303EA02231943818370470A460021E6
:103ED000018B4FF67F7319401143018370470A46E7
:103EE0000021018BC1F30E014FF6FF7303EA022399
:103EF0001943018370470A460021818B4FF67F7377
:103F000019401143818370470A460021818BC1F318
:103F10000E014FF6FF7303EA0223194381837047B2
:103F20000A460021018C4FF6FD73194011430184AC
:103F300070470A460021018C4FF6F7731940114370
:103F4000018470470A460021018C4FF6DF73194047
:103F50004FF6FF7303EA02131943018470470A46C0
:103F60000021018C4FF67F7319404FF6FF7303EA6F
:103F700002131943018470470A460021018C4FF651
:103F8000FF5319404FF6FF7303EA022319430184DC
:103F900070470A460021018C4FF2FF7319404FF61B
:103FA000FF7303EA02231943018470470A46002184
:103FB000018C4DF6FF7319404FF6FF7303EA02338D
:103FC00019430184704730B5002301248C40A3B20B
:103FD000048C9C430484048C02FA01F5ADB22C439A
:103FE000048430BD30B5002304248C40A3B2048C7B
:103FF0009C430484048C02FA01F5ADB22C43048482
:1040000030BD70B503460020002418461830012545
:104010008D40ACB21D8CA5431D8409B1082909D17E
:1040200000EB6100056825F0700505600568154323
:1040300005600EE00D1FC5F34E052844056825F404
:10404000E045056005684FF6FF7606EA022635432F
:10405000056070BD21B1028842F00202028004E0D6
:1040600002884FF6FD731A400280704721B1028822
:1040700042F00402028004E002884FF6FB731A400B
:104080000280704721B1828842F08002828004E081
:1040900082884FF67F731A408280704702884FF6FD
:1040A000F7731A40028002880A43028070478288B0
:1040B0004FF68F731A40828082880A43828070474D
:1040C00002894FF6F8731A40028102890A4302817D
:1040D000704702894FF67F731A40028102890A43B2
:1040E000028170478184704781857047818670475F
:1040F0000187704781877047A0F840107047028899
:104100004FF6FF431A40028002880A43028070473C
:104110000146888E70470146088F70470146888F98
:1041200070470146B1F8400070470146888C7047DF
:104130000146088D704702460020138A0B400BB1E0
:10414000012000E000207047CA430282704730B56A
:104150000246002000230024158A05EA0103958900
:1041600005EA010413B10CB1012000E0002030BDCC
:10417000CA4302827047000010B50446F7488442E3
:1041800009D101214805FEF710FD00214FF4001070
:10419000FEF70BFD08E001218805FEF706FD002172
:1041A0004FF48000FEF701FD10BD2DE9F04385B00E
:1041B00004460D460026B1460427DFF8A483A688EE
:1041C0004FF6C07006406846FEF75BFCDDF80880DD
:1041D000E448B8FBF0F01FFA80F946EA0906A68029
:1041E00020884FF6FE71084020800026DE492868AE
:1041F00088420CD828684000B8FBF0F087B2042F42
:1042000000DA04273E4309F10100208427E0E88812
:104210004BF6FF71884206D1286800EB4000B8FBDE
:10422000F0F087B209E0286800EBC00101EB001054
:10423000B8FBF0F087B247F48047C7F30B0008B92A
:1042400047F0010747F4004006434FF4967009FB1E
:1042500000F04FF47A7190FBF1F0401C2084A683AB
:10426000208840F00100208026884FF6F530064077
:10427000A8886989084306432680A88929890843B4
:10428000208105B0BDE8F08341F288310160002152
:1042900081804BF6FF71C1800021018141814FF483
:1042A00080418181704721B1028842F00102028081
:1042B00004E002884FF6FE731A400280704721B175
:1042C000828842F40062828004E082884FF2FF73A9
:1042D0001A408280704721B1828842F480528280E5
:1042E00004E082884EF6FF731A408280704721B145
:1042F000028842F48072028004E002884FF6FF6375
:104300001A400280704721B1028842F40072028094
:1043100004E002884FF6FF531A400280704721B133
:10432000028842F48062028004E002884FF6FF3384
:104330001A40028070470A46002181894FF60173B6
:10434000194002F0FE0319438181704721B182892F
:1043500042F00102828104E082894FF6FE731A4026
:104360008281704721B1028842F04002028004E05D
:1043700002884FF6BF731A40028070471AB18388D3
:104380000B43838002E083888B43838070470182E4
:1043900070470146088AC0B2704712B141F001016E
:1043A00002E04FF6FE7319400182704708B50246DD
:1043B0000020009000920098084400900098008827
:1043C00008BD21B1028842F40042028003E0028865
:1043D000C2F30E0202807047B1F5006F04D102886B
:1043E00042F40062028004E002884FF2FF731A4038
:1043F00002807047B1F5005F04D1028842F4005298
:10440000028004E002884DF6FF731A400280704774
:1044100021B1028842F48052028004E002884EF604
:10442000FF731A4002807047B1F5006F04D1028813
:1044300042F40062028004E002884FF2FF731A40E7
:104440000280704721B1028842F02002028004E01D
:1044500002884FF6DF731A40028070470146088BCE
:104460000012704721B1028842F01002028004E07D
:1044700002884FF6EF731A400280704721B9028814
:1044800042F08002028004E002884FF67F731A40F7
:1044900002807047B1F5804F05D0828B4BF6FF73D9
:1044A0001A40828303E0828B42F480428283704709
:1044B00070B502460024002500230020958A138B46
:1044C0001B0445EA030626F07F4404EA01068E42F7
:1044D00001D1012000E0002070BD10B50146002090
:1044E000002300228B8A0A8B120443EA020424F080
:1044F0007F4010BD0CB502460020002301930093BD
:1045000000920B0F019321F07F41019B1BB1009B97
:104510001433009303E0090C009B18330093009BB5
:104520001B680B400BB1012000E000200CBD0022F5
:1045300021F07F42D3438382704730B5024600208A
:104540000023948801F0E06504EA154321F07F41DF
:10455000948A0C4054B14BB1012008E00054004053
:1045600000127A0040420F00A0860100002030BDFA
:10457000002221F07F42D3438382704770470000BE
:104580001CB50C46064B7B4469460090204600F063
:104590007AFC04460020694600F088FC20461CBDD9
:1045A000230900000FB4044910B503AA029800F0D3
:1045B00099FC10BC5DF814FB300500200FB41CB54D
:1045C000084B06AA7B4469460090059800F05BFC06
:1045D00004460020694600F069FC20461CBC5DF8DA
:1045E00014FB0000E508000070B50446856900680A
:1045F000C10601D5302600E02026C00707D070BDD7
:10460000D4E9012130469047206A401C20626D1E8B
:10461000F6D570BD70B5044685690078C00707D12E
:1046200070BDD4E9012120209047206A401C2062FF
:104630006D1EF6D570BD70B50C460546012A05D035
:104640002878800600D5EA69002302E0012305E00E
:104650005B1C934202D2E05C0028F9D1A869E618FD
:10466000C01AA861286A184428622846FFF7BCFFD0
:1046700004E0D5E9012114F8010B9047B442F8D3C6
:104680002846FFF7C7FF70BD2DE9F041064600241C
:1046900010687529314616A510D000F062F900287F
:1046A00002DA404213A507E031688A0701D512A556
:1046B00002E0490704D511A5012401E000F05AF9F0
:1046C00000210A2206F1240709E0B0FBF2FCB0FB4E
:1046D000F2F302FB1C00303078541846491C0028C5
:1046E000F3D123462A463046BDE8F04100F04BB9ED
:1046F000000000002D0000002B0000002000000042
:10470000F0B40D460188090502D5214C7C4402E035
:104710001F4C7C440E34002100F1240608E002F016
:104720000F071209E75D42EA03721B097754491C1F
:1047300052EA0307F3D102780023120704D5702D43
:1047400006D009B1022311342246F0BC00F01BB997
:1047500001231034F8E770B504460D462146106871
:1047600000F008F9024629462046BDE870400023C3
:10477000C6E7D21D22F00703D3E90023C0E7036890
:10478000126843F0200303600823C3610023B7E7E6
:10479000D62700002DE9F05F894604464FF0000A55
:1047A000DFF874B1FB44C0F820A02046E1688847D8
:1047B000002874D0252806D0D4E901219047206A2A
:1047C000401C2062F1E700265F462046E1688847EA
:1047D0002028054607DB312D05D2781910F8200C6A
:1047E00008B10643F1E7B00701D526F00406C4F886
:1047F0001CA00027C4F818A02A2D09D0284601F0D3
:10480000D0F938B304EB8708303DC8F8185019E0E8
:1048100059F8041B204604EB87029161E168884740
:10482000012F054618D1E069002820DA26F020067D
:104830001DE0D8F8180000EB800005EB4000303890
:10484000C8F818002046E1688847054601F0A9F934
:104850000028EED1012F0AD02E2D08D12046E16884
:1048600088477F1C0546022F46F02006C4DBA0695E
:10487000002803DA404246F00106A061F00701D0AB
:1048800026F010066C2D0BD0682D09D04C2D39D098
:104890006A2D35D0742D35D07A2D33D016E038E01E
:1048A000E1682F4620468847B842054609D16C2F5B
:1048B00026D04FF48060E1680643204688470546CD
:1048C00004E06C2F1AD04FF4807006430DB3A5F1AD
:1048D0004100192802D8203546F400664A46294688
:1048E000204626604E46FBF77DFC80B101280BD0A8
:1048F000F61D26F0070000F1080956E74020E4E71E
:104900008020D8E70020D6E706F104094DE72846C5
:1049100052E7206ABDE8F09F6627000010B5431CEF
:1049200002E010F8011B71B18107FAD14FF001329A
:1049300002C88C1A8C4314EAC211F9D0C01A0A06B4
:1049400003D0C01E10BDC01A10BD0A0401D0801EC5
:1049500010BD0902FCD0401E10BD70477047704763
:10496000704709684A0501D540B27047C905FCD5B2
:1049700000B2704709684A0501D5C0B27047C90541
:10498000FCD580B270472DE9F0470D469946924616
:10499000044600F124080168880604D5E06921F086
:1049A0001001216000E00120A84201DD471B00E06A
:1049B0000027A1697A1902EB0900081AA061207882
:1049C000C00602D42046FFF70FFE002608E0D4E917
:1049D00001211AF806009047206A401C761C2062CC
:1049E0004E45F4DB2078C0060AD52046FFF7FCFDD3
:1049F00006E0D4E9012130209047206A401C206263
:104A0000381EA7F10107F4DC07E0D4E9012118F80A
:104A100005009047206A401C2062281EA5F1010570
:104A2000F3DC2046FFF7F6FD2078000602D50220D1
:104A3000BDE8F0870120FBE711680268006A5305B2
:104A400001D508700AE0D30501D5088006E01306F9
:104A500003D5C217C1E9000200E0086001207047D9
:104A600070472DE9FF4F0C461E464FF0FF378BB0C5
:104A7000D2E90001DDF860800A908A46C1F30A5548
:104A800005B93D46002108464FF00000BAF1000F7D
:104A900000F4400005DA00EB80004FF4400101EA29
:104AA00050004FEA9059B9F1010F00DDB9460A985C
:104AB00050EA4A000ED044F61050A5F2FF354543A7
:104AC0002F14B8F1000F1ED07542291E1EDDC9F14A
:104AD00000021CE0B8F1010F4FF0000001D03021BE
:104AE00003E0F24305E02154401CB042FBDB3046BA
:104AF0000022002121540B99C1F80880C1E900204F
:104B00000FB0BDE8F08FBD1B6D1CDEE74A4600DA32
:104B1000694206A800F06CFB06AB93E8070003AB04
:104B200083E8070050460A9900F06CFC8DE8070006
:104B3000A0F500501F3800900398002D09DD42F2C7
:104B40001F014A46084403A90390684600F0CBFEC3
:104B500008E0A0F500504A461F3803A903906846B4
:104B600000F0D5FE8DE807000004000C03D04FF0E4
:104B7000FF30410800E01046B8F1000F03D00022DA
:104B8000009215461EE0751E05D400F095FA3032ED
:104B900062556D1EF9D5B3460122084302D00022AA
:104BA0007F1C04E02078302801D100227F1E002ADB
:104BB000099786D01DE0112D07DA00F07DFA30321A
:104BC00062556D1C50EA0102F5D1084302D00098ED
:104BD000C8B10EE00021681E05E0235C625C6354EE
:104BE0002254401E491C8142F7DBAB46A81B401EE5
:104BF0000990002004F80B000B98099AC0F808806F
:104C0000C0E9002B7CE711264FF0000859E72DE999
:104C1000F04F88460446D21D22F0070191B0D1E939
:104C20000001CDE90A0100F0A8FF02460B98C00F71
:104C300001D02D2007E02068810701D52B2002E05C
:104C4000202101EAC000032A099001D0072A05DBD0
:104C500003464146204600F075FA0BE120788006B5
:104C600001D5E06900E00620B8F1650F814606D065
:104C7000B8F1660F18D0B8F1670F70D131E000209D
:104C8000B9F1110F009001DB112301E009F10103DB
:104C90000AAA01A90CA8FFF7E4FEDDE90C700026C2
:104CA00009F10105834647E001204B4600904FF093
:104CB00000470AAA01A90CA8FFF7D3FEDDE90DB051
:104CC0000C995D46002610B909F101000D18B9EBE9
:104CD000050003D4C0F1FF3609F10105A5EB090079
:104CE0002BE0B9F1010F01DA4FF001090020B9F111
:104CF000110F0090484601DD112300E003460AAA87
:104D000001A90CA8FFF7ADFEDDE90C704D460026A9
:104D10008346207800070AD4AB4500DA5D4601A837
:104D2000012D04DD411911F8011C302907D04F4530
:104D300002DA17F1040F04DA012082460FE06D1E3B
:104D4000EEE7002F02DCED1B3E4403E0781CA84296
:104D500000DD7D1CB81B00F1010A4FF000472078F0
:104D6000000703D4AA4501DB4FF0FF3A0021B7F159
:104D7000004F0DF143088DF8431024D002202B235F
:104D8000002F01DA7F422D230A21021EA0F101002B
:104D900000DC5FB197FBF1FC97FBF1F201FB1C7C9F
:104DA00017460CF1300C08F801CDEEE7A8F1010030
:104DB00003702188090501D5452100E06521A0F196
:104DC000010800F8011C09980FA9A1EB0807FF1DB5
:104DD00000B10120411901EBEA70A1693844081AB9
:104DE000401EA0612078C00602D42046FFF7FCFBDD
:104DF000099828B1D4E901219047206A401C20621B
:104E00002078C00622D52046FFF7EEFB1EE0002EDC
:104E100004DBB34502DD01A8805D00E03020D4E969
:104E200001219047206A401C2062761CAAF10100F3
:104E30005FEA000A0AD100F03BF9C0680168405CF3
:104E4000D4E901219047206A401C2062281EA5F168
:104E50000105DCDC07E0D4E9012118F8010B9047DB
:104E6000206A401C2062381EA7F10107F3DC2046AF
:104E7000FFF7D0FB032011B043E6000001694A1C94
:104E800002610878704700B58FB0CDE9013100218B
:104E9000059105497944CDE9031011466846FFF7AD
:104EA00079FC0FB000BD0000E5FFFFFF0A6802F8C3
:104EB000010B0A60704710B5436913B1AFF300806E
:104EC00001E0FFF7B8FB012010BD127800F12401CA
:104ED0000A7000224A700122EDE711684FF0FF329C
:104EE000E9E70000074B70B50D467B44FFF7CBFFA9
:104EF0000446284600F0EAF910B14FF0FF3070BDCB
:104F0000204670BDBDD4FFFF2DE9FF5F15468A46E0
:104F10000446DFF8AC80F8440027D8E900103E468C
:104F2000CDE9001010E03AF816106A4602A800F029
:104F3000D1F9411C07D02178890603D5E2693918D7
:104F400091420DD80744761C2078800602D5E0698E
:104F5000B84205DDAE42E6DB3AF816000028E2D1A1
:104F6000A069C01BA0612046FFF73EFBD8E90010F6
:104F7000CDE90010002017E03AF818106A4602A8A0
:104F800000F0A8F9B0F1FF3F81460BD000250DF1EC
:104F9000080B05E0D4E901211BF8050090476D1CC2
:104FA0004D45F7D308F10100B0428046E4DB206AAA
:104FB000384420622046FFF72DFBBDE8FF9F00002C
:104FC000062000002DE9F0418046D21D22F00702A4
:104FD0000025D2E90002F52915A614D0011E72F1B0
:104FE000000106DA0023D0EB030063EB020211A6F6
:104FF00008E0D8F800108B0701D50FA602E049079A
:1050000001D50EA601251146002408F1240704E06D
:1050100000F052F830323A55641C50EA0102F7D1E0
:105020002B46324621464046BDE8F041FFF7ABBC77
:10503000000000002D0000002B00000020000000F8
:1050400030B4002100F1240408E002F00705D20882
:10505000303542EA4372DB086554491C52EA0305C5
:10506000F3D10468002310A2250708D504F020041A
:105070000C4304D0C46901230CA2641EC46130BC7B
:10508000FFF781BC10B5044621461068FFF772FC9B
:1050900002462046BDE810400023D1E7D21D22F091
:1050A0000701D1E90023CBE7000000003000000039
:1050B00000487047F007002030B5B0F10A024FEA0F
:1050C000900E71F100034EEA817EB0EB0E0061EBB1
:1050D00091014FEA101E4EEA017E10EB0E0041EBEB
:1050E00011114FEA102E4EEA016E10EB0E0041EB4B
:1050F00011214FEA104E4EEA014E10EB0E0041EB2B
:105100001141401841F100014FEAD00040EA4170DE
:105110004FEAD10110EB80054FEA810444EA907414
:1051200044EB01046D1944EB0404521BA3414FF0FE
:10513000000348BF0A3200D530BD401C41F10001D8
:1051400030BD00002DE9F0411F46044603260168EA
:10515000072A01F4006004DB08B116A505E016A5D6
:1051600003E008B115A500E015A521F010002060AE
:10517000A069C01EA0610FB1401EA0612046FFF7CC
:1051800033FA4FB1D4E9012138469047206A401CD8
:105190002062C01C206206E0206AFAE7D4E90121FF
:1051A00015F8010B9047761EF8D22046FFF732FA29
:1051B000BDE8F0814E414E006E616E00494E4600E2
:1051C000696E660010B5436913B1AFF3008001E06A
:1051D000FFF79AFE012010BD128800F1240182849D
:1051E0000022C2840122EDE711684FF0FF32E9E7A7
:1051F0002DE9F047814616468AB0334878440DC8F9
:105200008DE80D0030487844801C03AC0DC884E85C
:105210000D0041F69B300844372190FBF1F290FBE2
:10522000F1F5A5F1800501FB12041B3C02D5644297
:10523000012000E00020DFF890A080460027FA441B
:10524000AAF1BE0A0DE0E00709D03246684607EB36
:1052500047010AEB810100F05AFB8DE8070064105A
:105260007F1C002CEFD1184F7F44AC3F18E0E807BB
:1052700014D007EB04100DF1180A90E80E008AE82C
:105280000E00C068F04201D198190890324606A974
:1052900003A800F03CFB03AB83E807006D10641C1F
:1052A000002DE4D132466946B8F1000F03A802D0C0
:1052B00000F019FB01E000F02AFBC9E90001C9F880
:1052C00008200AB0BDE8F087A41D0000007B00F0B4
:1052D0008000704770B516460C46054600F044F84D
:1052E000036893F80101012806D0FF2C0FD8185D40
:1052F00068B101202C7070BDD3F8070132462146F9
:1053000003F2071303442846BDE8704018474FF0E6
:10531000FF3070BD00487047D00700207546FFF78A
:10532000F9FFAE4605006946534620F00700854662
:1053300018B020B5FDF7E4F8BDE820404FF00006B6
:105340004FF000074FF000084FF0000B21F007016D
:10535000AC46ACE8C009ACE8C009ACE8C009ACE8B0
:10536000C0098D467047000010B5FFF7A1FE001D73
:1053700010BD00BF690800000446AFF3008020465E
:10538000FAF793FF4FF0013C50F8042B51F8043B1F
:105390009A4221D1A2EB0C03934313EACC1317D109
:1053A00050F8042B51F8043B9A4215D1A2EB0C03A0
:1053B000934313EACC130BD150F8042B51F8043B60
:1053C0009A4209D1A2EB0C03934313EACC13DBD02E
:1053D0004FF00000704700BFD01A01BAB1FA81F156
:1053E00001F0180122FA01F0CB40C1F12001DBB23B
:1053F000C0B2C01A2CFA01F3D11A914311EAC311B9
:10540000E6D170475FEA400C08BF91F0000F4FEA09
:105410008C234FEAC12243EA51514FEA1C5018BF76
:1054200000F5F0404FEA300018BF41F000415FEA5C
:105430006C5C00F02980BCF1FF3F08BF40F0804069
:105440007047130C06BF12044FF0100C4FF0000C05
:10545000130E04BF12020CF1080C130F04BF12014B
:105460000CF1040C930F04BF92000CF1020CD30F4B
:1054700004BF52000CF1010C11464FF00002A0F1E4
:105480001F00A0EB0C00704711F0004F08BF7047E1
:1054900031F000413FF4D5AF0B0C06BF09044FF0CB
:1054A000100C4FF0000C0B0E04BF09020CF1080C9D
:1054B0000B0F04BF09010CF1040C8B0F04BF890012
:1054C0000CF1020CCB0F04BF49000CF1010CCCF124
:1054D0002003A0EB0C0022FA03F302FA0CF241EADB
:1054E000030100F10100704720F07F4C80EA0300C7
:1054F00023F07F47ACEB070303F57C5300F000403B
:1055000003F1FF032DE980494FEA154B09B44FEA37
:10551000144325EA0B4E24EA03480FF2042606EB57
:10552000132749083E785FEA320203FB0667C7F596
:10553000000707FB06F64FEA54374FEAD64606F156
:10554000020607FB066CCCF1005C4FEA1C472CEA14
:10555000074C07FB06F40CFB06F504EB15464FEA77
:10556000961634BF00204FF000404FEAD13706FBBB
:1055700007FC4FEA1C4C0CFB0BF7D21B03FB0CF790
:1055800061EB07010CFB0EF7B0EB074072EB174223
:105590000CFB08F734BFA2EB0742B2EB074261EB0A
:1055A00017414FEA0C444FEA910706FB07FC4FEA0C
:1055B0001C4C0CFB0BF7B0EBC74072EB573203FBF4
:1055C0000CF734BFA2EBC742B2EBC74261EB5731D5
:1055D0000CFB0EF7B0EBC70072EB57720CFB08F731
:1055E00034BFA2EBC702B2EBC70261EB5771039F56
:1055F0004FEA816141EA921104EBCC044FEAD137C2
:105600004FEA826206FB07FC42EA90124FEA806092
:105610004FEA1C4C0CFB0BF7D21B03FB0CF761EBA6
:1056200007010CFB0EF7B0EB074072EB17420CFBC7
:1056300008F734BFA2EB0742B2EB074261EB174118
:105640004FEA8C554FEA910704EB9C2406FB07FCBC
:105650004FEA1C4C0CFB0BF7B0EBC74072EB573218
:1056600003FB0CF734BFA2EBC742B2EBC74261EBBE
:1056700057310CFB0EF7B0EBC70072EB57720CFB07
:1056800008F734BFA2EBC702B2EBC70261EB577158
:1056900015EB4C254FEA816141EA92114FEA826293
:1056A0004FEAD13742EA901206FB07FC44F10004AE
:1056B0004FEA80604FEA1C4C0CFB0BF7D21B03FB3C
:1056C0000CF761EB07010CFB0EF7B0EB074072EB38
:1056D00017420CFB08F734BFA2EB0742B2EB0742BC
:1056E00061EB174115EB1C154FEA813141EA9241FC
:1056F0004FEA823242EA90424FEA80304FEA0C761B
:1057000044F1000448EA03434EEA0B484FF0000E10
:10571000B2EB080C71EB030724BF624639464EEB2F
:105720000E0E4FF0000B0018524149414BEB0B0B92
:10573000B2EB080C71EB03077BF1000B24BF624650
:1057400039464EEB0E0E4FF0000B00185241494106
:105750004BEB0B0BB2EB080C71EB03077BF1000B6F
:1057600024BF624639464EEB0E0E51EA020718BFBF
:1057700046F0010616EB0E7655F1000254F10001D9
:1057800003D5BDE88901BDE80088BDE88901BDE811
:105790000048B619524141EB0101A3F101037047E2
:1057A00080807F7E7D7C7B7A79787776767574735E
:1057B000727171706F6E6E6D6C6C6B6A6A6968681D
:1057C000676666656464636362616160605F5F5EB3
:1057D0005E5D5D5C5C5B5B5A5A5959585857575629
:1057E000565555555454535352525251515050508E
:1057F0004F4F4F4E4E4D4D4D4C4C4C4B4B4B4A4AE0
:105800004A49494948484847474747464646454523
:10581000454444444443434343424242424141415C
:10582000002B26D4770021D01CB54FEA370703B4EC
:105830004FF010004FF010014FF000000FBCBDE81A
:1058400010400BF1010BBBF1010F08BF5FEA170716
:1058500022BF12F1010211F101014FF0004143F1A9
:10586000000300F0004043EA00007047F9D35708F6
:10587000DAE746EA064613F1400F4FEA16461FDD07
:1058800013F1200FDFBF16430A46002120335B428D
:10589000C8D0C3F1200746EA064602FA07F74FEAE6
:1058A000164646EA0706C3F1200722FA03F201FA78
:1058B00007F721FA03F14FF0000342EA0702B1E7CC
:1058C00046EA020646EA06464FEA164646EA010658
:1058D000BCBF46EA0646360C4FF000034FF000020C
:1058E0004FF000019EE72DE9C048934630B491E89F
:1058F000380007C831EA400C48BF34EA430C03D5EE
:10590000FFF7F2FDFFF78CFFF0BCBDE800882DE942
:10591000C048934630B491E8380007C810F0804F73
:1059200008BF13F0804F03D100F005F8FFF778FFB0
:10593000F0BCBDE8008820F07F4780EA030023F038
:105940007F4C07EB0C03A3F57C5300F00040A3F160
:10595000FE0392F0000F00F0B38095F0000F00F00E
:1059600077802DE901494FEA11404FEA144621EAB8
:10597000004800FB06FC24EA064708FB06F607FB86
:1059800008F800FB07F718EB06484CEB164C4FEAFB
:10599000124B18EB07484FEA15464CEB174022EA2A
:1059A0000B4E0BFB06FC25EA06470EFB06F607FB33
:1059B0000EFE0BFB07F71EEB064E4CEB164C4FF0A2
:1059C00000061EEB074E4CEB174B18EB0B0840F193
:1059D000000018EB0E0B58EB000840F100008F1A86
:1059E0004FF000013CBFC943661B14BFB5EB040C6C
:1059F00000213CBFC943F61B4FEA17444EEA8E0E06
:105A000027EA04454FEA1C4704FB07622CEA074CCF
:105A100005FB07F70CFB05F604FB0CFC16EB074631
:105A200042EB174216EB0C4642EB1C421BEB060600
:105A300058EB0202414146EA9E0601D5BDE80189C4
:105A4000B619524141EB0101A3F10103BDE80189FF
:105A50004FEA14454FEA114724EA054621EA074C6C
:105A600005FB07F406FB07F70CFB06F105FB0CFC36
:105A700011EB074144EB17444FEA124711EB0C417D
:105A800044EB1C4422EA074C05FB07F206FB07F730
:105A90000CFB06F605FB0CFC16EB074642EB174227
:105AA00016EB0C4642EB1C456A1854F1000148BF46
:105AB0007047B619524141EB0101A3F10103704750
:105AC00095F0000F37D04FEA11424FEA144721EA10
:105AD000024624EA074C02FB07F106FB07F70CFB22
