:020000040800F2
:10000000F00D00206D3100083D0400083F04000899
:1000100043040008470400084B04000800000000E7
:100020000000000000000000000000004F04000875
:1000300051040008000000005304000855040008A3
:1000400087310008873100088731000887310008B0
:1000500087310008873100088731000887310008A0
:100060008731000887310008873100088731000890
:100070008731000887310008873100088731000880
:100080008731000887310008873100088731000870
:100090008731000887310008873100088731000860
:1000A0008731000887310008873100088731000850
:1000B000F52E0008873100084B1E00088731000824
:1000C0008731000887310008873100088731000830
:1000D00087310008E33000083B1C00088731000826
:1000E0008731000887310008873100088731000810
:1000F0008731000887310008873100088731000800
:1001000087310008873100088731000887310008EF
:1001100087310008873100088731000887310008DF
:1001200087310008873100088731000887310008CF
:1001300000F002F800F0B0F80AA090E8000C824449
:100140008344AAF10107DA4501D100F0A5F8AFF226
:10015000090EBAE80F0013F0010F18BFFB1A43F0A5
:1001600001031847E07A0000007B00000A444FF0CA
:10017000000C10F8013B13F0070408BF10F8014B06
:100180001D1108BF10F8015B641E05D010F8016B4B
:10019000641E01F8016BF9D113F0080F1EBF10F8AF
:1001A000014BAD1C0C1B09D16D1E58BF01F801CBD2
:1001B000FAD505E014F8016B01F8016B6D1EF9D555
:1001C0009142D6D37047000000230024002500266A
:1001D000103A28BF78C1FBD8520728BF30C148BFAA
:1001E0000B6070476E2905F06B82702905F00B815A
:1001F000662907F0AE80652907F0AB80672907F014
:10020000A8806129AFF3008003681B0A28BF41F072
:100210008001692905F07C80642905F079807529C1
:1002200005F076806F2905F07185782905F0D78073
:10023000E92905F00B85E42905F00885F52905F085
:100240000585EF2905F06E85F82905F0D68003684D
:10025000DB0928BF41F08001632905F07A84732906
:1002600005F07F84E32905F0FB85F32905F000867E
:10027000002070471FB505F05FFD0400002000213D
:1002800006F0F0FA401C60600020002106F0D4FA6D
:10029000E0601FBD10B510BD05F084FE1146FFF7EC
:1002A000E9FF00F009F805F0ABFE03B4FFF7F2FF39
:1002B00003BC02F0BBFE000088B000BF02F04CFEA1
:1002C0004FF4165002F0C1FE4FF4A06003F0F2FCB0
:1002D00002F014F801F0DCFD01F05EFE002001F0F8
:1002E000C8FE09E045A1684604F0ACFF02236A4657
:1002F0001946002001F0F5FE01F06AFB0028F1D15B
:1003000001F0B7FE4FF47A7002F063FE75E000F082
:1003100093F900F0E1FA00F082FC66E06F203C49BE
:10032000086008463BA1026804A804F08BFF022382
:1003300004AA0621002001F0D4FE3548016837A048
:1003400001F067FD3748008800F4004000284CD0D9
:1003500034480578002034494855324908803248ED
:10036000007830384FF47A7148432F494978303952
:10037000642202FB01012C48807830380A2202FBFB
:1003800000112948C07830380C1840F2624084428D
:100390001ED040F2BC4084421AD0B4F5046F17D08E
:1003A00040F2C540844213D040F6490084420FD049
:1003B00040F6A30084420BD040F2C640844207D0EE
:1003C00040F64A00844203D040F6AD0084420CD18E
:1003D0001648046016A1026804A804F033FF022343
:1003E00004AA0421002001F07CFE104800680028C7
:1003F00094D000F022FD00BFFEE788E7425420437E
:100400004F4E4E454354494E472E2E2E00000000BD
:100410000000002042543A202564000025640D0AA3
:100420000000000020000020E8050020040000205B
:10043000526563656976653A20256400704700BFA0
:10044000FEE700BFFEE700BFFEE700BFFEE7704724
:1004500070477047704700000CB500200190009075
:100460006C48006840F480306A49086000BF694801
:10047000006800F4003000900198401C0190009842
:1004800018B90198B0F5A06FF1D16248006800F486
:10049000003010B10120009001E000200090009891
:1004A000012843D15C48006840F010005A490860B8
:1004B0000846006820F0030008600846006840F025
:1004C0000200086053484068524948600846406846
:1004D00048600846406840F48060486008464068CC
:1004E00020F47C1048600846406840F4E8104860FA
:1004F0000846006840F08070086000BF454800680A
:1005000000F000700028F9D04248406820F0030055
:10051000404948600846406840F00200486000BF1B
:100520003C48406800F00C000828F9D10CBD10B51B
:10053000FFF792FF10BD10B53648006840F001008B
:1005400034490860084640683449084031494860E9
:1005500008460068324908402E490860084600688D
:1005600020F4802008600846406820F4FE004860BF
:100570004FF41F008860FFF7DAFF4FF00060294951
:10058000086010BD10B5002100200022214B5B68DF
:1005900003F00C0121B1042906D0082928D107E075
:1005A000214B224C236027E01F4B204C236023E08B
:1005B000184B5B6803F47010164B5B6803F48032D1
:1005C000022303EB904022B9194B4343174C23609D
:1005D0000DE0104B5B6803F4003323B1144B43432D
:1005E000124C236003E0104B4343104C236003E0A4
:1005F0000D4B0E4C236000BF00BF064B5B68C3F37E
:1006000003130C4CE15C094B1B68CB40074C236087
:1006100010BD000000100240002002400000FFF862
:10062000FFFFF6FE08ED00E000127A00080000204F
:1006300000093D000C0000202DE9F04101F0AEFE64
:1006400026E0B420FD4908600846FDA10268FE4886
:1006500004F0F8FD0223FC4A0621002001F041FDD0
:10066000F6480168F9A001F0D4FB01F097FEF948C3
:10067000006806F0E3FB044622460B46F6A1F2486A
:1006800004F0E0FD0223F04A0021084601F029FDB4
:10069000F449F048006806F0ACFDD2D302F0BBF993
:1006A00002F061FB17E0BE20E44908600846E4A1BF
:1006B0000268E54804F0C6FD0223E34A0621002053
:1006C00001F00FFDDD480168E0A001F0A2FB02F09F
:1006D000A2F902F048FBE449E448006806F089FD0D
:1006E00005D2E049E248006806F083FDDBD302F062
:1006F00092F902F072FA17E06420D04908600846C7
:10070000CFA10268D04804F09DFD0223CE4A062105
:10071000002001F0E6FCC9480168CCA001F079FB9B
:1007200002F079F902F059FAD249D048006806F08F
:1007300060FDE1D3CB49D048006806F05AFDDBD319
:100740001BE06F20BD4908600846BDA10268BE4895
:1007500004F078FD0223BC4A0621002001F0C1FC10
:10076000B6480168B9A001F054FB052002F031FC45
:10077000C2480068401CC1490860C04800680A2897
:10078000DFDB0020BD4908601CE040F22B20AB49B4
:1007900008600846AAA10268AB4804F053FD022392
:1007A000A94A0621002001F09CFCA4480168A7A0EA
:1007B00001F02FFB052002F00CFCB0480068401C43
:1007C000AE490860AD4800680A28DEDB0020AB496E
:1007D000086002F020F902F000FA002001F049FC64
:1007E000A749A248006806F055FB0746A54906F050
:1007F00031FD044606F022FB05462A460B46A2A11F
:10080000914804F01FFD02238F4A0021084601F0A1
:1008100068FC9648006806F011FB044622460B4629
:100820009DA1894804F00EFD0223874A1946002045
:1008300001F057FC9D499048006806F02BFB0746E5
:100840009B4906F007FD044606F0F8FA05462A46DD
:100850000B4698A17C4804F0F5FC02237A4A042157
:10086000002001F03EFC8448006806F0E7FA0446E8
:1008700022460B4693A1744804F0E4FC0223724A1A
:100880000621002001F02DFC1BE0DE206B490860F2
:1008900008466BA102686C4804F0D4FC02236A4A43
:1008A0000621002001F01DFC6448016867A001F0EA
:1008B000B0FA052002F08DFB70480068401C6F49BB
:1008C00008606E480068C828DFDB00206B490860BC
:1008D00001F0CFFBBDE8F0812DE9F04102F043FAD1
:1008E00002F099F817E0B42054490860084654A172
:1008F0000268554804F0A6FC0223534A0621002052
:1009000001F0EFFB4D48016850A001F082FA02F0BF
:100910002AFA02F080F857495548006806F069FC49
:10092000E1D358495148006806F0E4FBDBD301F0FD
:10093000ACFF16E04FF4877040490860084640A1BC
:100940000268414804F07EFC02233F4A0621002051
:1009500001F0C7FB394801683CA001F05AFA01F0E8
:1009600094FF5C495C48006806F043FCE2D301F068
:100970008CFF02F032F917E0642030490860084625
:100980002FA10268304804F05DFC02232E4A0621A4
:10099000002001F0A6FB294801682CA001F039FADB
:1009A00001F073FF02F019F94C494B48006806F05A
:1009B00020FCE1D34A493048006806F01AFCDBD33A
:1009C0001BE06F201D49086008461DA102681E48F3
:1009D00004F038FC02231C4A0621002001F081FBB0
:1009E0001648016819A001F014FA052002F0F1FA86
:1009F00022480068401C21490860204800680A28F5
:100A0000DFDB00201D49086071E040F29A200B49AD
:100A1000086008460AA102680B4804F013FC022390
:100A2000094A0621002001F05CFB0448016807A088
:100A300001F0EFF9052002F0CCFA53E000000020AD
:100A400042543A20256400000C05002025640D0A5C
:100A500000000000CC040020444953313A202566B0
:100A6000000000000000A04100002042DC04002043
:100A7000E404002000007041E00400201C0000207D
:100A80000000404100000C4246726F6E743A20250F
:100A9000342E326620636D00426568696E643A20C8
:100AA00025342E326620636D0000000000003041C6
:100AB0000000C8414C6566743A2025342E32662009
:100AC000636D000052696768743A2025342E3266DF
:100AD00020636D0000003442D80400200000204153
:100AE00000005C42FC480068401CFB490860FA4872
:100AF00000680A2889DB0020F749086001F0C5FE7C
:100B000002F06BF8002001F0B4FAF449F4480068F0
:100B100006F0C0F98046F34906F0A6FB0546F24907
:100B200006F098FB044606F089F9064632460B4665
:100B3000AFF2AC01ED4804F085FB0223EB4A002143
:100B4000084601F0CEFAE749E548006806F08CFB5C
:100B5000064606F073F9044622460B46AFF2C8017A
:100B6000E24804F06FFB0223E04A1946002001F03E
:100B7000B8FADF48006806F061F9044622460B46E1
:100B8000AFF2D001D94804F05DFB0223D74A04211B
:100B9000002001F0A6FAD749D548006806F07AF996
:100BA0000746D04906F056FB044606F047F90546CD
:100BB0002A460B46AFF2F401CC4804F043FB022373
:100BC000CA4A0621002001F08CFA1DE0DE20CA4945
:100BD00008600846AFF298110268C44804F032FB7E
:100BE0000223C24A0621002001F07BFAC2480168B4
:100BF000AFF2A81001F00DF9052002F0EAF9B648AD
:100C00000068401CB4490860B3480068C828DDDBB0
:100C10000020B149086001F02CFABDE8F08110B560
:100C200001F033FE02F09FF819E0B420B2490860E9
:100C30000846AFF2F4110268AC4804F003FB02234B
:100C4000AA4A0621002001F04CFAAB480168AFF235
:100C5000042001F0DEF801F018FE02F084F8A24949
:100C6000A348006806F046FADFD3A449A448006808
:100C700006F0BFFAD9D301F091FB18E04FF487706A
:100C80009D4908600846AFF248210268974804F081
:100C9000D9FA0223954A0621002001F022FA96484B
:100CA0000168AFF2582001F0B4F801F077FB9549E4
:100CB0009548006806F09DFAE0D31DE064208E4957
:100CC00008600846AFF288210268884804F0BAFA42
:100CD0000223864A0621002001F003FA86480168B3
:100CE000AFF2982001F095F8642002F072F97A488A
:100CF0000068401C78490860774800680C28DDDBF4
:100D00000020754908601DE06F207B490860084697
:100D1000AFF2D4210268754804F094FA0223734AB2
:100D20000621002001F0DDF973480168AFF2E420EC
:100D300001F06FF8052002F04CF967480068401C8C
:100D400065490860644800680A28DDDB00206249C4
:100D500008601EE040F22B20674908600846AFF2A9
:100D600020310268614804F06DFA02235F4A0621CF
:100D7000002001F0B6F960480168AFF2303001F0B0
:100D800048F8052002F025F953480068401C5249F4
:100D90000860514800680A28DCDB00204E490860E2
:100DA0001DE0DE20544908600846AFF26C3102684D
:100DB0004E4804F047FA02234C4A0621002001F075
:100DC00090F94D480168AFF27C3001F022F805201F
:100DD00002F0FFF840480068401C3F4908603E4868
:100DE0000068C828DDDB00203B4908601DE06F205B
:100DF000414908600846AFF2B83102683B4804F048
:100E000021FA0223394A0621002001F06AF93A4802
:100E10000168AFF2C83000F0FCFF052002F0D9F8FD
:100E20002D480068401C2C4908602B4800680A289F
:100E3000DDDB00202849086010BD01F0AFFA17E0A3
:100E4000B4202D4908600846AFF20C4102682748DB
:100E500004F0F8F90223254A0621002001F041F9A7
:100E600025480168AFF21C4000F0D3FF01F096FA6C
:100E700026492548006806F0BCF9E1D324480068FB
:100E80000A2190FBF1F201FB120001287DD101F053
:100E90004BFB17E0BE20184908600846AFF26041DE
:100EA0000268124804F0CEF90223104A06210020FD
:100EB00001F017F910480168AFF2704000F0A9FF87
:100EC00001F032FB13491448006806F092F9E1D3AF
:100ED00001F02AFB3AE000001C0000200000404125
:100EE000E00400200000C84100000C420C05002076
:100EF000D8040020000030410000002000004842DB
:100F0000E40400200000A041CC0400200000704157
:100F10000400002000002042D00400206420FE498C
:100F200008600846AFF2E8410268FC4804F08AF91C
:100F30000223FA4A0621002001F0D3F8F64801689E
:100F4000AFF2F84000F065FF01F0EEFAF449F54821
:100F5000006806F04EF9E1D31FE06F20EE4908600B
:100F60000846AFF224510268EC4804F06BF9022302
:100F7000EA4A0621002001F0B4F8E7480168AFF220
:100F8000345000F046FF052000E0C2E002F021F8F6
:100F9000E5480068401CE4490860E34800680A2806
:100FA000DBDB0020E04908601EE040F22B20DA493C
:100FB00008600846AFF278510268D84804F042F958
:100FC0000223D64A0621002001F08BF8D24801689E
:100FD000AFF2885000F01DFF052001F0FAFFD24863
:100FE0000068401CD0490860CF4800680A28DCDB54
:100FF0000020CD49086001F097FA002001F039F88F
:10100000CA49C848006805F045FF0746C84906F0C8
:1010100021F9044605F012FF05462A460B46AFF2B9
:101020009851BE4804F00EF90223BC4A002108463C
:1010300001F057F8BB48006805F000FF044622465F
:101040000B46AFF2AC51B54804F0FCF80223B34AAA
:101050001946002001F045F8B6A1B04804F0F2F8B6
:101060000223AE4A0421002001F03BF8B5A1AB48B1
:1010700004F0E8F80223A94A0621002001F031F823
:101080001DE0DE20A44908600846AFF24C6102680A
:10109000A24804F0D7F80223A04A0621002001F05C
:1010A00020F89D480168AFF25C6000F0B2FE0520B8
:1010B00001F08FFF9C480068401C9B4908609A48DB
:1010C0000068C828DDDB00209749086000F0D1FFE8
:1010D00001F02AFA17E0B4208F4908600846AFF201
:1010E000A06102688D4804F0ADF802238B4A062106
:1010F000002000F0F6FF88480168AFF2B06000F011
:1011000088FE01F011FA8A498648006805F0F2FF6E
:10111000E1D390480068642190FBF1F201FB1200DA
:101120000A2190FBF1F001287ED101F0C4FA17E00A
:10113000BE20794908600846AFF2FC610268774832
:1011400004F080F80223754A0621002000F0C9FF50
:1011500071480168AFF20C7000F05BFE01F0ABFA71
:101160007D497E48006806F044F8E1D301F0A3FA17
:1011700017E06420684908600846AFF23C710268D5
:10118000664804F05FF80223644A0621002000F05C
:10119000A8FF61480168AFF24C7000F03AFE01F020
:1011A0008AFA6F496D48006806F023F8E1D31DE024
:1011B0006F20594908600846AFF27C7102685748B1
:1011C00004F040F80223554A0621002000F089FF70
:1011D00051480168AFF28C7000F01BFE052001F051
:1011E000F8FE51480068401C4F4908604E480068AE
:1011F0000A28DDDB00204C49086020E04FF4DE7057
:10120000454908600846AFF2C8710268434804F0D7
:1012100019F80223414A0621002000F062FF3E48EF
:101220000168AFF2D87000E0F1E000F0F2FD0520B7
:1012300001F0CFFE3C480068401C3B4908603A483A
:1012400000680A28DADB00203749086001F033FA29
:1012500001F0C3FC002000F00CFF42494248006846
:1012600006F002F8064605F0E9FD044622460B4664
:10127000AFF2EC71294803F0E5FF0223274A002171
:10128000084600F02EFF37493848006805F0ECFFAB
:101290008046274905F0DEFF0546244905F0E4FFB6
:1012A000044605F0CBFD064632460B46AFF6180164
:1012B0001A4803F0C7FF0223184A1946002000F01D
:1012C00010FF264801682A4805F0CEFF0746294945
:1012D00005F0CAFF044605F0B1FD05462A460B4657
:1012E000AFF630010D4803F0ADFF02230B4A042195
:1012F000002000F0F6FE1948006805F09FFD044646
:1013000022460B46AFF64401044803F09BFF02233C
:10131000024A062100202FE0000000200C050020DA
:1013200000007041D00400201C000020000040415B
:1013300000000C424C6566743A20352E3338206329
:101340006D00000052696768743A20372E363220EB
:10135000636D00000400002000002042D40400203F
:101360000000E04000007042E0040020CC040020B7
:101370000000C8410000304100F0B3FE1DE0DE2057
:10138000FE4908600846AFF648110268FC4803F0C1
:1013900059FF0223FA4A0621002000F0A2FEF74876
:1013A0000168AFF6581000F034FD052001F011FE81
:1013B000F4480068401CF3490860F2480068C828F7
:1013C000DDDB0020EF49086000F053FE01F073F907
:1013D00017E0B420E94908600846AFF69C1102689E
:1013E000E74803F02FFF0223E54A0621002000F022
:1013F00078FEE2480168AFF6AC1000F00AFD01F09B
:101400005AF9E149E148006805F074FEE1D3E0488B
:1014100000684FF47A7190FBF1F201FB1200642135
:1014200090FBF1F001287CD101F02FFA17E0BE20EB
:10143000D24908600846AFF6F8110268D04803F0B8
:1014400001FF0223CE4A0621002000F04AFECB48CD
:101450000168AFF6082000F0DCFC01F016FACD4977
:10146000CD48006805F0C5FEE1D301F00EFA17E0A3
:101470006420C24908600846AFF63C210268C048B3
:1014800003F0E0FE0223BE4A0621002000F029FE00
:10149000BA480168AFF64C2000F0BBFC01F0F5F94A
:1014A000BE49BD48006805F0A4FEE1D31DE06F20F1
:1014B000B24908600846AFF678210268B04803F0E8
:1014C000C1FE0223AE4A0621002000F00AFEAB480E
:1014D0000168AFF6882000F09CFC052001F079FD42
:1014E000A8480068401CA7490860A64800680A2868
:1014F000DDDB0020A349086020E040F29A209F49EC
:1015000008600846AFF6C82102689D4803F09AFEBD
:1015100002239B4A0621002000F0E3FD9748016862
:1015200000E0CCE0AFF6DC2000F073FC052001F019
:1015300050FD94480068401C92490860914800683A
:101540000A28DADB00208F49086001F09EF901F0DB
:1015500044FB002000F08DFD91499248006805F0A1
:1015600099FC8046904905F07FFE0546864905F0C6
:1015700071FE044605F062FC064632460B46AFF6A5
:10158000F8217F4803F05EFE02237D4A00210846D1
:1015900000F0A7FD84498348006805F065FE064613
:1015A00005F04CFC044622460B46AFF61431744855
:1015B00003F048FE0223724A1946002000F091FD14
:1015C0007548006805F03AFC044622460B46AFF623
:1015D0001C316B4803F036FE0223694A04210020C7
:1015E00000F07FFD71496C48006805F053FC074628
:1015F0006D4905F02FFE044605F020FC05462A46FD
:101600000B46AFF640315E4803F01CFE02235C4AF5
:101610000621002000F065FD1DE0DE20574908602E
:101620000846AFF6E4310268554803F00BFE02238A
:10163000534A0621002000F054FD50480168AFF6DF
:10164000F43000F0E6FB052001F0C3FC4D480068D3
:10165000401C4C4908604B480068C828DDDB00206E
:101660004849086000F005FD01F00FF901F07BFB2F
:1016700019E0B420414908600846AFF63C410268D1
:101680003F4803F0DFFD02233D4A0621002000F021
:1016900028FD3A480168AFF64C4000F0BAFB01F073
:1016A000F4F801F060FB38493B48006805F022FD82
:1016B000DFD33F493F48006805F09BFDD9D334484C
:1016C00000684FF47A7190FBF1F001287AD101F0B3
:1016D000A2F901F048FB19E0BE202849086008463D
:1016E000AFF6A4410268264803F0ACFD0223244A69
:1016F0000621002000F0F5FC20480168AFF6B44058
:1017000000F087FB01F087F901F02DFB21492A4801
:10171000006805F06EFDDFD328492648006805F013
:1017200068FDD9D301F077F901F057FA19E0642088
:10173000124908600846AFF6F8410268104803F005
:1017400081FD02230E4A0621002000F0CAFC0B484E
:101750000168AFF6085000F05CFB01F05CF901F0A5
:101760003CFA16491448006805F043FDDFD31449DC
:101770000C48006805F03DFDD9D342E00000002090
:101780000C0500201C00002000000C42D4040020A6
:101790000400002000002042D80400200000E040A7
:1017A00000004041E00400200000C841000030413A
:1017B00000004842E4040020DC04002000007041E6
:1017C0000000A041D2E06F20784908600846AFF6DB
:1017D00090510268764803F035FD0223744A0621D1
:1017E000002000F07EFC71480168AFF6A05000F0C8
:1017F00010FB052001F0EDFB6E480068401C6D49B0
:1018000008606C4800680A28DDDB00206949086030
:101810001EE040F22B20654908600846AFF6E05113
:101820000268634803F00EFD0223614A062100208E
:1018300000F057FC5D480168AFF6F05000F0E9FA9F
:10184000052001F0C6FB5B480068401C5949086050
:10185000584800680A28DCDB00205649086001F07F
:10186000DAF801F0BAF9002000F003FC52495348BD
:10187000006805F00FFB0746514905F0EBFC0446F4
:1018800005F0DCFA05462A460B46AFF604614848E7
:1018900003F0D8FC0223464A0021084600F021FC50
:1018A0004648006805F0CAFA044622460B46AFF6E1
:1018B00018613F4803F0C6FC02233D4A1946002048
:1018C00000F00FFC3F494048006805F0E3FA074686
:1018D0003E4905F0BFFC044605F0B0FA05462A462D
:1018E0000B46AFF63061324803F0ACFC0223304ABD
:1018F0000421002000F0F5FB3348006805F09EFA53
:10190000044622460B46AFF64461294803F09AFC90
:101910000223274A0621002000F0E3FB1DE0DE2021
:10192000224908600846AFF6E8610268204803F0E3
:1019300089FC02231E4A0621002000F0D2FB1B482E
:101940000168AFF6F86000F064FA052001F041FB91
:1019500018480068401C1749086016480068C828E5
:10196000DDDB00201349086000F083FB1DE06F20E1
:101970000E4908600846AFF6387102680C4803F05B
:1019800061FC02230A4A0621002000F0AAFB074856
:101990000168AFF6487000F03CFA052001F019FB31
:1019A00004480068401C03490860E0E7000000208C
:1019B0000C0500201C00002000004041DC04002039
:1019C00000000C4200003041E00400200000C8414B
:1019D000F8B50A2601250121042001F003FF0220A9
:1019E000ADF8000010208DF8030003208DF80200F0
:1019F00069467B4801F03AFC0221794801F0E5FC98
:101A00004FF4165000F08FF932E00120754908605C
:101A10000A2001F0DEFA74A000F0FBF900207449FE
:101A2000C1F8840100240AE07248008800F40040F4
:101A300000B106E0052001F0CCFA601CC4B20A2C0B
:101A4000F2DB00BF6B48008800F4004080B16948B9
:101A50000578002067490880042D09D16648007880
:101A60004F2805D1644840784B2801D1002504E077
:101A70003000A6F10101CEB2C7D100BF06B90125E1
:101A80002846F8BD70B50F2630E0012055490860A2
:101A90000A2001F09EFA59A000F0BBF900250AE0E7
:101AA0000A2001F096FA5348008800F4004000B183
:101AB00003E0681CC5B2142DF2DB00BF00204949C9
:101AC00008604C48008800F4004078B14948047828
:101AD0000020484908800D2C08D1474800782B2861
:101AE00004D1454880793038C4B204E03000A6F112
:101AF0000101CEB2C9D100BF06B9FF24204670BD96
:101B00002DE9F04105460F272FE0012035490860F7
:101B10000A2001F05EFA29463BA000F07AF9002085
:101B20003349C1F8840100260AE03248008800F4F5
:101B3000004000B106E0052001F04BFA701CC6B26F
:101B4000142EF2DB00BF2B48008800F4004060B187
:101B500028480478002027490880042C05D126480D
:101B600000784F2801D1002404E03800A7F10101DA
:101B7000CFB2CAD100BF07B9FF242046BDE8F0812B
:101B800070B504460120174908600A2001F021FAC7
:101B900021461DA000F03DF900260AE01548008806
:101BA00000F4004000B106E00A2001F012FA701CB7
:101BB000C6B2322EF2DB00BF00200A4908600D4891
:101BC000008800F4004048B10A480578002009491F
:101BD0000880094948550EA003F028FB70BD00009D
:101BE000000801408401214241540D0A0000000018
:101BF0000000214220000020E805002041542B5223
:101C00004F4C453F0D0A000025730D0A00000000EF
:101C10000D0A25730000000010B5044644B10021F0
:101C2000944803F0A3F80121924802F00BFE03E070
:101C30000021904802F006FE10BD10B540F225517B
:101C40008D4801F0F3FF00B38B4801F06FFFC4B281
:101C50008A480088C82812DA0021864803F086F8EE
:101C60008648008810B90120FFF7D6FF8348018815
:101C70000088401C814A10808148445405E07F4818
:101C8000008840F400407D49088010BD7FB50546BE
:101C90000C460121042001F0B2FDADF80450ADF86E
:101CA00000400020ADF80600ADF80200694671481A
:101CB00002F06CFA012211466E4802F0DEFD1E2091
:101CC0008DF80C0001208DF80D0002208DF80E001B
:101CD00001208DF80F0003A801F0F1FF7FBD70B562
:101CE0008CB006460C4615460121084601F06DFDF4
:101CF000304602F04DF80194029510200390002028
:101D0000049005908020069000200790089009908C
:101D10004FF480500A9000200B9001A9304602F049
:101D2000D9F80CB070BD10B586B00446012104206E
:101D300001F058FD0121480401F061FD4E4801F019
:101D4000B5FD0420ADF8100003208DF81200182016
:101D50008DF8130004A94B4801F088FA0820ADF86B
:101D6000100004208DF8130004A9464801F07EFA03
:101D700000940020ADF80400ADF80600ADF80800AE
:101D8000ADF80C000C20ADF80A0069463A4801F0A5
:101D9000D0FD01228021384801F088FE3A4A3649B8
:101DA000091D3A48FFF79BFF0121334801F04DFE22
:101DB000012240F22551304801F053FE26208DF8D3
:101DC000140002208DF8150003208DF81600012064
:101DD0008DF8170005A801F072FF41F61F4163203E
:101DE000FFF754FF002025490880FFF715FF06B0D4
:101DF00010BD70B504460D460021204602F095F84E
:101E00002946204602F0A6F80121204602F08DF86E
:101E100070BD0FB438B505A800901B48009A04990E
:101E200003F0F2F90020009000BF184802F094F887
:101E30000028FAD1144803F0B5FBC4B22146134878
:101E4000FFF7D7FF38BC5DF814FB10B50121094836
:101E500002F0C1FF60B10948008840F40040074922
:101E600008800121034802F0C7FF0020FFF7D4FEDD
:101E700010BD000000080040004400402000002089
:101E8000E8050020000801402005002080000240F5
:101E900000B585B00121480501F0B1FC0121082001
:101EA00001F0A0FCC020ADF8000003208DF8020076
:101EB0001C208DF803006946F44801F0D7F9F44876
:101EC00002F09EFF0020ADF808004BF6FF70ADF861
:101ED0000A003020ADF80C004FF48060ADF80E0021
:101EE0000001ADF81000EB4801900121E84803F033
:101EF0001EF801A9E64802F09CFF05B000BD70B5D0
:101F000004460D4600BF4FF40031E14803F036F9B6
:101F10000028F8D10121DE4803F02DF800BFDE498A
:101F2000DB4803F009F90028F9D000227821D848CD
:101F300003F077F800BFD949D54803F0FDF8002831
:101F4000F9D02146D24803F066F800BFD349891C76
:101F5000CF4803F0F1F80028F8D02946CC4803F028
:101F60005AF800BFCD49891CC94803F0E5F800289C
:101F7000F8D00121C64803F00AF870BD10B5044638
:101F800021460020FFF7BBFF10BD10B504462146D7
:101F90004020FFF7B4FF10BD10B5642001F019F820
:101FA000AE20FFF7EBFF2020FFF7E8FF1020FFF740
:101FB000E5FFB020FFF7E2FFC820FFF7DFFF0020BA
:101FC000FFF7DCFF1020FFF7D9FF4020FFF7D6FF17
:101FD0008120FFF7D3FFFF20FFF7D0FFA120FFF7FD
:101FE000CDFFA620FFF7CAFFA820FFF7C7FF3F20BD
:101FF000FFF7C4FFA420FFF7C1FFD320FFF7BEFF08
:102000000020FFF7BBFFD520FFF7B8FFF020FFF758
:10201000B5FFD920FFF7B2FF2220FFF7AFFFDA208C
:10202000FFF7ACFF1220FFF7A9FFDB20FFF7A6FFA9
:102030002020FFF7A3FF8D20FFF7A0FF1420FFF75C
:102040009DFFAF20FFF79AFF10BD70B504460D4607
:1020500005F1B001C8B2FFF791FF102141EA141059
:10206000FFF78CFF04F00F0141F00100FFF786FF3E
:1020700070BD70B50646002415E004F1B001C8B289
:10208000FFF77CFF0020FFF779FF1020FFF776FFB6
:10209000002504E03046FFF778FF681CC5B2802DAC
:1020A000F8DB601CC4B2082CE7DB70BD10B5002063
:1020B000FFF7DFFF10BD10B58D20FFF75FFF142085
:1020C000FFF75CFFAF20FFF759FF10BD10B58D2063
:1020D000FFF754FF1020FFF751FFAE20FFF74EFF30
:1020E00010BD2DE9F0470646894617469A464FF03F
:1020F000000800240025BAF1010F03D0BAF1020F45
:102100005ED125E020E0785D203800F0FF087E2ECB
:1021100004DD002609F1010000F0FF0949463046C0
:10212000FFF793FF002409E008EB48015C4A02EB4B
:102130004101085DFFF729FF601CC4B2062CF3DBE8
:10214000B01DC6B2681CC5B2785D0028DBD137E08F
:1021500032E0785D203800F0FF08782E04DD00269C
:1021600009F1010000F0FF0949463046FFF76DFF15
:10217000002407E004EB08114A4A505CFFF705FF12
:10218000601CC4B2082CF5DB09F10100C1B2304675
:10219000FFF75BFF002408E004EB08110831414A17
:1021A000505CFFF7F2FE601CC4B2082CF4DB06F1B1
:1021B0000800C6B2681CC5B2785D0028C9D100BF4E
:1021C00000BFBDE8F0872DE9F04180460E46174676
:1021D00000247D0131464046FFF737FF00BF06E08F
:1021E0003149485DFFF7D1FE6D1C601CC4B2102C54
:1021F000F6DB701CC1B24046FFF727FF002406E063
:102200002949485DFFF7C1FE6D1C601CC4B2102C4B
:10221000F6DBBDE8F0812DE9F05F06460F469046FB
:102220001C46DDF828A04FF0000BE11704EB5171BC
:10223000C910A4EBC10131B92046E11704EB51717B
:10224000C1F3C70506E02046E11704EB5171C91040
:10225000491CCDB23D4614E029463046FFF7F5FE55
:10226000B1460AE059460BF1010B1AF80100FFF7DD
:102270008CFE09F1010000F0FF09C145F2DB681C8A
:10228000C5B2A542E8DBBDE8F09F0000000C0140AC
:1022900000540040801A060001000300820007007D
:1022A000567300087E750008220000207FB50546A1
:1022B0000C460121084601F0A2FAADF80850ADF82D
:1022C00004400020ADF80A00ADF8060001A94FF067
:1022D000804001F05BFF01221146900702F0CDFA29
:1022E0001C208DF8000001208DF801008DF80200FF
:1022F0008DF80300684601F0E2FC7FBD08B50121BE
:102300000D2001F06FFA0121FE4801F080F845F23E
:102310002800ADF8000028208DF8030003208DF878
:1023200002006946F84800F0A1FF4AF21010ADF82B
:10233000000010208DF8030003208DF8020069468C
:10234000F14800F093FF4FF23811EF4801F03BF8ED
:102350004FF4A850ADF8000028208DF803000320AA
:102360008DF802006946E94800F080FF4FF40A400A
:10237000ADF8000010208DF8030003208DF8020056
:102380006946E24800F072FF4FF41F41DF4801F058
:102390001AF847210A20FFF789FF08BD2DE9F04709
:1023A0000020DB49086052E00120DA4908600F2074
:1023B00000F0EBFD0020D849C1F8B40100BFD548BA
:1023C000843800680028FAD00121880702F03AFA20
:1023D00000BFD048843800680128FAD000214FF0AF
:1023E000804002F02FFA4FF0804002F0E2FCCB492F
:1023F0000860CB48008800EB8000096801EB4000D2
:10240000C64908600846006804F01CFB0646C54A39
:10241000C54B04F02BFB04460022134604F024FCB9
:10242000804604F035FAC149086000204FF0804131
:102430008884BB490880BD480068BD49B44A126819
:1024400041F82200B2480068401CB1490860B04819
:1024500000680328A8DBB64A5168106804F01AFD2A
:102460000546B3488168284604F014FD0446B14986
:1024700004F07EFDAD490860AD490868AB490968C4
:1024800004F0F2FE064604F0D9FC21F000410446B7
:1024900004F0FEF9A8490860A5494868A3490968FD
:1024A00004F0E2FE064604F0C9FC21F000410446B7
:1024B00004F0EEF9A04948609D4988689B49096885
:1024C00004F0D2FE064604F0B9FC21F000410446B7
:1024D00004F0DEF9984988600A465168106804F0F3
:1024E00009FE0AD8944A9168106804F003FE04D8E3
:1024F0008F4800688D49086014E08F4A1168506861
:1025000004F0F8FD0AD88C4A9168506804F0F2FD96
:1025100004D8874840688549086003E0844880689B
:1025200082490860BDE8F0872DE9F047002078492E
:10253000086053E001207749083108600F2000F05F
:1025400024FD00207449C1F8BC0100BF71487C38EB
:1025500000680028FAD00121880702F073F900BF53
:102560006C487C3800680128FAD000214FF0804088
:1025700002F068F94FF0804002F01BFC67490860E8
:102580006748008800EB8000096801EB4000634960
:1025900008600846006804F055FA0646614A624B36
:1025A00004F064FA04460022134604F05DFB804602
:1025B00004F06EF96149086000204FF08041888482
:1025C000574908805D4800685949514A126841F8E6
:1025D00022004F480068401C4D4908604C48006884
:1025E0000328A7DB524A5168106804F053FC0546E3
:1025F0004F488168284604F04DFC04464D4904F0DC
:10260000B7FC4E4908604A4908684C49096804F01B
:102610002BFE064604F012FC21F00041044604F0B3
:1026200037F945490860424948684449096804F057
:102630001BFE064604F002FC21F00041044604F0B3
:1026400027F93D4948603A4988683C49096804F0DF
:102650000BFE064604F0F2FB21F00041044604F0B4
:1026600017F9354988600A465168106804F042FD40
:102670000AD8314A9168106804F03CFD04D82C480F
:1026800000682E49086014E02B4A1168506804F075
:1026900031FD0AD8284A9168506804F02BFD04D80F
:1026A000234840682549086003E0214880682349A1
:1026B0000860BDE8F0872DE9F04700201449086064
:1026C00076E001201E4908600F2000F05EFC00202B
:1026D0001C49C1F8A40100BF1948843800680028CB
:1026E000FAD00121880702F0ADF800BF1448843801
:1026F00000680128FAD000214FF0804002F0A2F8D3
:1027000022E0000000023000000C014000080140FF
:10271000E8040020B481214200802142C804002046
:10272000C40400209CC420B07268913FCC040020F7
:10273000B006002000004040BC060020D00400206D
:10274000A4012142000021424FF0804002F031FB01
:10275000FE490860FE48008800EB8000096801EB34
:102760004000FA4908600846006804F06BF9064624
:10277000F84AF94B04F07AF904460022134604F0B3
:1027800073FA804604F084F8F449086000204FF0A2
:1027900080418884EE490880F0480068F049F14A99
:1027A000126841F82200EF480068401CED490860BB
:1027B000EC480068032884DBE94A5168106804F09B
:1027C00069FB0546E6488168284604F063FB044639
:1027D000E54904F0CDFBE1490860E1490868DF49BB
:1027E000096804F041FD064604F028FB21F0004191
:1027F000044604F04DF8DD490860D9494868D749D6
:10280000096804F031FD064604F018FB21F0004190
:10281000044604F03DF8D5494860D1498868CF495D
:10282000096804F021FD064604F008FB21F0004190
:10283000044604F02DF8CD4988600A4651681068B6
:1028400004F058FC0AD8C94A9168106804F052FC98
:1028500004D8C3480068C149086014E0C34A11683D
:10286000506804F047FC0AD8C04A9168506804F0E8
:1028700041FC04D8BA484068B849086003E0B84849
:102880008068B6490860BDE8F0872DE9F047002070
:10289000B449086052E00120B54908600F2000F0FB
:1028A00074FB0020B349C1F8AC0100BFB0488438C4
:1028B00000680028FAD00121880701F0C3FF00BF9B
:1028C000AB48843800680128FAD000214FF08040DE
:1028D00001F0B8FF4FF0804002F06BFA9B490860AE
:1028E0009B48008800EB8000096801EB4000974995
:1028F00008600846006804F0A5F80646954A964B1D
:1029000004F0B4F804460022134604F0ADF9804602
:1029100003F0BEFF9849086000204FF08041888492
:102920008B490880944800688D498E4A126841F8A6
:1029300022008C480068401C8A4908608948006869
:102940000328A8DB864A5168106804F0A3FA0546FC
:1029500083488168284604F09DFA0446824904F0C1
:1029600007FB854908607E4908688349096804F0C7
:102970007BFC064604F062FA21F00041044603F0B5
:1029800087FF7A490860764948687B49096804F0FE
:102990006BFC064604F052FA21F00041044603F0B5
:1029A00077FF724948606E4988687349096804F086
:1029B0005BFC064604F042FA21F00041044603F0B5
:1029C00067FF6A4988600A465168106804F092FB04
:1029D0000AD8664A9168106804F08CFB04D86048F5
:1029E00000686549086014E0604A1168506804F0A6
:1029F00081FB0AD85D4A9168506804F07BFB04D8DB
:102A0000574840685C49086003E0554880685A4967
:102A10000860BDE8F0872DE9F047002051490860C3
:102A200053E001205249103108600F2000F0ADFA48
:102A300000205049C1F8BC0100BF4D487C380068F7
:102A40000028FAD00121880701F0FCFE00BF4848A9
:102A50007C3800680128FAD000214FF0804001F056
:102A6000F1FE4FF0804002F0A4F938490860384880
:102A7000008800EB8000096801EB400033490860E2
:102A80000846006803F0DEFF0646324A324B03F088
:102A9000EDFF04460022134604F0E6F8804603F0FA
:102AA000F7FE3649086000204FF0804188842849AD
:102AB0000880324800682A492A4A126841F82200F0
:102AC00028480068401C27490860264800680328F9
:102AD000A7DB234A5168106804F0DCF9054620485A
:102AE0008168284604F0D6F904461F4904F040FAEC
:102AF000224908601A4908682049096804F0B4FBB3
:102B0000064604F09BF921F00041044603F0C0FEA4
:102B100016490860124948681849096804F0A4FB7E
:102B2000064604F08BF921F00041044603F0B0FEA4
:102B30000E4948600A4988681049096804F094FB06
:102B4000064604F07BF921F0004119E0C80400209A
:102B5000C40400209CC420B07268913FD4040020BB
:102B6000B0060020E804002000004040BC06002021
:102B7000AC01214200002142D8040020DC040020E6
:102B8000044603F085FEE74988600A4651681068EC
:102B900004F0B0FA0AD8E34A9168106804F0AAFA7F
:102BA00004D8E1480068E149086014E0DD4A116892
:102BB000506804F09FFA0AD8DA4A9168506804F025
:102BC00099FA04D8D8484068D849086003E0D64844
:102BD0008068D6490860BDE8F0872DE9F0470020FD
:102BE000D349086052E00120D24908600F2000F06C
:102BF000CCF90020D049C1F8900100BFCD488438FD
:102C000000680028FAD00121880701F01BFE00BFF0
:102C1000C848843800680128FAD000214FF080406D
:102C200001F010FE4FF0804002F0C3F8C349086085
:102C3000C348008800EB8000096801EB4000BF49F1
:102C400008600846006803F0FDFE0646BD4ABE4B1C
:102C500003F00CFF04460022134604F005F88046FA
:102C600003F016FEB949086000204FF080418884C7
:102C7000B3490880B5480068AB49AD4A126841F8CD
:102C80002200AB480068401CA9490860A8480068B9
:102C90000328A8DBA44A5168106804F0FBF8054635
:102CA000A1488168284604F0F5F80446A84904F0D4
:102CB0005FF9A64908609C490868A449096804F0BE
:102CC000D3FA064604F0BAF821F00041044603F0B6
:102CD000DFFD94490860944948689C49096804F0FC
:102CE000C3FA064604F0AAF821F00041044603F0B6
:102CF000CFFD8C4948608C4988689449096804F084
:102D0000B3FA064604F09AF821F00041044603F0B5
:102D1000BFFD844988600A465168106804F0EAF9EA
:102D20000AD8804A9168106804F0E4F904D87E4813
:102D300000688649086014E07A4A1168506804F017
:102D4000D9F90AD8774A9168506804F0D3F904D8C1
:102D5000754840687D49086003E0734880687B4996
:102D60000860BDE8F0872DE9F04700207049086051
:102D700053E001206F49103108600F2000F005F981
:102D800000206D49C1F8A00100BF6A487C38006886
:102D90000028FAD00121880701F054FD00BF6548E2
:102DA0007C3800680128FAD000214FF0804001F003
:102DB00049FD4FF0804001F0FCFF60490860604829
:102DC000008800EB8000096801EB40005B49086067
:102DD0000846006803F036FE06465A4A5A4B03F08E
:102DE00045FE04460022134603F03EFF804603F0F2
:102DF0004FFD5849086000204FF0804188845049B9
:102E00000880544800684849494A126841F822003D
:102E100047480068401C4649086045480068032848
:102E2000A7DB414A5168106804F034F805463E4873
:102E30008168284604F02EF80446454904F098F8C5
:102E400044490860384908684249096804F00CFAA6
:102E5000064603F0F3FF21F00041044603F018FD9D
:102E600030490860304948683A49096804F0FCF97B
:102E7000064603F0E3FF21F00041044603F008FD9D
:102E800028494860284988683249096804F0ECF903
:102E9000064603F0D3FF21F00041044603F0F8FC9E
:102EA000204988600A465168106804F023F90AD85E
:102EB0001C4A9168106804F01DF904D81A4800688B
:102EC0002449086014E0174A1168506804F012F9A8
:102ED0000AD8144A9168506804F00CF904D81248D2
:102EE00040681C49086003E00F4880681949086081
:102EF000BDE8F08710B50121880701F06CFF78B1BB
:102F00000121880701F078FF0D480088401C0C491A
:102F1000088008460088B0F5FA6F01D100200880CB
:102F200010BD0000BC060020B0060020DC0400201C
:102F3000E80400209081214200802142C804002042
:102F4000C40400209CC420B07268913FE0040020BB
:102F500000004040E404002010B56FF0040000F0D1
:102F6000F8FE2E4800682E49B0FBF1F02D4908709C
:102F70000846007800EB4001C1EBC0104FF6FF712E
:102F800001EAC0002849088010BD0146254A127890
:102F90004A434FF0E0235A6100229A611A461269AF
:102FA00042F001021A6100BF4FF0E022106900F008
:102FB00001021AB100F48032002AF5D04FF0E0226D
:102FC000126922F001024FF0E0231A6100229A6197
:102FD00070470146144A12884A434FF0E0235A6171
:102FE00000229A611A46126942F001021A6100BF7A
:102FF0004FF0E022106900F001021AB100F48032B3
:10300000002AF5D04FF0E022126922F001024FF0C1
:10301000E0231A6100229A61704700000800002036
:1030200000127A00EC040020EE040020014600BFEC
:10303000704700BF494A128802F04002002AF9D0C6
:10304000C2B2464B1B1D1A80704710B586B00446AD
:10305000012144F2040000F0C5FB4FF40070ADF80C
:10306000140003208DF8160018208DF8170005A90C
:103070003B4800F0FBF84FF48060ADF814000420EA
:103080008DF8170005A9364800F0F0F825208DF8D6
:10309000000003208DF801008DF8020001208DF85A
:1030A0000300684600F00BFE01940020ADF8080014
:1030B000ADF80A00ADF80C00ADF810000C20ADF82A
:1030C0000E0001A9254800F034FC012240F22551F0
:1030D000224800F0C6FC0121204800F0B6FC06B0F2
:1030E00010BD10B540F225511C4800F09FFD10B3F3
:1030F0001A4800F01BFDC4B21A48008800F40040D2
:10310000C8B91848008800F4804060B10A2C03D088
:1031100000201449088020E01248008840F4004054
:103120001049088019E00D2C06D10E48008840F4A3
:1031300080400C49088010E00A480088C0F30D0068
:1031400009490C5407480088401C06490880084675
:103150000088C72801DD0020088010BD003801402C
:1031600000080140F4040020C806002009488047F8
:1031700009480047FEE7FEE7FEE7FEE7FEE7FEE759
:10318000FEE7FEE7FEE7FEE704480549054A064B71
:10319000704700003705000831010008F0070020E3
:1031A000F00D0020F0090020F009002010B50446C1
:1031B000CC48844208D10121042000F02DFB0021DD
:1031C000042000F029FB46E0C748844208D10121D1
:1031D000082000F021FB0021082000F01DFB3AE050
:1031E000C248844208D10121102000F015FB0021C3
:1031F000102000F011FB2EE0BD48844208D10121CF
:10320000202000F009FB0021202000F005FB22E037
:10321000B848844208D10121402000F0FDFA002185
:10322000402000F0F9FA16E0B348844208D10121A9
:10323000802000F0F1FA0021802000F0EDFA0AE091
:10324000AE48844207D10121801500F0E5FA002143
:10325000A01500F0E1FA10BD10B50121084600F0FC
:10326000DBFA0021012000F0D7FA10BD2DE9F04172
:10327000024600250026002000230024002791F8A4
:1032800003C00CF00F0591F803C00CF0100CBCF15A
:10329000000F03D091F802C04CEA050591F800C078
:1032A000BCF1000F31D0146800202BE04FF0010C6E
:1032B0000CFA00F3B1F800C00CEA03069E4220D1DC
:1032C00083004FF00F0C0CFA03F7BC4305FA03FC24
:1032D0004CEA040491F803C0BCF1280F06D14FF06A
:1032E000010C0CFA00FCC2F814C00AE091F803C00B
:1032F000BCF1480F05D14FF0010C0CFA00FCC2F8EC
:1033000010C0401C0828D1D31460B1F800C0BCF133
:10331000FF0F34DD546800202EE000F1080C4FF060
:10332000010808FA0CF3B1F800C00CEA03069E424B
:1033300021D183004FF00F0C0CFA03F7BC4305FAC0
:1033400003FC4CEA040491F803C0BCF1280F05D13A
:1033500000F1080C08FA0CF8C2F8148091F803C0C8
:10336000BCF1480F07D100F1080C4FF0010808FA32
:103370000CF8C2F81080401C0828CED35460BDE879
:10338000F0814FF6FF710180022181700421C1702C
:1033900070470246002093680B400BB1012000E00B
:1033A000002070470146886880B2704702460020BE
:1033B000D3680B400BB1012000E0002070470146AC
:1033C000C86880B2704701617047416170470AB1B7
:1033D000016100E041617047C16070474FF4803285
:1033E0000A43826181618261826982697047024613
:1033F0000020434B18684FF68073184040EA0210D3
:1034000008433F4B186070473E49C8617047F0B5AC
:103410000A46002300240021002500F00046B6F1F2
:10342000004F02D1364EF16901E0354E7168C0F3AC
:10343000034583B200F44016B6F5401F08D121F0D1
:1034400070612F4E766826F070662D4F7E6012E018
:1034500000F48016B6F5801F06D1032606FA05F49F
:10346000A14341F0706106E0460D360103FA06F60D
:10347000B14341F0706122B1460D360103FA06F600
:10348000314300F00046B6F1004F02D11C4EF1610D
:1034900001E01B4E7160F0BD30B500228B071C0FA0
:1034A0000F2303FA04F2164B08338C1053F8243020
:1034B0009343134C08348D1044F8253023468C1068
:1034C00053F824308C07240F00FA04F423430C4CE7
:1034D00008348D1044F8253030BD0A49DC310860CD
:1034E0007047000000080140000C0140001001403E
:1034F0000014014000180140001C01400020014060
:103500000000014000002042DF48006840F0010058
:10351000DD49086008464068DC490840DA494860EF
:1035200008460068DA490840D7490860084600683C
:1035300020F4802008600846406820F4FE004860BF
:103540004FF41F0088607047CF49096821F480312B
:10355000CD4A11601146096821F480211160B0F54F
:10356000803F03D0B0F5802F0ED106E0C649096830
:1035700041F48031C44A116007E0C349096841F44D
:10358000A021C14A116000E000BF00BF704710B524
:1035900001460022002300204A11012A02D1BA4C20
:1035A000236806E0022A02D1B74C236A01E0B64C38
:1035B000636A01F01F02012494401C400CB10120F9
:1035C00000E0002010BD38B5002000900024002548
:1035D00000BF3120FFF7DBFF05460098401C00903C
:1035E0000098B0F5A06F01D0002DF2D03120FFF788
:1035F000CEFF08B1012400E00024204638BD01467A
:103600000020A14A106820F0F80040EAC1001060D4
:103610007047A04908607047024600209A4B5868DE
:1036200020F47C1042EA01031843974B586070471E
:1036300098490866704701460020934A506820F078
:1036400003000843506070478F48406800F00C004A
:103650007047014600208C4A506820F0F000084373
:103660005060704701460020874A506820F4E060AF
:1036700008435060704701460020834A506820F498
:10368000605040EAC1005060704729B17E4A527ACA
:1036900002437D4B5A7204E07B4A527A82437A4B52
:1036A0005A7270477B49D831086070470146002044
:1036B000754A506820F4404008435060704700212C
:1036C000714A20321170704A82F82010012802D00D
:1036D00004280AD104E001216B4A2032117005E070
:1036E0000521694A2032117000E000BF00BF704719
:1036F0006949086070476449096A0143624A116276
:103700007047654944390860704730B50021002290
:10371000002400235C4D6D6805F00C0121B10429E3
:1037200005D0082923D105E05C4D056022E05B4D02
:1037300005601FE0544D6D6805F47012524D6D68C0
:1037400005F48034022505EB92421CB9544D5543D3
:1037500005600BE04C4D6D6805F400351DB1504D12
:103760005543056002E04D4D5543056002E04B4D69
:10377000056000BF00BF444D6D6805F0F001090908
:10378000484D6B5C0568DD4045603F4D6D6805F454
:10379000E061090A434D6B5C4568DD4085603A4D48
:1037A0006D6805F46051C90A3E4D6B5C4568DD40AB
:1037B000C560354D6D6805F44041890B3A4D6B5C31
:1037C000C568B5FBF3F5056130BD29B12E4A5269D4
:1037D00002432D4B5A6104E02B4A526982432A4B23
:1037E0005A61704729B1284A92690243264B9A616F
:1037F00004E0254A92698243234B9A61704729B1BC
:10380000214AD2690243204BDA6104E01E4AD269A0
:1038100082431D4BDA61704729B11B4AD2680243CB
:10382000194BDA6004E0184AD2688243164BDA601A
:10383000704729B1144A12690243134B1A6104E01C
:10384000114A12698243104B1A617047124940397C
:10385000086070470F49C86470470B49C8717047CA
:103860000948406A40F08070074948627047014645
:103870000020054A92680A400AB1012000E00020B9
:103880007047014988727047001002400000FFF83D
:10389000FFFFF6FE000042428004424200127A001E
:1038A00000093D00F60400200605002010B504467E
:1038B000FB48844209D101218803FFF7ADFF0021B5
:1038C0004FF48040FFF7A8FF32E0F648844209D168
:1038D00001214804FFF7ADFF00214FF40030FFF74E
:1038E000A8FF25E0F048844209D101218804FFF7B0
:1038F000A0FF00214FF48020FFF79BFF18E0EB486A
:10390000844209D10121C804FFF793FF00214FF43D
:103910000020FFF78EFF0BE0E548844208D101212B
:103920000805FFF786FF00214FF48010FFF781FFA5
:1039300010BD2DE9F04786B005460E460024A2468C
:1039400000BFA1460027B08900B100BF2F462C8AD6
:103950004CF6FF700440F08804432C82AC894EF68C
:10396000F3100440B0883189084371890843044347
:10397000AC81AC8A4FF6FF400440B0890443AC826E
:1039800001A8FFF7C2FEC648874202D1DDF810A0A9
:1039900001E0DDF80CA0A88900F4004040B10AEB7A
:1039A000CA0000EB0A1031684900B0FBF1F807E0EB
:1039B0000AEBCA0000EB0A1031688900B0FBF1F88D
:1039C0006420B8FBF0F004012009642101FB108998
:1039D000A88900F4004040B1322000EBC900B0FBE0
:1039E000F1F000F00700044308E0322000EB09107A
:1039F0006421B0FBF1F000F00F0004432C8106B00D
:103A0000BDE8F0874FF41651016000218180C1802C
:103A100001810C21418100218181704710B502464E
:103A20000020108A4FF2FF0318400B884C88234374
:103A30008C882343CC8823431843108210BD002177
:103A4000018041808180C180704721B1828942F428
:103A50000052828104E082894DF6FF731A40828110
:103A60007047F0B50346002400260025002040F6EC
:103A70006A17B94200D100BF1846C1F3421401F0E1
:103A80001F06012707FA06F5012C01D10C3004E0CE
:103A9000022C01D1103000E014301AB107682F4316
:103AA000076002E00768AF430760F0BD1AB1838A80
:103AB0000B43838202E0838A8B4383827047028AAE
:103AC0004FF6F0731A400282028A0A43028270475C
:103AD00082894FF2FF731A40828182890A43828170
:103AE000704721B1828942F00202828104E082891A
:103AF0004FF6FD731A4082817047028A4FF6DF73DA
:103B00001A400282028A0A430282704721B1028A65
:103B100042F48042028204E0028A4BF6FF731A40AC
:103B200002827047C1F3080282807047014688888C
:103B3000C0F308007047818941F00101818170471D
:103B4000028BD2B20283028B42EA012202837047C7
:103B5000028B02F47F420283028B0A430283704786
:103B600021B1828A42F02002828204E0828A4FF6EA
:103B7000DF731A408282704721B1828A42F01002BC
:103B8000828204E0828A4FF6EF731A408282704785
:103B900021B1828A42F00802828204E0828A4FF6D2
:103BA000F7731A408282704721B1828942F4004241
:103BB000828103E08289C2F30E028281704721B1C3
:103BC000828A42F40062828204E0828A4FF2FF73AA
:103BD0001A4082827047828A4FF6FB731A408282B3
:103BE000828A0A438282704721B1828A42F00202AD
:103BF000828204E0828A4FF6FD731A408282704707
:103C000002460020B1F5007F00D100BF13880B40B1
:103C10000BB1012000E00020704701F40072B2F502
:103C2000007F00D100BFCA430280704770B50246D2
:103C3000002400230025002040F66A16B14200D17E
:103C400000BFC1F3421501F01F03012606FA03F37A
:103C5000012D02D19689334006E0022D02D1168A49
:103C6000334001E0968A33400C12012606FA04F430
:103C70001688344013B10CB1012000E0002070BD63
:103C800010B50022002340F66A14A14200D100BF03
:103C90000A1201249440A3B2DC43048010BD00004A
:103CA000003801400044004000480040004C004003
:103CB0000050004031490143314A1160704770B5EE
:103CC000002100230F22C47804B32D4C246804F48F
:103CD000E064C4F5E064210AC1F10403CA404478F9
:103CE00004FA03F18478144021430901254C067835
:103CF000A155047804F01F050124AC4005786D112E
:103D0000AD0005F1E025C5F8004109E0047804F0B4
:103D10001F050124AC401C4D0678761145F826405D
:103D200070BD1A4A0A400243154B1B1F1A607047A8
:103D300039B1134A121D12680243114B1B1D1A6040
:103D400006E00F4A121D126882430D4B1B1D1A60BC
:103D50007047042808D14FF0E021096941F00401BF
:103D60004FF0E022116107E04FF0E021096921F0F6
:103D700004014FF0E0221161704700000000FA05D5
:103D80000CED00E000E400E080E100E080FFFF1FB8
:103D900001684FF6FE721140016000210160416030
:103DA0008160C1608D49884208D18C4908394968D1
:103DB00041F00F01894A083A51608AE0874914317D
:103DC000884208D185490839496841F0F001834AA1
:103DD000083A51607DE081492831884208D17F4905
:103DE0000839496841F470617C4A083A516070E0D2
:103DF0007A493C31884208D178490839496841F408
:103E00007041764A083A516063E074495031884203
:103E100008D172490839496841F470216F4A083A5B
:103E2000516056E06D496431884208D16B490839C8
:103E3000496841F47001694A083A516049E06749AC
:103E40007831884208D165490839496841F0706184
:103E5000624A083A51603CE06149884206D1011F3C
:103E6000096841F00F01021F116032E05C49143112
:103E7000884208D15A49091F096841F0F001584A9F
:103E8000121F116025E056492831884208D1544953
:103E9000091F096841F47061514A121F116018E04E
:103EA0004F493C31884208D14D49091F096841F406
:103EB00070414B4A121F11600BE049495031884252
:103EC00007D14749091F096841F47021444A121F6C
:103ED0001160704710B50022026847F6F0739A43EC
:103EE0000C6A8B6823430C6923434C6923438C6918
:103EF0002343CC6923434C6A23438C6A23431A43EC
:103F00000260CB6843600B6883604B68C36010BD80
:103F10000021016041608160C16001614161816196
:103F2000C161016241628162704721B1026842F061
:103F30000102026004E002684FF6FE731A4002605C
:103F400070471AB103680B43036002E003688B43B8
:103F500003607047416070470146486880B270470F
:103F600001460020002201F080531BB11C4B083B8E
:103F70001A6802E0194B083B1A6802EA01030BB108
:103F8000012000E00020704700F0805119B1144971
:103F9000091F086002E0114908394860704701466E
:103FA0000020002201F080531BB10D4B083B1A6822
:103FB00002E00A4B083B1A6802EA01030BB1012038
:103FC00000E00020704700F0805119B10449091F3A
:103FD000086002E001490839486070470800024063
:103FE0000804024010B50446FE48844208D101216D
:103FF000C014FFF711FC0021E014FFF70DFCC4E032
:10400000B4F1804F08D101210846FFF712FC0021CE
:104010000120FFF70EFCB8E0F348844208D10121EB
:104020000220FFF706FC00210220FFF702FCACE0B3
:10403000EE48844208D101210420FFF7FAFB002159
:104040000420FFF7F6FBA0E0E948844208D10121F3
:104050000820FFF7EEFB00210820FFF7EAFB94E0C1
:10406000E448844208D101211020FFF7E2FB00213F
:104070001020FFF7DEFB88E0DF48844208D10121F1
:104080002020FFF7D6FB00212020FFF7D2FB7CE0A9
:10409000DA48844208D101214014FFF7BDFB00211A
:1040A0006014FFF7B9FB70E0D548844209D10121C3
:1040B000C804FFF7B1FB00214FF40020FFF7ACFB71
:1040C00063E0D048844209D101210805FFF7A4FB31
:1040D00000214FF48010FFF79FFB56E0CA4884424E
:1040E00009D101214805FFF797FB00214FF400108B
:1040F000FFF792FB49E0C548844208D101214020E6
:10410000FFF797FB00214020FFF793FB3DE0C048FD
:10411000844208D101218020FFF78BFB0021802001
:10412000FFF787FB31E0BB48844208D101218015AD
:10413000FFF77FFB0021A015FFF77BFB25E0B648CA
:10414000844209D101210804FFF766FB00214FF4E6
:104150008030FFF761FB18E0B048844209D10121AB
:104160004804FFF759FB00214FF40030FFF754FBE0
:104170000BE0AB48844208D101218804FFF74CFBD7
:1041800000214FF48020FFF747FB10BD002202887A
:10419000944B98420ED0994B98420BD0B0F1804F7F
:1041A00008D0914B984205D0904B984202D0904B4A
:1041B000984204D14FF68F731A404B881A438D4BA7
:1041C000984207D08C4B984204D04FF6FF431A40D8
:1041D000CB881A4302808B8883850B880385814BAB
:1041E00098420BD0854B984208D08B4B984205D013
:1041F0008A4B984202D08A4B984201D10B7A0386AF
:1042000001238382704770B5002400220023058CAF
:104210004FF6FE7635400584028C8388048B4FF67A
:104220008F752C40B51E2C400D882C43751E2A40DE
:104230000D892A434D882A436A4DA8420BD06F4D01
:10424000A84208D0744DA84205D0744DA84202D0AF
:10425000734DA84213D14FF6F7752A404D892A4372
:104260004FF6FB752A408D882A434FF6FF652B4099
:104270004FF6FF552B408D892B43CD892B438380EF
:104280000483CD888586028470BD70B50024002229
:104290000023058C4FF6EF7635400584028C838829
:1042A000048B48F6FF752C404FF6FF452C400D88D7
:1042B0004FF6FF7606EA05252C434FF6DF752A40B8
:1042C0000D8906EA05152A434D8806EA05152A4395
:1042D000444DA84202D0494DA8421DD14FF67F75EA
:1042E0002A404D894FF6FF7606EA05152A434FF618
:1042F000BF752A408D8806EA05152A434FF6FF351B
:104300002B404FF2FF752B408D8906EA85052B4324
:10431000CD8906EA85052B4383800483CD880587F4
:10432000028470BD70B5002400220023058C4FF676
:10433000FF6635400584028C8388848B4FF68F7529
:104340002C404FF6FC752C400D882C434FF6FF5542
:104350002A400D894FF6FF7606EA05252A434D8847
:1043600006EA05252A431F4DA84202D0234DA84244
:104370001DD14FF2FF752A404D894FF6FF7606EAB0
:1043800005252A434FF6FF352A408D8806EA052584
:104390002A434EF6FF752B404DF6FF752B408D8955
:1043A00006EA05152B43CD8906EA05152B438380C4
:1043B0008483CD888587028470BD70B50022002378
:1043C0000024058C4EF6FF7635400584038C8488E6
:1043D000828B48F6FF752A404FF6FF452A400D882C
:1043E00020E00000002C01400004004000080040D4
:1043F000000C004000100040001400400034014058
:10440000004C0140005001400054014000180040A1
:10441000001C0040002000400040014000440140DA
:10442000004801404FF6FF7606EA05252A434DF67F
:10443000FF752B400D8906EA05352B434D8806EAAA
:1044400005352B43FA4DA84202D0FA4DA84208D1B7
:104450004BF6FF752C408D894FF6FF7606EA8515E1
:104460002C4384808283CD88A0F84050038470BDA3
:10447000828B4FF2FF331A408283828B4FF6FF7399
:1044800003EA01231A4382837047F0B50C461546B0
:10449000002200210026078C4EF6FF7C07EA0C075D
:1044A0000784828B018C4FF6FF7707EA043640F6CB
:1044B000FF473A404FF6FF7707EA05273A434FF6A2
:1044C000FF7707EA03373A43D94FB8420ED0D94FA6
:1044D000B8420BD0B0F1804F08D0D74FB84205D0CA
:1044E000D64FB84202D0D64FB84206D14DF6FF772C
:1044F000394046F48057394305E047F6FF573940C5
:1045000044F48057394382830184F0BD828B4FF697
:10451000F3731A408283828B0A4382837047F0B51B
:104520000C461546002200210026078C4FF6FF6C32
:1045300007EA0C070784828B018C4FF6FF7707EAA6
:1045400004264FF60C773A404FF6FF7707EA031739
:104550002F433A43B64FB8420ED0B64FB8420BD0B5
:10456000B0F1804F08D0B44FB84205D0B34FB84235
:1045700002D0B34FB84206D14FF6FF57394046F448
:104580008077394305E04FF2FF57394044F4807794
:10459000394382830184F0BD028B4FF2FF331A400E
:1045A0000283028B4FF6FF7303EA01231A4302834F
:1045B0007047F0B50C461546002200210026078CF6
:1045C0004FF6EF7C07EA0C070784028B018C4FF64D
:1045D000FF7707EA041640F6FF473A404FF6FF77A9
:1045E00007EA03373A434FF6FF7707EA05273A43CE
:1045F0008F4FB8420ED08F4FB8420BD0B0F1804FE2
:1046000008D08D4FB84205D08C4FB84202D08C4FA5
:10461000B84206D14FF6DF77394046F010073943EC
:1046200005E04FF65F77394044F0100739430283C5
:104630000184F0BD028B4FF6F3731A400283028BA4
:104640000A4302837047F0B50C461546002200214C
:10465000068C4FF6FE773E400684028B018C4FF6A7
:104660000C7632407E1C06EA03162E433243704E0F
:10467000B0420ED06F4EB0420BD0B0F1804F08D098
:104680006D4EB04205D06D4EB04202D06C4EB0427D
:1046900006D14FF6FD76314044F00106314305E086
:1046A0004FF6F576314044F0010631430283018430
:1046B000F0BD70B505460C465D4885420ED05D489C
:1046C00085420BD0B5F1804F08D05B48854205D0BC
:1046D0005A48854202D05A48854200D100E000BFC6
:1046E000208850B92389A28861882846FFF7ABFF4C
:1046F000E1882846FFF79EFF25E0208804280AD19C
:104700002389A28861882846FFF753FFE18828465D
:10471000FFF742FF17E0208808280AD12389A288E2
:1047200061882846FFF7FBFEE1882846FFF7EEFE8A
:1047300009E02389A28861882846FFF7A6FEE18860
:104740002846FFF795FE70BD2DE9F04105460C4661
:1047500000260127608808B9022600E00026A0880C
:10476000012801D1022700E001272088A0B9238970
:10477000A28861882846FFF766FFE1882846FFF790
:1047800059FF23893A4631462846FFF712FFE18850
:104790002846FFF701FF13E02389A2886188284695
:1047A000FFF707FFE1882846FFF7F6FE23893A4620
:1047B00031462846FFF747FFE1882846FFF73AFFD2
:1047C000BDE8F0810A884B881A438B881A43CB884E
:1047D0001A430B891A434B891A438B891A43A0F851
:1047E000442070474FF6FF71818000210180C18015
:1047F0004180017270470021018041808180C18029
:10480000018141818181C181704700210180418006
:10481000012181800021C180018170470021018038
:1048200041808180C1800181418181817047000088
:10483000002C01400034014000040040000800400A
:10484000000C004021B1028842F00102028004E025
:1048500002884FF6FE731A400280704731B1B0F8FB
:10486000442042F40042A0F8442005E0B0F844207F
:10487000C2F30E02A0F8442070471AB183890B439B
:10488000838102E083898B438381704781827047F3
:1048900041EA0203A0F8483070471AB183890B43FC
:1048A000838102E083898B438381704701894FF6BE
:1048B000F8721140018170470A46002101894FF6C4
:1048C0008F73194011430181704730B504460D467E
:1048D00029462046FFF7F0FF208940F0070020819D
:1048E00030BD2DE9F04104460D4616461F46602DA9
:1048F00006D13B46012231462046FFF75AFE05E02D
:104900003B46012231462046FFF79DFE29462046C0
:10491000FFF7D2FF208940F007002081BDE8F08139
:1049200030B50C4600210189C9B24FF6FF7505EA82
:104930000325154325432943018130BD2DE9F0416D
:1049400005460E4617469846002443463A463146E9
:104950002846FFF7E5FF2C894FF6F870044044F035
:1049600007044FF68F70044044F070042C81BDE8BA
:10497000F081F0B504460D4616461F463B463246CA
:1049800029462046FFF7CCFF208940F48040208153
:10499000F0BD0185828270470A46002101884FF6EA
:1049A0008F731940114301807047F0B50C461546CE
:1049B0001E460021002200230189028B038C4FF642
:1049C000F877394021434FF6FC473A4040F201174F
:1049D0003A434FF6DD773B404FF6FF7707EA06177D
:1049E0002F433B43018102830384F0BD0A4600212B
:1049F000018B4FF68F7319401143018370470A46AC
:104A00000021018B48F6FF7319404FF6FF7303EA4C
:104A100002231943018370470A460021818B4FF618
:104A20008F7319401143818370470A460021818B9F
:104A300048F6FF7319404FF6FF7303EA0223194348
:104A40008183704721B1028842F08002028004E035
:104A500002884FF67F731A400280704721B1828826
:104A600042F00402828004E082884FF6FB731A4011
:104A70008280704721B1828842F00802828004E07F
:104A800082884FF6F7731A408280704721B182887E
:104A900042F00102828004E082884FF6FE731A40E1
:104AA000828070470A460021018B4FF6F773194048
:104AB0001143018370470A460021018B4FF2FF73B7
:104AC00019404FF6FF7303EA02231943018370472D
:104AD0000A460021818B4FF6F773194011438183F9
:104AE00070470A460021818B4FF2FF7319404FF641
:104AF000FF7303EA02231943818370470A460021AA
:104B0000018B4FF6FB7319401143018370470A462E
:104B10000021018B4FF6FF3319404FF6FF7303EA74
:104B200002231943018370470A460021818B4FF607
:104B3000FB7319401143818370470A460021818B22
:104B40004FF6FF3319404FF6FF7303EA0223194370
:104B5000818370470A460021018B4FF67F7319400D
:104B60001143018370470A460021018BC1F30E01F6
:104B70004FF6FF7303EA02231943018370470A4685
:104B80000021818B4FF67F73194011438183704759
:104B90000A460021818BC1F30E014FF6FF7303EA31
:104BA00002231943818370470A460021018C4FF686
:104BB000FD7319401143018470470A460021018C9E
:104BC0004FF6F77319401143018470470A460021DC
:104BD000018C4FF6DF7319404FF6FF7303EA02139F
:104BE0001943018470470A460021018C4FF67F73F8
:104BF00019404FF6FF7303EA02131943018470470B
:104C00000A460021018C4FF6FF5319404FF6FF73FF
:104C100003EA02231943018470470A460021018CEC
:104C20004FF2FF7319404FF6FF7303EA0223194353
:104C3000018470470A460021018C4DF6FF7319402C
:104C40004FF6FF7303EA023319430184704730B50E
:104C5000002301248C40A3B2048C9C430484048C64
:104C600002FA01F5ADB22C43048430BD30B5002307
:104C700004248C40A3B2048C9C430484048C02FA68
:104C800001F5ADB22C43048430BD70B5034600205D
:104C900000241846183001258D40ACB21D8CA54368
:104CA0001D8409B1082909D100EB6100056825F0D0
:104CB000700505600568154305600EE00D1FC5F31E
:104CC0004E052844056825F4E045056005684FF663
:104CD000FF7606EA02263543056070BD21B10288E1
:104CE00042F00202028004E002884FF6FD731A408F
:104CF0000280704721B1028842F00402028004E081
:104D000002884FF6FB731A400280704721B18288F7
:104D100042F08002828004E082884FF67F731A405E
:104D20008280704702884FF6F7731A40028002882B
:104D30000A430280704782884FF68F731A40828040
:104D400082880A438280704702894FF6F8731A40BE
:104D5000028102890A430281704702894FF67F73FC
:104D60001A40028102890A43028170478184704798
:104D700081857047818670470187704781877047BA
:104D8000A0F84010704702884FF6FF431A40028097
:104D900002880A43028070470146888E70470146A8
:104DA000088F70470146888F70470146B1F8400070
:104DB00070470146888C70470146088D704702464F
:104DC0000020138A0B400BB1012000E00020704747
:104DD000CA430282704730B50246002000230024F7
:104DE000158A05EA0103958905EA010413B10CB19E
:104DF000012000E0002030BDCA430282704700005D
:104E000010B50446F748844209D101214805FEF750
:104E100010FD00214FF40010FEF70BFD08E001210A
:104E20008805FEF706FD00214FF48000FEF701FD26
:104E300010BD2DE9F04385B004460D460026B1466D
:104E40000427DFF8A483A6884FF6C07006406846A2
:104E5000FEF75BFCDDF80880E448B8FBF0F01FFAD1
:104E600080F946EA0906A68020884FF6FE710840C0
:104E700020800026DE49286888420CD82868400037
:104E8000B8FBF0F087B2042F00DA04273E4309F1A3
:104E90000100208427E0E8884BF6FF71884206D1A4
:104EA000286800EB4000B8FBF0F087B209E0286802
:104EB00000EBC00101EB0010B8FBF0F087B247F443
:104EC0008047C7F30B0008B947F0010747F40040DB
:104ED00006434FF4967009FB00F04FF47A7190FB93
:104EE000F1F0401C2084A683208840F0010020803F
:104EF00026884FF6F5300640A8886989084306439E
:104F00002680A88929890843208105B0BDE8F0835F
:104F100041F288310160002181804BF6FF71C18030
:104F20000021018141814FF480418181704721B18D
:104F3000028842F00102028004E002884FF6FE730C
:104F40001A400280704721B1828842F40062828058
:104F500004E082884FF2FF731A408280704721B1CB
:104F6000828842F48052828004E082884EF6FF7389
:104F70001A408280704721B1028842F48072028018
:104F800004E002884FF6FF631A400280704721B1A7
:104F9000028842F40072028004E002884FF6FF5358
:104FA0001A400280704721B1028842F48062028078
:104FB00004E002884FF6FF331A40028070470A4629
:104FC000002181894FF60173194002F0FE03194355
:104FD0008181704721B1828942F00102828104E01F
:104FE00082894FF6FE731A408281704721B1028890
:104FF00042F04002028004E002884FF6BF731A407C
:10500000028070471AB183880B43838002E0838853
:105010008B4383807047018270470146088AC0B283
:10502000704712B141F0010102E04FF6FE731940E2
:105030000182704708B50246002000900092009857
:10504000084400900098008808BD21B1028842F40D
:105050000042028003E00288C2F30E020280704721
:10506000B1F5006F04D1028842F40062028004E0CE
:1050700002884FF2FF731A4002807047B1F5005F5B
:1050800004D1028842F40052028004E002884DF606
:10509000FF731A400280704721B1028842F48052A7
:1050A000028004E002884EF6FF731A4002807047C7
:1050B000B1F5006F04D1028842F40062028004E07E
:1050C00002884FF2FF731A400280704721B10288B4
:1050D00042F02002028004E002884FF6DF731A409B
:1050E000028070470146088B0012704721B1028888
:1050F00042F01002028004E002884FF6EF731A407B
:105100000280704721B9028842F08002028004E0E8
:1051100002884FF67F731A4002807047B1F5804FC6
:1051200005D0828B4BF6FF731A40828303E0828B9B
:1051300042F480428283704770B502460024002505
:1051400000230020958A138B1B0445EA030626F0F2
:105150007F4404EA01068E4201D1012000E00020D4
:1051600070BD10B501460020002300228B8A0A8BF7
:10517000120443EA020424F07F4010BD0CB502463D
:10518000002000230193009300920B0F019321F064
:105190007F41019B1BB1009B1433009303E0090C7A
:1051A000009B18330093009B1B680B400BB1012040
:1051B00000E000200CBD002221F07F42D343838217
:1051C000704730B5024600200023948801F0E06566
:1051D00004EA154321F07F41948A0C4054B14BB14D
:1051E000012008E00054004000127A0040420F0005
:1051F000A0860100002030BD002221F07F42D34371
:1052000083827047704700001CB50C46064B7B44F8
:1052100069460090204600F07AFC0446002069466A
:1052200000F088FC20461CBD230900000FB404498F
:1052300010B503AA029800F099FC10BC5DF814FBAD
:10524000F00400200FB41CB5084B06AA7B44694645
:105250000090059800F05BFC04460020694600F0D1
:1052600069FC20461CBC5DF814FB0000E50800004A
:1052700070B5044685690068C10601D5302600E096
:105280002026C00707D070BDD4E9012130469047E1
:10529000206A401C20626D1EF6D570BD70B50446B4
:1052A00085690078C00707D170BDD4E901212020AD
:1052B0009047206A401C20626D1EF6D570BD70B507
:1052C0000C460546012A05D02878800600D5EA69F3
:1052D000002302E0012305E05B1C934202D2E05C64
:1052E0000028F9D1A869E618C01AA861286A1844EC
:1052F00028622846FFF7BCFF04E0D5E9012114F835
:10530000010B9047B442F8D32846FFF7C7FF70BDA2
:105310002DE9F0410646002410687529314616A58E
:1053200010D000F062F9002802DA404213A507E02D
:1053300031688A0701D512A502E0490704D511A5F5
:10534000012401E000F05AF900210A2206F12407A5
:1053500009E0B0FBF2FCB0FBF2F302FB1C003030C2
:1053600078541846491C0028F3D123462A46304673
:10537000BDE8F04100F04BB9000000002D00000036
:105380002B00000020000000F0B40D460188090544
:1053900002D5214C7C4402E01F4C7C440E34002199
:1053A00000F1240608E002F00F071209E75D42EA67
:1053B00003721B097754491C52EA0307F3D10278A0
:1053C0000023120704D5702D06D009B10223113431
:1053D0002246F0BC00F01BB901231034F8E770B589
:1053E00004460D462146106800F008F90246294699
:1053F0002046BDE870400023C6E7D21D22F0070317
:10540000D3E90023C0E70368126843F02003036078
:105410000823C3610023B7E7D62700002DE9F05F1A
:10542000894604464FF0000ADFF874B1FB44C0F827
:1054300020A02046E1688847002874D0252806D09F
:10544000D4E901219047206A401C2062F1E7002640
:105450005F462046E16888472028054607DB312D56
:1054600005D2781910F8200C08B10643F1E7B0070F
:1054700001D526F00406C4F81CA00027C4F818A023
:105480002A2D09D0284601F0D0F938B304EB87085B
:10549000303DC8F8185019E059F8041B204604EBB9
:1054A00087029161E1688847012F054618D1E069BC
:1054B000002820DA26F020061DE0D8F8180000EBBE
:1054C000800005EB40003038C8F818002046E1683D
:1054D0008847054601F0A9F90028EED1012F0AD02E
:1054E0002E2D08D12046E16888477F1C0546022FF3
:1054F00046F02006C4DBA069002803DA404246F0EB
:105500000106A061F00701D026F010066C2D0BD02B
:10551000682D09D04C2D39D06A2D35D0742D35D059
:105520007A2D33D016E038E0E1682F4620468847D0
:10553000B842054609D16C2F26D04FF48060E1684F
:10554000064320468847054604E06C2F1AD04FF4E6
:10555000807006430DB3A5F14100192802D820350B
:1055600046F400664A462946204626604E46FAF72B
:1055700039FE80B101280BD0F61D26F0070000F19E
:10558000080956E74020E4E78020D8E70020D6E766
:1055900006F104094DE7284652E7206ABDE8F09F6E
:1055A0006627000010B5431C02E010F8011B71B122
:1055B0008107FAD14FF0013202C88C1A8C4314EAE9
:1055C000C211F9D0C01A0A0603D0C01E10BDC01AFD
:1055D00010BD0A0401D0801E10BD0902FCD0401E7F
:1055E00010BD704770477047704709684A0501D57C
:1055F00040B27047C905FCD500B2704709684A053A
:1056000001D5C0B27047C905FCD580B270472DE9FD
:10561000F0470D4699469246044600F12408016879
:10562000880604D5E06921F01001216000E0012026
:10563000A84201DD471B00E00027A1697A1902EBAF
:105640000900081AA0612078C00602D42046FFF79E
:105650000FFE002608E0D4E901211AF80600904761
:10566000206A401C761C20624E45F4DB2078C00680
:105670000AD52046FFF7FCFD06E0D4E901213020E1
:105680009047206A401C2062381EA7F10107F4DC15
:1056900007E0D4E9012118F805009047206A401C72
:1056A0002062281EA5F10105F3DC2046FFF7F6FD78
:1056B0002078000602D50220BDE8F0870120FBE734
:1056C00011680268006A530501D508700AE0D30525
:1056D00001D5088006E0130603D5C217C1E9000210
:1056E00000E008600120704770472DE9FF4F0C462D
:1056F0001E464FF0FF378BB0D2E90001DDF8608025
:105700000A908A46C1F30A5505B93D46002108466C
:105710004FF00000BAF1000F00F4400005DA00EB92
:1057200080004FF4400101EA50004FEA9059B9F16E
:10573000010F00DDB9460A9850EA4A000ED044F63F
:105740001050A5F2FF3545432F14B8F1000F1ED0BD
:105750007542291E1EDDC9F100021CE0B8F1010FDF
:105760004FF0000001D0302103E0F24305E0215466
:10577000401CB042FBDB30460022002121540B9933
:10578000C1F80880C1E900200FB0BDE8F08FBD1B53
:105790006D1CDEE74A4600DA694206A800F06CFBA1
:1057A00006AB93E8070003AB83E8070050460A996D
:1057B00000F06CFC8DE80700A0F500501F38009049
:1057C0000398002D09DD42F21F014A46084403A94F
:1057D0000390684600F0CBFE08E0A0F500504A4672
:1057E0001F3803A90390684600F0D5FE8DE8070036
:1057F0000004000C03D04FF0FF30410800E01046D9
:10580000B8F1000F03D00022009215461EE0751E6D
:1058100005D400F095FA303262556D1EF9D5B346C5
:105820000122084302D000227F1C04E020783028A7
:1058300001D100227F1E002A099786D01DE0112D7C
:1058400007DA00F07DFA303262556D1C50EA010231
:10585000F5D1084302D00098C8B10EE00021681EBF
:1058600005E0235C625C63542254401E491C814263
:10587000F7DBAB46A81B401E0990002004F80B0084
:105880000B98099AC0F80880C0E9002B7CE7112624
:105890004FF0000859E72DE9F04F88460446D21D25
:1058A00022F0070191B0D1E90001CDE90A0100F031
:1058B000A8FF02460B98C00F01D02D2007E02068FA
:1058C000810701D52B2002E0202101EAC000032A34
:1058D000099001D0072A05DB03464146204600F027
:1058E00075FA0BE12078800601D5E06900E006201A
:1058F000B8F1650F814606D0B8F1660F18D0B8F13F
:10590000670F70D131E00020B9F1110F009001DB79
:10591000112301E009F101030AAA01A90CA8FFF76C
:10592000E4FEDDE90C70002609F10105834647E03D
:1059300001204B4600904FF000470AAA01A90CA88D
:10594000FFF7D3FEDDE90DB00C995D46002610B9D6
:1059500009F101000D18B9EB050003D4C0F1FF36C1
:1059600009F10105A5EB09002BE0B9F1010F01DAFE
:105970004FF001090020B9F1110F0090484601DDF8
:10598000112300E003460AAA01A90CA8FFF7ADFE07
:10599000DDE90C704D4600268346207800070AD4C6
:1059A000AB4500DA5D4601A8012D04DD411911F86F
:1059B000011C302907D04F4502DA17F1040F04DA31
:1059C000012082460FE06D1EEEE7002F02DCED1B8A
:1059D0003E4403E0781CA84200DD7D1CB81B00F1AA
:1059E000010A4FF000472078000703D4AA4501DBE5
:1059F0004FF0FF3A0021B7F1004F0DF143088DF849
:105A0000431024D002202B23002F01DA7F422D23C4
:105A10000A21021EA0F1010000DC5FB197FBF1FC3E
:105A200097FBF1F201FB1C7C17460CF1300C08F8D7
:105A300001CDEEE7A8F1010003702188090501D529
:105A4000452100E06521A0F1010800F8011C09983A
:105A50000FA9A1EB0807FF1D00B10120411901EBBF
:105A6000EA70A1693844081A401EA0612078C00677
:105A700002D42046FFF7FCFB099828B1D4E90121A4
:105A80009047206A401C20622078C00622D520461C
:105A9000FFF7EEFB1EE0002E04DBB34502DD01A89C
:105AA000805D00E03020D4E901219047206A401C4D
:105AB0002062761CAAF101005FEA000A0AD100F018
:105AC0003BF9C0680168405CD4E901219047206A35
:105AD000401C2062281EA5F10105DCDC07E0D4E9AA
