:020000040800F2
:10000000F80D0020D91A0008590500085B05000802
:100010005F05000863050008670500080000000090
:100020000000000000000000000000006B05000858
:100030006D050008000000006F050008710500084C
:10004000F31A0008F31A0008F31A0008F31A00085C
:10005000F31A0008F31A0008F31A0008F31A00084C
:10006000F31A0008F31A0008F31A0008F31A00083C
:10007000F31A0008F31A0008F31A0008F31A00082C
:10008000F31A0008F31A0008F31A0008F31A00081C
:10009000F31A0008F31A0008F31A0008F31A00080C
:1000A000F31A0008F31A0008F31A0008F31A0008FC
:1000B00075180008F31A0008C30E0008F31A0008A8
:1000C000F31A0008F31A0008F31A0008F31A0008DC
:1000D000F31A00084F1A0008B30C0008F31A0008BE
:1000E000F31A0008F31A0008F31A0008F31A0008BC
:1000F000F31A0008F31A0008F31A0008F31A0008AC
:10010000F31A0008F31A0008F31A0008F31A00089B
:10011000F31A0008F31A0008F31A0008F31A00088B
:10012000F31A0008F31A0008F31A0008F31A00087B
:1001300000F002F800F0B0F80AA090E8000C824449
:100140008344AAF10107DA4501D100F0A5F8AFF226
:10015000090EBAE80F0013F0010F18BFFB1A43F0A5
:100160000103184784620000A46200000A444FF0B3
:10017000000C10F8013B13F0070408BF10F8014B06
:100180001D1108BF10F8015B641E05D010F8016B4B
:10019000641E01F8016BF9D113F0080F1EBF10F8AF
:1001A000014BAD1C0C1B09D16D1E58BF01F801CBD2
:1001B000FAD505E014F8016B01F8016B6D1EF9D555
:1001C0009142D6D37047000000230024002500266A
:1001D000103A28BF78C1FBD8520728BF30C148BFAA
:1001E0000B6070476E2903F01587702903F0B58501
:1001F000662905F08084652905F07D84672905F06E
:100200007A846129AFF3008003681B0A28BF41F09C
:100210008001692903F02685642903F02385752967
:1002200003F020856F2904F00982782903F0818585
:10023000E92904F0A381E42904F0A081F52904F060
:100240009D81EF2904F00682F82903F08085036878
:10025000DB0928BF41F08001632904F02481732960
:1002600004F02981E32904F09382F32904F09882B1
:10027000002070471FB504F0F7F9040000200021AA
:1002800004F084FF401C60600020002104F068FF3F
:10029000E0601FBD10B510BD04F018FB1146FFF75C
:1002A000E9FF00F009F804F03FFB03B4FFF7F2FFA9
:1002B00003BC01F071FB000088B001F003FB4FF4B8
:1002C000165001F078FB4FF4A06002F0A9F901F09C
:1002D00051F800F019FE00F09BFE002000F005FF31
:1002E0004FF47A7001F02BFBE9E001F08FF87449CC
:1002F0007448006805F0D0FA11D27248006805F021
:1003000031FA044622460B466FA104A803F044FCD0
:10031000022304AA0021084600F01FFF02E000208B
:100320006849086001F0BDF86A496B48006805F04B
:10033000B3FA11D26848006805F014FA0446224660
:100340000B4666A104A803F027FC022304AA194661
:10035000002000F002FF02E000205F49086001F089
:10036000ECF85C496048006805F096FA11D25E48E6
:10037000006805F0F7F9044622460B465BA104A885
:1003800003F00AFC022304AA1946002000F0E5FE4F
:1003900002E000205449086001F01AF94D4956481E
:1003A000006805F079FA11D25348006805F0DAF9CF
:1003B000044622460B4651A104A803F0EDFB02239C
:1003C00004AA1946002000F0C8FE02E000204A49B5
:1003D000086001F049F93F494B48006805F05CFAB4
:1003E00011D24948006805F0BDF9044622460B4683
:1003F00046A104A803F0D0FB022304AA194600205A
:1004000000F0ABFE02E000203F49086001F078F9FF
:1004100041494248006805F03FFA11D23F48006860
:1004200005F0A0F9044622460B463DA104A803F0BE
:10043000B3FB022304AA0421002000F08EFE02E098
:1004400000203649086001F0CAF93349374800688E
:1004500005F022FA11D23548006805F083F9044608
:1004600022460B4632A104A803F096FB022304AAFD
:100470000421002000F071FE02E000202B490860FA
:100480002E482FA10268684603F086FB02236A46C5
:100490000621002000F061FE284801682AA000F033
:1004A000F4FC01E000F056F9294800680028F9D171
:1004B00001E000F063FA274800680028F9D114E74A
:1004C00000004843F0040020313A2025362E3366E0
:1004D0000000000000007042F4040020323A2025A1
:1004E000362E336600000000F8040020333A202541
:1004F000362E336600000000FC040020343A20252C
:10050000362E33660000000000050020353A202515
:10051000362E3366000000000000F0420405002083
:10052000363A2025362E33660000000008050020EC
:10053000373A2025362E33660000000000000020E8
:1005400042543A202564000025640D0A0000000092
:100550003400002038000020704700BFFEE700BFD5
:10056000FEE700BFFEE700BFFEE770477047704739
:10057000704700000CB50020019000906C480068A6
:1005800040F480306A49086000BF6948006800F4A0
:10059000003000900198401C0190009818B9019813
:1005A000B0F5A06FF1D16248006800F4003010B1DE
:1005B0000120009001E0002000900098012843D124
:1005C0005C48006840F010005A490860084600681E
:1005D00020F0030008600846006840F00200086050
:1005E0005348406852494860084640684860084699
:1005F000406840F4806048600846406820F47C1001
:1006000048600846406840F4E810486008460068C2
:1006100040F08070086000BF4548006800F000703E
:100620000028F9D04248406820F003004049486063
:100630000846406840F00200486000BF3C484068FF
:1006400000F00C000828F9D10CBD10B5FFF792FF9F
:1006500010BD10B53648006840F00100344908600C
:1006600008464068344908403149486008460068F7
:10067000324908402E4908600846006820F480206E
:1006800008600846406820F4FE0048604FF41F00F0
:100690008860FFF7DAFF4FF000602949086010BD5D
:1006A00010B5002100200022214B5B6803F00C01F3
:1006B00021B1042906D0082928D107E0214B224C7A
:1006C000236027E01F4B204C236023E0184B5B681E
:1006D00003F47010164B5B6803F48032022303EBC3
:1006E000904022B9194B4343174C23600DE0104B47
:1006F0005B6803F4003323B1144B4343124C236073
:1007000003E0104B4343104C236003E00D4B0E4CB1
:10071000236000BF00BF064B5B68C3F303130C4CA0
:10072000E15C094B1B68CB40074C236010BD000007
:1007300000100240002002400000FFF8FFFFF6FE1C
:1007400008ED00E000127A000400002000093D00DE
:10075000080000202DE9F04100F058FE00F0A1FE55
:1007600000F0CEFF01F03BF80020FE490860FE4992
:10077000FE48006805F090F803D3FD4800680128A2
:1007800009D14FF48770F74908600020F8490860E4
:100790000120F8490860F849F448006805F0FBF8C2
:1007A0000FD3F649F148006805F076F809D3F4490B
:1007B000F448006805F070F803D3EE48006801289B
:1007C00007D10020E7490860EA4908600120EE49A6
:1007D0000860EE49EE48006805F0DDF809D3ED4900
:1007E000EB48006805F058F803D3E7480068012893
:1007F0007ED101E000F0F3FFE649E548006805F02E
:10080000CAF8F7D36F20D74908600846E2A102680A
:10081000E34803F0C1F90223E14A0621002000F079
:100820009CFCD0480168DFA000F02FFBC82001F03D
:1008300086F8DE20CB4908600846D7A10268D84870
:1008400003F0AAF90223D64A0621002000F085FC15
:10085000C4480168D3A000F018FB40F22B20C14926
:1008600008600846CCA10268CD4803F095F9022340
:10087000CB4A0621002000F070FCBA480168C9A0EC
:1008800000F003FB4FF47A7001F059F800F009FE14
:1008900000F036FF002000F028FCC449B948006889
:1008A00004F08CFF0746C24905F0A6F8044604F0A0
:1008B00059FF05462A460B46BEA1B94803F06CF91C
:1008C0000223B74A0021084600F047FCAD48006803
:1008D00004F048FF044622460B46BAA1B04803F094
:1008E0005BF90223AE4A1946002000F036FC00E016
:1008F00042E04FF08241B848006804F05FFF804654
:10090000A24905F083F80546B44905F075F8044698
:1009100004F028FF064632460B46B1A1A04803F07A
:100920003BF902239E4A0421002000F016FC97495F
:10093000A948006805F06AF8064604F013FF04466B
:1009400022460B46AAA1964803F026F90223944AB0
:100950000621002000F001FC40F6B83000F0EFFF67
:100960000020894908600120A54908600020A549A8
:1009700008600120A4490860BDE8F0812DE9F0413C
:1009800000F044FD00F08DFD00F0D7FD00F0B8FE52
:1009900000F025FF0020734908607749734800681C
:1009A00004F0F9FF0FD375497048006804F074FF34
:1009B00009D373497348006804F06EFF03D390486D
:1009C0000068012809D14FF487706649086000204B
:1009D0008B49086001208D490860684963480068B8
:1009E00004F0D9FF0FD38A496048006804F054FF2F
:1009F00009D363498748006804F04EFF03D3834856
:100A00000068012807D10020564908607F49086026
:100A100001208149086081495D48006804F0BBFFFE
:100A200003D37D48006801287ED101E000F0D7FEA5
:100A300056495748006804F0AEFFF7D36F20494984
:100A40000860084654A10268554803F0A5F802233F
:100A5000534A0621002000F080FB4248016851A063
:100A600000F013FAC82000F06AFF40F24D103D4933
:100A70000860084648A10268494803F08DF802233F
:100A8000474A0621002000F068FB3648016845A06F
:100A900000F0FBF940F22B203249086008463EA1E5
:100AA00002683F4803F078F802233D4A06210020FF
:100AB00000F053FB2B4801683AA000F0E6F94FF430
:100AC0007A7000F03CFF00F038FD00F019FE0020C5
:100AD00000F00BFB51494048006804F097FF0646C0
:100AE00004F040FE044622460B4632A12C4803F097
:100AF00053F802232A4A0021084600F02EFB4749FA
:100B00003548006804F082FF8046284904F056FE0C
:100B10000546274904F070FF044604F023FE06460C
:100B200032460B4627A100E0A4E01D4803F034F84C
:100B300002231B4A1946002000F00FFB4FF08241B0
:100B40003448006804F03AFE0746244904F054FF94
:100B5000044604F007FE05462A460B4620A110482D
:100B60005EE000000000002000007041F004002062
:100B7000180000201C0000200000A0420000D2420B
:100B800000005C42F4040020200000200000BE426F
:100B9000080500200000F04242543A20256400007D
:100BA0002C05002025640D0A0000000000002041F3
:100BB00000000C4246726F6E743A2025362E336662
:100BC00020636D00426568696E643A2025362E33D5
:100BD0006620636D00000000040500200000C8418D
:100BE0004C6566743A2025362E336620636D00000E
:100BF00052696768743A2025362E336620636D008B
:100C000024000020340000203800002028000020AC
:100C100000000C43F80400202C000020000070426B
:100C200002F0BAFF0223144A0421002000F095FAD2
:100C30001248006804F096FD044622460B46AFF2C7
:100C400050010D4802F0A8FF02230B4A06210020A4
:100C500000F083FA40F6B83000F071FE0020084939
:100C6000086001200749086000200749086001204A
:100C700006490860BDE8F0812C050020F80400203A
:100C80002C00002030000020380000203C00002014
:100C900010B5044644B10021944802F01DFD012125
:100CA000924802F085FA03E00021904802F080FAB1
:100CB00010BD10B540F225518D4801F06DFC00B318
:100CC0008B4801F0E9FBC4B28A480088C82812DAD0
:100CD0000021864802F000FD8648008810B90120F6
:100CE000FFF7D6FF834801880088401C814A1080A6
:100CF0008148445405E07F48008840F400407D4925
:100D0000088010BD7FB505460C460121042001F086
:100D10002CFAADF80450ADF800400020ADF8060004
:100D2000ADF802006946714801F0E6FE0122114665
:100D30006E4802F058FA1E208DF80C0001208DF844
:100D40000D0002208DF80E0001208DF80F0003A881
:100D500001F06BFC7FBD70B58CB006460C461546A5
:100D60000121084601F0E7F9304601F0C7FC019483
:100D7000029510200390002004900590802006909A
:100D800000200790089009904FF480500A900020AE
:100D90000B9001A9304601F053FD0CB070BD10B5A9
:100DA00086B004460121042001F0D2F90121480453
:100DB00001F0DBF94E4801F02FFA0420ADF81000E5
:100DC00003208DF8120018208DF8130004A94B4859
:100DD00000F002FF0820ADF8100004208DF8130089
:100DE00004A9464800F0F8FE00940020ADF8040085
:100DF000ADF80600ADF80800ADF80C000C20ADF819
:100E00000A0069463A4801F04AFA0122802138482E
:100E100001F002FB3A4A3649091D3A48FFF79BFFA9
:100E20000121334801F0C7FA012240F22551304830
:100E300001F0CDFA26208DF8140002208DF815005F
:100E400003208DF8160001208DF8170005A801F089
:100E5000ECFB41F61F416320FFF754FF00202549BA
:100E60000880FFF715FF06B010BD70B504460D46AB
:100E70000021204601F00FFD2946204601F020FD0B
:100E80000121204601F007FD70BD0FB438B505A85B
:100E900000901B48009A049902F06CFE002000901C
:100EA00000BF184801F00EFD0028FAD1144803F0E5
:100EB00023F8C4B221461348FFF7D7FF38BC5DF8CA
:100EC00014FB10B50121094802F03BFC60B1094850
:100ED000008840F40040074908800121034802F0DF
:100EE00041FC0020FFF7D4FE10BD000000080040C8
:100EF0000044004044000020080600200008014093
:100F0000400500208000024000B585B00121480561
:100F100001F02BF90121082001F01AF9C020ADF8E9
:100F2000000003208DF802001C208DF803006946A4
:100F3000F44800F051FEF44802F018FC0020ADF82F
:100F400008004BF6FF70ADF80A003020ADF80C0039
:100F50004FF48060ADF80E000001ADF81000EB48D2
:100F600001900121E84802F098FC01A9E64802F04E
:100F700016FC05B000BD70B504460D4600BF4FF429
:100F80000031E14802F0B0FD0028F8D10121DE482F
:100F900002F0A7FC00BFDE49DB4802F083FD002819
:100FA000F9D000227821D84802F0F1FC00BFD949DD
:100FB000D54802F077FD0028F9D02146D24802F04A
:100FC000E0FC00BFD349891CCF4802F06BFD00282C
:100FD000F8D02946CC4802F0D4FC00BFCD49891C8A
:100FE000C94802F05FFD0028F8D00121C64802F090
:100FF00084FC70BD10B5044621460020FFF7BBFFFE
:1010000010BD10B5044621464020FFF7B4FF10BDC7
:1010100010B5642000F093FCAE20FFF7EBFF20201A
:10102000FFF7E8FF1020FFF7E5FFB020FFF7E2FF32
:10103000C820FFF7DFFF0020FFF7DCFF1020FFF7DD
:10104000D9FF4020FFF7D6FF8120FFF7D3FFFF2015
:10105000FFF7D0FFA120FFF7CDFFA620FFF7CAFFC3
:10106000A820FFF7C7FF3F20FFF7C4FFA420FFF72A
:10107000C1FFD320FFF7BEFF0020FFF7BBFFD52045
:10108000FFF7B8FFF020FFF7B5FFD920FFF7B2FF59
:101090002220FFF7AFFFDA20FFF7ACFF1220FFF7A7
:1010A000A9FFDB20FFF7A6FF2020FFF7A3FF8D207D
:1010B000FFF7A0FF1420FFF79DFFAF20FFF79AFF77
:1010C00010BD70B504460D4605F1B001C8B2FFF77A
:1010D00091FF102141EA1410FFF78CFF04F00F017B
:1010E00041F00100FFF786FF70BD70B50646002491
:1010F00015E004F1B001C8B2FFF77CFF0020FFF754
:1011000079FF1020FFF776FF002504E03046FFF757
:1011100078FF681CC5B2802DF8DB601CC4B2082CB7
:10112000E7DB70BD10B50020FFF7DFFF10BD10B585
:101130008D20FFF75FFF1420FFF75CFFAF20FFF764
:1011400059FF10BD10B58D20FFF754FF1020FFF799
:1011500051FFAE20FFF74EFF10BD2DE9F0470646C8
:10116000894617469A464FF0000800240025BAF138
:10117000010F03D0BAF1020F5ED125E020E0785DC7
:10118000203800F0FF087E2E04DD002609F1010062
:1011900000F0FF0949463046FFF793FF002409E0BD
:1011A00008EB48015C4A02EB4101085DFFF729FFAB
:1011B000601CC4B2062CF3DBB01DC6B2681CC5B2FD
:1011C000785D0028DBD137E032E0785D203800F030
:1011D000FF08782E04DD002609F1010000F0FF0968
:1011E00049463046FFF76DFF002407E004EB081185
:1011F0004A4A505CFFF705FF601CC4B2082CF5DBBF
:1012000009F10100C1B23046FFF75BFF002408E09E
:1012100004EB08110831414A505CFFF7F2FE601CF4
:10122000C4B2082CF4DB06F10800C6B2681CC5B2D3
:10123000785D0028C9D100BF00BFBDE8F0872DE967
:10124000F04180460E46174600247D013146404657
:10125000FFF737FF00BF06E03149485DFFF7D1FED9
:101260006D1C601CC4B2102CF6DB701CC1B2404671
:10127000FFF727FF002406E02949485DFFF7C1FE7C
:101280006D1C601CC4B2102CF6DBBDE8F0812DE9AA
:10129000F05F06460F4690461C46DDF828A04FF04A
:1012A000000BE11704EB5171C910A4EBC10131B976
:1012B0002046E11704EB5171C1F3C70506E0204653
:1012C000E11704EB5171C910491CCDB23D4614E041
:1012D00029463046FFF7F5FEB1460AE059460BF1C4
:1012E000010B1AF80100FFF78CFE09F1010000F074
:1012F000FF09C145F2DB681CC5B2A542E8DBBDE8C9
:10130000F09F0000000C014000540040801A0600CD
:101310000100030082000700FA5A0008225D00085D
:10132000460000207FB505460C460121084600F026
:101330001CFFADF80850ADF804400020ADF80A00DD
:10134000ADF8060001A94FF0804001F0D5FB012265
:101350001146900701F047FF1C208DF80000012086
:101360008DF801008DF802008DF80300684601F049
:101370005CF97FBD08B501210C2000F0E9FE45F2C3
:101380002800ADF8000004208DF8030003208DF83C
:1013900002006946FE4800F01FFC4AF21010ADF84A
:1013A000000010208DF8030003208DF8020069462C
:1013B000F74800F011FC4FF23811F54800F0B9FC85
:1013C0004FF4A850ADF8000004208DF8030003206E
:1013D0008DF802006946EF4800F0FEFB4FF40A402A
:1013E000ADF8000010208DF8030003208DF80200F6
:1013F0006946E84800F0F0FB4FF41F41E54800F073
:1014000098FC47210A20FFF78DFF08BD2DE9F04722
:101410000120E14908600F2000F06DFA0020DF494B
:10142000C1F8B40100BFDC48843800680028FAD055
:101430000121880701F0BCFE00BFD748843800684E
:101440000128FAD000214FF0804001F0B1FE4FF0AA
:10145000804002F064F9D2490860D248008800EB6D
:101460008000096801EB4000CD490860084600682B
:1014700003F07CFF0646CC4ACC4B03F08BFF0446BE
:101480000022CB4B04F084F8804603F095FEC94956
:10149000086000204FF080418884C2490880BDE880
:1014A000F0872DE9F0470120BB49083108600F2083
:1014B00000F021FA0020B949C1F8BC0100BFB648CC
:1014C0007C3800680028FAD00121880701F070FEFE
:1014D00000BFB1487C3800680128FAD000214FF0E5
:1014E000804001F065FE4FF0804002F018F9AC49F1
:1014F0000860AC48008800EB8000096801EB400000
:10150000A74908600846006803F030FF0646A64A6F
:10151000A64B03F03FFF04460022A54B04F038F829
:10152000804603F049FEA449086000204FF0804146
:1015300088849C490880BDE8F0872DE9F0470120A8
:101540009E4908600F2000F0D6F900209C49C1F8A0
:10155000A40100BF9948843800680028FAD001210E
:10156000880701F025FE00BF9448843800680128F0
:10157000FAD000214FF0804001F01AFE4FF0804079
:1015800002F0CDF8864908608648008800EB8000AC
:10159000096801EB4000824908600846006803F0D2
:1015A000E5FE0646804A814B03F0F4FE0446002225
:1015B0007F4B03F0EDFF804603F0FEFD814908609C
:1015C00000204FF08041888476490880BDE8F0878C
:1015D0002DE9F04701207949083108600F2000F01B
:1015E0008AF900207649C1F8AC0100BF73487C3805
:1015F00000680028FAD00121880701F0D9FD00BF5A
:101600006E487C3800680128FAD000214FF08040F5
:1016100001F0CEFD4FF0804002F081F86049086093
:101620006048008800EB8000096801EB40005C49DD
:1016300008600846006803F099FE06465A4A5B4B6C
:1016400003F0A8FE04460022594B03F0A1FF804698
:1016500003F0B2FD5C49086000204FF080418884AF
:1016600050490880BDE8F0872DE9F0470120534933
:10167000183108600F2000F03EF900205049C1F8F1
:10168000BC0100BF4D48743800680028FAD0012121
:10169000880701F08DFD00BF4848743800680128B4
:1016A000FAD000214FF0804001F082FD4FF08040E1
:1016B00002F035F83A4908603A48008800EB8000AB
:1016C000096801EB4000364908600846006803F0ED
:1016D0004DFE0646344A354B03F05CFE04460022BC
:1016E000334B03F055FF804603F066FD3749086031
:1016F00000204FF0804188842A490880BDE8F087A7
:101700002DE9F04701202449243908600F2000F01A
:10171000F2F800202149C1F8900100BF1E48A83806
:1017200000680028FAD00121880701F041FD00BFC0
:101730001948A83800680128FAD000214FF08040ED
:1017400001F036FD4FF0804001F0E9FF14490860D8
:101750001448008800EB8000096801EB4000104944
:1017600008600846006803F001FE06460E4A0F4B6B
:1017700003F010FE044600220D4B03F009FF8046E3
:1017800003F01AFD1249086000204FF0804121E06B
:10179000000C014000080140B48121420080214238
:1017A000EC040020E80400209CC420B07268913F43
:1017B00000000840F0040020F4040020A4012142AD
:1017C00000002142F8040020FC0400200005002055
:1017D00004050020888433490880BDE8F0872DE99E
:1017E000F0470120304908600F2000F084F8002005
:1017F0002E49C1F8A00100BF2B488C380068002892
:10180000FAD00121880701F0D3FC00BF26488C38AC
:1018100000680128FAD000214FF0804001F0C8FC98
:101820004FF0804001F07BFF214908601D4800888F
:1018300000EB8000096801EB40001D490860084684
:10184000006803F093FD06461A4A1B4B03F0A2FD05
:1018500004460022194B03F09BFE804603F0ACFCCB
:101860001749086000204FF0804188840D490880A6
:10187000BDE8F08710B50121880701F062FF78B15B
:101880000121880701F06EFF06480088401C0549C9
:10189000088008460088B0F5FA6F01D10020088062
:1018A00010BD0000E8040020A081214200802142F8
:1018B000EC0400209CC420B07268913F00000840F6
:1018C0000805002010B56FF0040000F0F8FE2E4867
:1018D00000682E49B0FBF1F02D49087008460078E9
:1018E00000EB4001C1EBC0104FF6FF7101EAC000F0
:1018F0002849088010BD0146254A12784A434FF016
:10190000E0235A6100229A611A46126942F00102EC
:101910001A6100BF4FF0E022106900F001021AB115
:1019200000F48032002AF5D04FF0E022126922F054
:1019300001024FF0E0231A6100229A6170470146CC
:10194000144A12884A434FF0E0235A6100229A61F8
:101950001A46126942F001021A6100BF4FF0E022FC
:10196000106900F001021AB100F48032002AF5D0AB
:101970004FF0E022126922F001024FF0E0231A61D9
:1019800000229A61704700000400002000127A00D3
:101990000C0500200E050020014600BF704700BF67
:1019A000494A128802F04002002AF9D0C2B2464BDE
:1019B0001B1D1A80704710B586B00446012144F201
:1019C000040000F0C5FB4FF40070ADF814000320D4
:1019D0008DF8160018208DF8170005A93B4800F077
:1019E000FBF84FF48060ADF8140004208DF8170068
:1019F00005A9364800F0F0F825208DF800000320F6
:101A00008DF801008DF8020001208DF80300684672
:101A100000F00BFE01940020ADF80800ADF80A00BC
:101A2000ADF80C00ADF810000C20ADF80E0001A9C7
:101A3000254800F034FC012240F22551224800F0F4
:101A4000C6FC0121204800F0B6FC06B010BD10B560
:101A500040F225511C4800F09FFD10B31A4800F0D9
:101A60001BFDC4B21A48008800F40040C8B91848E9
:101A7000008800F4804060B10A2C03D00020144993
:101A8000088020E01248008840F400401049088097
:101A900019E00D2C06D10E48008840F480400C4916
:101AA000088010E00A480088C0F30D0009490C5472
:101AB00007480088401C0649088008460088C72857
:101AC00001DD0020088010BD003801400008014001
:101AD00014050020D0060020094880470948004727
:101AE000FEE7FEE7FEE7FEE7FEE7FEE7FEE7FEE7CE
:101AF000FEE7FEE704480549054A064B704700002B
:101B00005306000831010008F8070020F80D0020F6
:101B1000F8090020F809002010B50446CC4884429A
:101B200008D10121042000F02DFB0021042000F049
:101B300029FB46E0C748844208D10121082000F073
:101B400021FB0021082000F01DFB3AE0C24884423E
:101B500008D10121102000F015FB0021102000F019
:101B600011FB2EE0BD48844208D10121202000F065
:101B700009FB0021202000F005FB22E0B848844248
:101B800008D10121402000F0FDFA0021402000F0A2
:101B9000F9FA16E0B348844208D10121802000F010
:101BA000F1FA0021802000F0EDFA0AE0AE4884420C
:101BB00007D10121801500F0E5FA0021A01500F001
:101BC000E1FA10BD10B50121084600F0DBFA002152
:101BD000012000F0D7FA10BD2DE9F04102460025A2
:101BE0000026002000230024002791F803C00CF0F9
:101BF0000F0591F803C00CF0100CBCF1000F03D0DE
:101C000091F802C04CEA050591F800C0BCF1000F44
:101C100031D0146800202BE04FF0010C0CFA00F3D7
:101C2000B1F800C00CEA03069E4220D183004FF0B9
:101C30000F0C0CFA03F7BC4305FA03FC4CEA04044E
:101C400091F803C0BCF1280F06D14FF0010C0CFA3B
:101C500000FCC2F814C00AE091F803C0BCF1480FC0
:101C600005D14FF0010C0CFA00FCC2F810C0401C6A
:101C70000828D1D31460B1F800C0BCF1FF0F34DDE7
:101C8000546800202EE000F1080C4FF0010808FA1B
:101C90000CF3B1F800C00CEA03069E4221D1830088
:101CA0004FF00F0C0CFA03F7BC4305FA03FC4CEAA7
:101CB000040491F803C0BCF1280F05D100F1080C11
:101CC00008FA0CF8C2F8148091F803C0BCF1480F70
:101CD00007D100F1080C4FF0010808FA0CF8C2F81F
:101CE0001080401C0828CED35460BDE8F0814FF628
:101CF000FF710180022181700421C170704702468A
:101D0000002093680B400BB1012000E000207047D9
:101D10000146886880B2704702460020D3680B40B5
:101D20000BB1012000E0002070470146C86880B276
:101D3000704701617047416170470AB1016100E07D
:101D400041617047C16070474FF480320A4382613D
:101D50008161826182698269704702460020434B3B
:101D600018684FF68073184040EA021008433F4B52
:101D7000186070473E49C8617047F0B50A460023B5
:101D800000240021002500F00046B6F1004F02D1EA
:101D9000364EF16901E0354E7168C0F3034583B2F8
:101DA00000F44016B6F5401F08D121F070612F4EA7
:101DB000766826F070662D4F7E6012E000F4801683
:101DC000B6F5801F06D1032606FA05F4A14341F0BB
:101DD000706106E0460D360103FA06F6B14341F0A4
:101DE000706122B1460D360103FA06F6314300F068
:101DF0000046B6F1004F02D11C4EF16101E01B4ECE
:101E00007160F0BD30B500228B071C0F0F2303FA61
:101E100004F2164B08338C1053F824309343134CC0
:101E200008348D1044F8253023468C1053F82430A4
:101E30008C07240F00FA04F423430C4C08348D1053
:101E400044F8253030BD0A49DC3108607047000095
:101E500000080140000C0140001001400014014046
:101E600000180140001C014000200140000001401A
:101E700000002042DF48006840F00100DD490860B2
:101E800008464068DC490840DA494860084600686E
:101E9000DA490840D74908600846006820F48020E5
:101EA00008600846406820F4FE0048604FF41F00B8
:101EB00088607047CF49096821F48031CD4A1160AC
:101EC0001146096821F480211160B0F5803F03D0EC
:101ED000B0F5802F0ED106E0C649096841F4803183
:101EE000C44A116007E0C349096841F4A021C14A0E
:101EF000116000E000BF00BF704710B5014600222E
:101F0000002300204A11012A02D1BA4C236806E0BE
:101F1000022A02D1B74C236A01E0B64C636A01F091
:101F20001F02012494401C400CB1012000E000205D
:101F300010BD38B5002000900024002500BF3120DE
:101F4000FFF7DBFF05460098401C00900098B0F5B5
:101F5000A06F01D0002DF2D03120FFF7CEFF08B1E5
:101F6000012400E00024204638BD01460020A14A9B
:101F7000106820F0F80040EAC10010607047A049E6
:101F800008607047024600209A4B586820F47C1085
:101F900042EA01031843974B586070479849086616
:101FA000704701460020934A506820F00300084320
:101FB000506070478F48406800F00C007047014641
:101FC00000208C4A506820F0F000084350607047B1
:101FD00001460020874A506820F4E06008435060C2
:101FE000704701460020834A506820F4605040EA60
:101FF000C1005060704729B17E4A527A02437D4B3E
:102000005A7204E07B4A527A82437A4B5A72704782
:102010007B49D8310860704701460020754A5068F6
:1020200020F440400843506070470021714A20323C
:102030001170704A82F82010012802D004280AD1B9
:1020400004E001216B4A2032117005E00521694A44
:102050002032117000E000BF00BF7047694908607E
:1020600070476449096A0143624A116270476549D1
:1020700044390860704730B5002100220024002355
:102080005C4D6D6805F00C0121B1042905D00829CB
:1020900023D105E05C4D056022E05B4D05601FE04B
:1020A000544D6D6805F47012524D6D6805F480341E
:1020B000022505EB92421CB9544D554305600BE0D7
:1020C0004C4D6D6805F400351DB1504D554305600C
:1020D00002E04D4D5543056002E04B4D056000BFE9
:1020E00000BF444D6D6805F0F0010909484D6B5C77
:1020F0000568DD4045603F4D6D6805F4E061090A03
:10210000434D6B5C4568DD4085603A4D6D6805F474
:102110006051C90A3E4D6B5C4568DD40C560354D78
:102120006D6805F44041890B3A4D6B5CC568B5FBA1
:10213000F3F5056130BD29B12E4A526902432D4B9A
:102140005A6104E02B4A526982432A4B5A61704714
:1021500029B1284A92690243264B9A6104E0254A34
:1021600092698243234B9A61704729B1214AD2690F
:102170000243204BDA6104E01E4AD26982431D4BC0
:10218000DA61704729B11B4AD2680243194BDA6001
:1021900004E0184AD2688243164BDA60704729B1CE
:1021A000144A12690243134B1A6104E0114A12697E
:1021B0008243104B1A6170471249403908607047DA
:1021C0000F49C86470470B49C87170470948406A95
:1021D00040F0807007494862704701460020054A78
:1021E00092680A400AB1012000E0002070470149CE
:1021F00088727047001002400000FFF8FFFFF6FEF3
:10220000000042428004424200127A0000093D0070
:10221000160500202605002010B50446FB48844220
:1022200009D101218803FFF7ADFF00214FF4804061
:10223000FFF7A8FF32E0F648844209D101214804A3
:10224000FFF7ADFF00214FF40030FFF7A8FF25E0B6
:10225000F048844209D101218804FFF7A0FF002142
:102260004FF48020FFF79BFF18E0EB48844209D130
:102270000121C804FFF793FF00214FF40020FFF76E
:102280008EFF0BE0E548844208D101210805FFF7E5
:1022900086FF00214FF48010FFF781FF10BD2DE96C
:1022A000F04786B005460E460024A24600BFA14670
:1022B0000027B08900B100BF2F462C8A4CF6FF7072
:1022C0000440F08804432C82AC894EF6F31004409D
:1022D000B08831890843718908430443AC81AC8AD2
:1022E0004FF6FF400440B0890443AC8201A8FFF7D9
:1022F000C2FEC648874202D1DDF810A001E0DDF839
:102300000CA0A88900F4004040B10AEBCA0000EB21
:102310000A1031684900B0FBF1F807E00AEBCA0087
:1023200000EB0A1031688900B0FBF1F86420B8FBBB
:10233000F0F004012009642101FB1089A88900F450
:10234000004040B1322000EBC900B0FBF1F000F0DA
:102350000700044308E0322000EB09106421B0FBC1
:10236000F1F000F00F0004432C8106B0BDE8F087C7
:102370004FF41651016000218180C18001810C2140
:10238000418100218181704710B502460020108AEA
:102390004FF2FF0318400B884C8823438C8823435B
:1023A000CC8823431843108210BD00210180418056
:1023B0008180C180704721B1828942F400528281BC
:1023C00004E082894DF6FF731A4082817047F0B5B0
:1023D0000346002400260025002040F66A17B94273
:1023E00000D100BF1846C1F3421401F01F060127B7
:1023F00007FA06F5012C01D10C3004E0022C01D1C2
:10240000103000E014301AB107682F43076002E073
:102410000768AF430760F0BD1AB1838A0B4383821C
:1024200002E0838A8B4383827047028A4FF6F073FF
:102430001A400282028A0A430282704782894FF25E
:10244000FF731A40828182890A438281704721B1D9
:10245000828942F00202828104E082894FF6FD7394
:102460001A4082817047028A4FF6DF731A40028257
:10247000028A0A430282704721B1028A42F48042F2
:10248000028204E0028A4BF6FF731A400282704710
:10249000C1F308028280704701468888C0F30800B3
:1024A0007047818941F0010181817047028BD2B26E
:1024B0000283028B42EA012202837047028B02F4FC
:1024C0007F420283028B0A430283704721B1828AD2
:1024D00042F02002828204E0828A4FF6DF731A40C3
:1024E0008282704721B1828A42F01002828204E027
:1024F000828A4FF6EF731A408282704721B1828A36
:1025000042F00802828204E0828A4FF6F7731A4092
:102510008282704721B1828942F40042828103E0C5
:102520008289C2F30E028281704721B1828A42F40D
:102530000062828204E0828A4FF2FF731A40828234
:102540007047828A4FF6FB731A408282828A0A435E
:102550008282704721B1828A42F00202828204E0C4
:10256000828A4FF6FD731A4082827047024600202D
:10257000B1F5007F00D100BF13880B400BB10120E3
:1025800000E00020704701F40072B2F5007F00D136
:1025900000BFCA430280704770B502460024002382
:1025A0000025002040F66A16B14200D100BFC1F3F9
:1025B000421501F01F03012606FA03F3012D02D193
:1025C0009689334006E0022D02D1168A334001E09D
:1025D000968A33400C12012606FA04F41688344019
:1025E00013B10CB1012000E0002070BD10B5002235
:1025F000002340F66A14A14200D100BF0A12012450
:102600009440A3B2DC43048010BD000000380140B8
:102610000044004000480040004C00400050004092
:1026200031490143314A1160704770B500210023E0
:102630000F22C47804B32D4C246804F4E064C4F57C
:10264000E064210AC1F10403CA40447804FA03F1AA
:102650008478144021430901254C0678A15504785B
:1026600004F01F050124AC4005786D11AD0005F1A3
:10267000E025C5F8004109E0047804F01F050124B5
:10268000AC401C4D0678761145F8264070BD1A4ABC
:102690000A400243154B1B1F1A60704739B1134A99
:1026A000121D12680243114B1B1D1A6006E00F4AEF
:1026B000121D126882430D4B1B1D1A6070470428BF
:1026C00008D14FF0E021096941F004014FF0E02208
:1026D000116107E04FF0E021096921F004014FF09A
:1026E000E0221161704700000000FA050CED00E0E7
:1026F00000E400E080E100E080FFFF1F01684FF68A
:10270000FE72114001600021016041608160C16082
:102710008D49884208D18C490839496841F00F0138
:10272000894A083A51608AE087491431884208D1C1
:1027300085490839496841F0F001834A083A5160F7
:102740007DE081492831884208D17F4908394968AC
:1027500041F470617C4A083A516070E07A493C313A
:10276000884208D178490839496841F47041764A6D
:10277000083A516063E074495031884208D1724987
:102780000839496841F470216F4A083A516056E0AF
:102790006D496431884208D16B490839496841F470
:1027A0007001694A083A516049E0674978318842C6
:1027B00008D165490839496841F07061624A083AB0
:1027C00051603CE06149884206D1011F096841F02F
:1027D0000F01021F116032E05C491431884208D1B8
:1027E0005A49091F096841F0F001584A121F116047
:1027F00025E056492831884208D15449091F096803
:1028000041F47061514A121F116018E04F493C3188
:10281000884208D14D49091F096841F470414B4A6B
:10282000121F11600BE049495031884207D14749D6
:10283000091F096841F47021444A121F1160704752
:1028400010B50022026847F6F0739A430C6A8B6851
:1028500023430C6923434C6923438C692343CC698C
:1028600023434C6A23438C6A23431A430260CB6898
:1028700043600B6883604B68C36010BD002101603A
:1028800041608160C160016141618161C16101623A
:1028900041628162704721B1026842F00102026028
:1028A00004E002684FF6FE731A40026070471AB1E6
:1028B00003680B43036002E003688B4303607047C7
:1028C000416070470146486880B270470146002069
:1028D000002201F080531BB11C4B083B1A6802E038
:1028E000194B083B1A6802EA01030BB1012000E012
:1028F0000020704700F0805119B11449091F086089
:1029000002E0114908394860704701460020002262
:1029100001F080531BB10D4B083B1A6802E00A4BD3
:10292000083B1A6802EA01030BB1012000E0002015
:10293000704700F0805119B10449091F086002E096
:102940000149083948607047080002400804024005
:1029500010B50446FE48844208D10121C014FFF797
:1029600011FC0021E014FFF70DFCC4E0B4F1804F2E
:1029700008D101210846FFF712FC00210120FFF7D2
:102980000EFCB8E0F348844208D101210220FFF791
:1029900006FC00210220FFF702FCACE0EE48844276
:1029A00008D101210420FFF7FAFB00210420FFF7E2
:1029B000F6FBA0E0E948844208D101210820FFF796
:1029C000EEFB00210820FFF7EAFB94E0E448844294
:1029D00008D101211020FFF7E2FB00211020FFF7B2
:1029E000DEFB88E0DF48844208D101212020FFF788
:1029F000D6FB00212020FFF7D2FB7CE0DA4884429E
:102A000008D101214014FFF7BDFB00216014FFF73E
:102A1000B9FB70E0D548844209D10121C804FFF711
:102A2000B1FB00214FF40020FFF7ACFB63E0D0487E
:102A3000844209D101210805FFF7A4FB00214FF4CE
:102A40008010FFF79FFB56E0CA48844209D101215C
:102A50004805FFF797FB00214FF40010FFF792FBAA
:102A600049E0C548844208D101214020FFF797FB87
:102A700000214020FFF793FB3DE0C048844208D18D
:102A800001218020FFF78BFB00218020FFF787FBCF
:102A900031E0BB48844208D101218015FFF77FFB5C
:102AA0000021A015FFF77BFB25E0B648844209D141
:102AB00001210804FFF766FB00214FF48030FFF787
:102AC00061FB18E0B048844209D101214804FFF7B6
:102AD00059FB00214FF40030FFF754FB0BE0AB48EB
:102AE000844208D101218804FFF74CFB00214FF4F8
:102AF0008020FFF747FB10BD00220288944B9842CC
:102B00000ED0994B98420BD0B0F1804F08D0914B2A
:102B1000984205D0904B984202D0904B984204D1F5
:102B20004FF68F731A404B881A438D4B984207D04B
:102B30008C4B984204D04FF6FF431A40CB881A437F
:102B400002808B8883850B880385814B98420BD04C
:102B5000854B984208D08B4B984205D08A4B9842BF
:102B600002D08A4B984201D10B7A038601238382DB
:102B7000704770B5002400220023058C4FF6FE76C6
:102B800035400584028C8388048B4FF68F752C406A
:102B9000B51E2C400D882C43751E2A400D892A43F2
:102BA0004D882A436A4DA8420BD06F4DA84208D0E9
:102BB000744DA84205D0744DA84202D0734DA8426E
:102BC00013D14FF6F7752A404D892A434FF6FB750E
:102BD0002A408D882A434FF6FF652B404FF6FF555C
:102BE0002B408D892B43CD892B4383800483CD8853
:102BF0008586028470BD70B5002400220023058CF8
:102C00004FF6EF7635400584028C8388048B48F6B6
:102C1000FF752C404FF6FF452C400D884FF6FF7690
:102C200006EA05252C434FF6DF752A400D8906EA92
:102C300005152A434D8806EA05152A43444DA84246
:102C400002D0494DA8421DD14FF67F752A404D89CB
:102C50004FF6FF7606EA05152A434FF6BF752A4060
:102C60008D8806EA05152A434FF6FF352B404FF2B3
:102C7000FF752B408D8906EA85052B43CD8906EA31
:102C800085052B4383800483CD880587028470BD2E
:102C900070B5002400220023058C4FF6FF663540F6
:102CA0000584028C8388848B4FF68F752C404FF6F9
:102CB000FC752C400D882C434FF6FF552A400D899A
:102CC0004FF6FF7606EA05252A434D8806EA0525D4
:102CD0002A431F4DA84202D0234DA8421DD14FF2D6
:102CE000FF752A404D894FF6FF7606EA05252A43EF
:102CF0004FF6FF352A408D8806EA05252A434EF611
:102D0000FF752B404DF6FF752B408D8906EA0515A2
:102D10002B43CD8906EA05152B4383808483CD8818
:102D20008587028470BD70B5002200230024058CC5
:102D30004EF6FF7635400584038C8488828B48F6F6
:102D4000FF752A404FF6FF452A400D8820E000001D
:102D5000002C01400004004000080040000C00402E
:102D6000001000400014004000340140004C0140BD
:102D7000005001400054014000180040001C004079
:102D80000020004000400140004401400048014054
:102D90004FF6FF7606EA05252A434DF6FF752B40D0
:102DA0000D8906EA05352B434D8806EA05352B4388
:102DB000FA4DA84202D0FA4DA84208D14BF6FF7551
:102DC0002C408D894FF6FF7606EA85152C438480CA
:102DD0008283CD88A0F84050038470BD828B4FF26F
:102DE000FF331A408283828B4FF6FF7303EA01237D
:102DF0001A4382837047F0B50C4615460022002125
:102E00000026078C4EF6FF7C07EA0C070784828BAE
:102E1000018C4FF6FF7707EA043640F6FF473A4049
:102E20004FF6FF7707EA05273A434FF6FF7707EAA1
:102E300003373A43D94FB8420ED0D94FB8420BD0DE
:102E4000B0F1804F08D0D74FB84205D0D64FB84226
:102E500002D0D64FB84206D14DF6FF77394046F43E
:102E60008057394305E047F6FF57394044F480570F
:102E7000394382830184F0BD828B4FF6F3731A408D
:102E80008283828B0A4382837047F0B50C461546D5
:102E9000002200210026078C4FF6FF6C07EA0C0782
:102EA0000784828B018C4FF6FF7707EA04264FF6E2
:102EB0000C773A404FF6FF7707EA03172F433A4360
:102EC000B64FB8420ED0B64FB8420BD0B0F1804FDB
:102ED00008D0B44FB84205D0B34FB84202D0B34F78
:102EE000B84206D14FF6FF57394046F48077394350
:102EF00005E04FF2FF57394044F48077394382832D
:102F00000184F0BD028B4FF2FF331A400283028B23
:102F10004FF6FF7303EA01231A4302837047F0B5AB
:102F20000C461546002200210026078C4FF6EF7C48
:102F300007EA0C070784028B018C4FF6FF7707EA3C
:102F4000041640F6FF473A404FF6FF7707EA03378B
:102F50003A434FF6FF7707EA05273A438F4FB842C7
:102F60000ED08F4FB8420BD0B0F1804F08D08D4FAC
:102F7000B84205D08C4FB84202D08C4FB84206D12F
:102F80004FF6DF77394046F01007394305E04FF63A
:102F90005F77394044F01007394302830184F0BD64
:102FA000028B4FF6F3731A400283028B0A430283AB
:102FB0007047F0B50C46154600220021068C4FF6EE
:102FC000FE773E400684028B018C4FF60C76324031
:102FD0007E1C06EA03162E433243704EB0420ED0DA
:102FE0006F4EB0420BD0B0F1804F08D06D4EB04262
:102FF00005D06D4EB04202D06C4EB04206D14FF6B5
:10300000FD76314044F00106314305E04FF6F57698
:10301000314044F00106314302830184F0BD70B5B4
:1030200005460C465D4885420ED05D4885420BD072
:10303000B5F1804F08D05B48854205D05A4885429B
:1030400002D05A48854200D100E000BF208850B924
:103050002389A28861882846FFF7ABFFE1882846CC
:10306000FFF79EFF25E0208804280AD12389A28843
:1030700061882846FFF753FFE1882846FFF742FFA3
:1030800017E0208808280AD12389A2886188284669
:10309000FFF7FBFEE1882846FFF7EEFE09E02389F3
:1030A000A28861882846FFF7A6FEE1882846FFF738
:1030B00095FE70BD2DE9F04105460C46002601271E
:1030C000608808B9022600E00026A088012801D106
:1030D000022700E001272088A0B92389A2886188FF
:1030E0002846FFF766FFE1882846FFF759FF238946
:1030F0003A4631462846FFF712FFE1882846FFF797
:1031000001FF13E02389A28861882846FFF707FFA3
:10311000E1882846FFF7F6FE23893A4631462846DD
:10312000FFF747FFE1882846FFF73AFFBDE8F08147
:103130000A884B881A438B881A43CB881A430B8919
:103140001A434B891A438B891A43A0F844207047CD
:103150004FF6FF71818000210180C18041800172A2
:1031600070470021018041808180C18001814181BF
:103170008181C181704700210180418001218180CE
:103180000021C18001817047002101804180818040
:10319000C18001814181818170470000002C014084
:1031A000003401400004004000080040000C0040D2
:1031B00021B1028842F00102028004E002884FF649
:1031C000FE731A400280704731B1B0F8442042F4D7
:1031D0000042A0F8442005E0B0F84420C2F30E02FB
:1031E000A0F8442070471AB183890B43838102E021
:1031F00083898B43838170478182704741EA020350
:10320000A0F8483070471AB183890B43838102E0EC
:1032100083898B438381704701894FF6F87211408F
:10322000018170470A46002101894FF68F731940CA
:1032300011430181704730B504460D4629462046AA
:10324000FFF7F0FF208940F00700208130BD2DE915
:10325000F04104460D4616461F46602D06D13B46FA
:10326000012231462046FFF75AFE05E03B46012287
:1032700031462046FFF79DFE29462046FFF7D2FF44
:10328000208940F007002081BDE8F08130B50C4670
:1032900000210189C9B24FF6FF7505EA03251543E0
:1032A00025432943018130BD2DE9F04105460E46F5
:1032B00017469846002443463A4631462846FFF7CB
:1032C000E5FF2C894FF6F870044044F007044FF6F0
:1032D0008F70044044F070042C81BDE8F081F0B59B
:1032E00004460D4616461F463B46324629462046B2
:1032F000FFF7CCFF208940F480402081F0BD01859C
:10330000828270470A46002101884FF68F73194068
:10331000114301807047F0B50C4615461E4600214A
:10332000002200230189028B038C4FF6F877394085
:1033300021434FF6FC473A4040F201173A434FF61B
:10334000DD773B404FF6FF7707EA06172F433B43F5
:10335000018102830384F0BD0A460021018B4FF6F0
:103360008F7319401143018370470A460021018B76
:1033700048F6FF7319404FF6FF7303EA022319431F
:10338000018370470A460021818B4FF68F731940E5
:103390001143818370470A460021818B48F6FF73F1
:1033A00019404FF6FF7303EA0223194381837047E4
:1033B00021B1028842F08002028004E002884FF6C8
:1033C0007F731A400280704721B1828842F0040264
:1033D000828004E082884FF6FB731A408280704737
:1033E00021B1828842F00802828004E082884FF690
:1033F000F7731A408280704721B1828842F001023F
:10340000828004E082884FF6FE731A408280704703
:103410000A460021018B4FF6F773194011430183CF
:1034200070470A460021018B4FF2FF7319404FF697
:10343000FF7303EA02231943018370470A46002100
:10344000818B4FF6F77319401143818370470A4609
:103450000021818B4FF2FF7319404FF6FF7303EA8F
:1034600002231943818370470A460021018B4FF6DE
:10347000FB7319401143018370470A460021018BF9
:103480004FF6FF3319404FF6FF7303EA0223194347
:10349000018370470A460021818B4FF6FB73194068
:1034A0001143818370470A460021818B4FF6FF3319
:1034B00019404FF6FF7303EA0223194381837047D3
:1034C0000A460021018B4FF67F7319401143018397
:1034D00070470A460021018BC1F30E014FF6FF73BE
:1034E00003EA02231943018370470A460021818BB6
:1034F0004FF67F7319401143818370470A460021BC
:10350000818BC1F30E014FF6FF7303EA02231943C7
:10351000818370470A460021018C4FF6FD731940E4
:103520001143018470470A460021018C4FF6F7735E
:1035300019401143018470470A460021018C4FF65F
:10354000DF7319404FF6FF7303EA02131943018436
:1035500070470A460021018C4FF67F7319404FF6E1
:10356000FF7303EA02131943018470470A460021DE
:10357000018C4FF6FF5319404FF6FF7303EA022305
:103580001943018470470A460021018C4FF2FF73F2
:1035900019404FF6FF7303EA022319430184704771
:1035A0000A460021018C4DF6FF7319404FF6FF7358
:1035B00003EA023319430184704730B50023012424
:1035C0008C40A3B2048C9C430484048C02FA01F561
:1035D000ADB22C43048430BD30B5002304248C40AC
:1035E000A3B2048C9C430484048C02FA01F5ADB2AE
:1035F0002C43048430BD70B50346002000241846D7
:10360000183001258D40ACB21D8CA5431D8409B135
:10361000082909D100EB6100056825F070050560F7
:103620000568154305600EE00D1FC5F34E052844DF
:10363000056825F4E045056005684FF6FF7606EA63
:1036400002263543056070BD21B1028842F00202B6
:10365000028004E002884FF6FD731A400280704732
:1036600021B1028842F00402028004E002884FF691
:10367000FB731A400280704721B1828842F08002B9
:10368000828004E082884FF67F731A408280704700
:1036900002884FF6F7731A40028002880A430280BC
:1036A000704782884FF68F731A40828082880A435F
:1036B0008280704702894FF6F8731A4002810289AE
:1036C0000A430281704702894FF67F731A400281D4
:1036D00002890A430281704781847047818570475F
:1036E000818670470187704781877047A0F8401036
:1036F000704702884FF6FF431A40028002880A434F
:10370000028070470146888E70470146088F7047D7
:103710000146888F70470146B1F840007047014666
:10372000888C70470146088D704702460020138A36
:103730000B400BB1012000E000207047CA43028219
:10374000704730B50246002000230024158A05EAA0
:103750000103958905EA010413B10CB1012000E0D1
:10376000002030BDCA4302827047000010B50446F5
:10377000F748844209D101214805FEF710FD0021D8
:103780004FF40010FEF70BFD08E001218805FEF75D
:1037900006FD00214FF48000FEF701FD10BD2DE96C
:1037A000F04385B004460D460026B1460427DFF8F5
:1037B000A483A6884FF6C07006406846FEF75BFCFF
:1037C000DDF80880E448B8FBF0F01FFA80F946EA1B
:1037D0000906A68020884FF6FE710840208000264A
:1037E000DE49286888420CD828684000B8FBF0F011
:1037F00087B2042F00DA04273E4309F10100208438
:1038000027E0E8884BF6FF71884206D1286800EB74
:103810004000B8FBF0F087B209E0286800EBC00177
:1038200001EB0010B8FBF0F087B247F48047C7F314
:103830000B0008B947F0010747F4004006434FF476
:10384000967009FB00F04FF47A7190FBF1F0401C88
:103850002084A683208840F00100208026884FF62F
:10386000F5300640A8886989084306432680A88960
:1038700029890843208105B0BDE8F08341F28831F1
:103880000160002181804BF6FF71C1800021018120
:1038900041814FF480418181704721B1028842F01B
:1038A0000102028004E002884FF6FE731A40028093
:1038B000704721B1828842F40062828004E08288ED
:1038C0004FF2FF731A408280704721B1828842F420
:1038D0008052828004E082884EF6FF731A40828014
:1038E000704721B1028842F48072028004E00288AD
:1038F0004FF6FF631A400280704721B1028842F4FC
:103900000072028004E002884FF6FF531A400280E2
:10391000704721B1028842F48062028004E002888C
:103920004FF6FF331A40028070470A460021818912
:103930004FF60173194002F0FE031943818170476D
:1039400021B1828942F00102828104E082894FF62E
:10395000FE731A408281704721B1028842F0400212
:10396000028004E002884FF6BF731A40028070475D
:103970001AB183880B43838002E083888B43838062
:103980007047018270470146088AC0B2704712B181
:1039900041F0010102E04FF6FE73194001827047C9
:1039A00008B502460020009000920098084400905C
:1039B0000098008808BD21B1028842F400420280CC
:1039C00003E00288C2F30E0202807047B1F5006F77
:1039D00004D1028842F40062028004E002884FF2BF
:1039E000FF731A4002807047B1F5005F04D102886E
:1039F00042F40052028004E002884DF6FF731A4040
:103A00000280704721B1028842F48052028004E0B3
:103A100002884EF6FF731A4002807047B1F5006FBE
:103A200004D1028842F40062028004E002884FF26E
:103A3000FF731A400280704721B1028842F02002D1
:103A4000028004E002884FF6DF731A40028070475C
:103A50000146088B0012704721B1028842F0100223
:103A6000028004E002884FF6EF731A40028070472C
:103A700021B9028842F08002028004E002884FF6F9
:103A80007F731A4002807047B1F5804F05D0828B5A
:103A90004BF6FF731A40828303E0828B42F480422C
:103AA0008283704770B50246002400250023002061
:103AB000958A138B1B0445EA030626F07F4404EA2B
:103AC00001068E4201D1012000E0002070BD10B53A
:103AD00001460020002300228B8A0A8B120443EA4D
:103AE000020424F07F4010BD0CB5024600200023E4
:103AF0000193009300920B0F019321F07F41019BF2
:103B00001BB1009B1433009303E0090C009B183396
:103B10000093009B1B680B400BB1012000E00020CC
:103B20000CBD002221F07F42D3438382704730B521
:103B3000024600200023948801F0E06504EA154362
:103B400021F07F41948A0C4054B14BB1012008E030
:103B50000054004000127A0040420F00A08601008D
:103B6000002030BD002221F07F42D3438382704782
:103B7000704700001CB50C46064B7B44694600901C
:103B8000204600F06EFC04460020694600F07CFCF4
:103B900020461CBD0B0900000FB41CB5084B06AA3B
:103BA0007B4469460090059800F05BFC04460020C9
:103BB000694600F069FC20461CBC5DF814FB00005F
:103BC000E508000070B5044685690068C10601D5A6
:103BD000302600E02026C00707D070BDD4E90121BF
:103BE00030469047206A401C20626D1EF6D570BD9D
:103BF00070B5044685690078C00707D170BDD4E967
:103C0000012120209047206A401C20626D1EF6D5BD
:103C100070BD70B50C460546012A05D0287880068F
:103C200000D5EA69002302E0012305E05B1C934212
:103C300002D2E05C0028F9D1A869E618C01AA86190
:103C4000286A184428622846FFF7BCFF04E0D5E93B
:103C5000012114F8010B9047B442F8D32846FFF72E
:103C6000C7FF70BD2DE9F041064600241068752994
:103C7000314616A510D000F062F9002802DA404261
:103C800013A507E031688A0701D512A502E04907AC
:103C900004D511A5012401E000F05AF900210A22FF
:103CA00006F1240709E0B0FBF2FCB0FBF2F302FBE3
:103CB0001C00303078541846491C0028F3D12346A4
:103CC0002A463046BDE8F04100F04BB90000000044
:103CD0002D0000002B00000020000000F0B40D4675
:103CE0000188090502D5214C7C4402E01F4C7C442C
:103CF0000E34002100F1240608E002F00F0712093B
:103D0000E75D42EA03721B097754491C52EA030734
:103D1000F3D102780023120704D5702D06D009B123
:103D2000022311342246F0BC00F01BB901231034E9
:103D3000F8E770B504460D462146106800F008F912
:103D4000024629462046BDE870400023C6E7D21D42
:103D500022F00703D3E90023C0E70368126843F0A9
:103D6000200303600823C3610023B7E72626000071
:103D70002DE9F05F894604464FF0000ADFF874B180
:103D8000FB44C0F820A02046E1688847002874D092
:103D9000252806D0D4E901219047206A401C2062E2
:103DA000F1E700265F462046E1688847202805465F
:103DB00007DB312D05D2781910F8200C08B1064325
:103DC000F1E7B00701D526F00406C4F81CA00027CF
:103DD000C4F818A02A2D09D0284601F0BAF938B342
:103DE00004EB8708303DC8F8185019E059F8041B57
:103DF000204604EB87029161E1688847012F054660
:103E000018D1E069002820DA26F020061DE0D8F855
:103E1000180000EB800005EB40003038C8F81800AF
:103E20002046E1688847054601F093F90028EED165
:103E3000012F0AD02E2D08D12046E16888477F1C2B
:103E40000546022F46F02006C4DBA069002803DAED
:103E5000404246F00106A061F00701D026F01006AE
:103E60006C2D0BD0682D09D04C2D39D06A2D35D052
:103E7000742D35D07A2D33D016E038E0E1682F4626
:103E800020468847B842054609D16C2F26D04FF40A
:103E90008060E168064320468847054604E06C2FB1
:103EA0001AD04FF4807006430DB3A5F141001928D4
:103EB00002D8203546F400664A4629462046266048
:103EC0004E46FCF78FF980B101280BD0F61D26F085
:103ED000070000F1080956E74020E4E78020D8E712
:103EE0000020D6E706F104094DE7284652E7206A8C
:103EF000BDE8F09FB625000010B5431C02E010F8A5
:103F0000011B71B18107FAD14FF0013202C88C1A3E
:103F10008C4314EAC211F9D0C01A0A0603D0C01E9D
:103F200010BDC01A10BD0A0401D0801E10BD0902C8
:103F3000FCD0401E10BD704770477047704709683D
:103F40004A0501D540B27047C905FCD500B270479B
:103F500009684A0501D5C0B27047C905FCD580B2D1
:103F600070472DE9F0470D4699469246044600F108
:103F700024080168880604D5E06921F01001216059
:103F800000E00120A84201DD471B00E00027A169F5
:103F90007A1902EB0900081AA0612078C00602D441
:103FA0002046FFF70FFE002608E0D4E901211AF8A9
:103FB00006009047206A401C761C20624E45F4DBC8
:103FC0002078C0060AD52046FFF7FCFD06E0D4E9BC
:103FD000012130209047206A401C2062381EA7F142
:103FE0000107F4DC07E0D4E9012118F80500904747
:103FF000206A401C2062281EA5F10105F3DC204642
:10400000FFF7F6FD2078000602D50220BDE8F08714
:104010000120FBE711680268006A530501D50870AA
:104020000AE0D30501D5088006E0130603D5C217C0
:10403000C1E9000200E008600120704770472DE9E7
:10404000FF4F0C461E464FF0FF378BB0D2E9000100
:10405000DDF860800A908A46C1F30A5505B93D46ED
:10406000002108464FF00000BAF1000F00F44000B4
:1040700005DA00EB80004FF4400101EA50004FEAFE
:104080009059B9F1010F00DDB9460A9850EA4A008B
:104090000ED044F61050A5F2FF3545432F14B8F169
:1040A000000F1ED07542291E1EDDC9F100021CE062
:1040B000B8F1010F4FF0000001D0302103E0F243CE
:1040C00005E02154401CB042FBDB304600220021B9
:1040D00021540B99C1F80880C1E900200FB0BDE858
:1040E000F08FBD1B6D1CDEE74A4600DA694206A868
:1040F00000F05AFB06AB93E8070003AB83E8070028
:1041000050460A9900F056FC8DE80700A0F50050D3
:104110001F3800900398002D09DD42F21F014A4626
:10412000084403A90390684600F0B5FE08E0A0F536
:1041300000504A461F3803A90390684600F0BFFEAE
:104140008DE807000004000C03D04FF0FF30410859
:1041500000E01046B8F1000F03D00022009215468F
:104160001EE0751E05D400F083FA303262556D1ED4
:10417000F9D5B3460122084302D000227F1C04E097
:104180002078302801D100227F1E002A099786D08E
:104190001DE0112D07DA00F06BFA303262556D1C0C
:1041A00050EA0102F5D1084302D00098C8B10EE0F0
:1041B0000021681E05E0235C625C63542254401EAB
:1041C000491C8142F7DBAB46A81B401E099000202A
:1041D00004F80B000B98099AC0F80880C0E9002B7E
:1041E0007CE711264FF0000859E72DE9F04F88468B
:1041F0000446D21D22F0070191B0D1E90001CDE9BA
:104200000A0100F092FF02460B98C00F01D02D204A
:1042100007E02068810701D52B2002E0202101EA78
:10422000C000032A099001D0072A05DB0346414656
:10423000204600F063FA0BE12078800601D5E069A2
:1042400000E00620B8F1650F814606D0B8F1660F90
:1042500018D0B8F1670F70D131E00020B9F1110F1B
:10426000009001DB112301E009F101030AAA01A971
:104270000CA8FFF7E4FEDDE90C70002609F101054A
:10428000834647E001204B4600904FF000470AAAC2
:1042900001A90CA8FFF7D3FEDDE90DB00C995D462E
:1042A000002610B909F101000D18B9EB050003D47F
:1042B000C0F1FF3609F10105A5EB09002BE0B9F1CA
:1042C000010F01DA4FF001090020B9F1110F009040
:1042D000484601DD112300E003460AAA01A90CA803
:1042E000FFF7ADFEDDE90C704D46002683462078D1
:1042F00000070AD4AB4500DA5D4601A8012D04DDB4
:10430000411911F8011C302907D04F4502DA17F185
:10431000040F04DA012082460FE06D1EEEE7002F45
:1043200002DCED1B3E4403E0781CA84200DD7D1C4E
:10433000B81B00F1010A4FF000472078000703D4B2
:10434000AA4501DB4FF0FF3A0021B7F1004F0DF114
:1043500043088DF8431024D002202B23002F01DACC
:104360007F422D230A21021EA0F1010000DC5FB173
:1043700097FBF1FC97FBF1F201FB1C7C17460CF15B
:10438000300C08F801CDEEE7A8F101000370218898
:10439000090501D5452100E06521A0F1010800F8DB
:1043A000011C09980FA9A1EB0807FF1D00B101200E
:1043B000411901EBEA70A1693844081A401EA06156
:1043C0002078C00602D42046FFF7FCFB099828B1EC
:1043D000D4E901219047206A401C20622078C00661
:1043E00022D52046FFF7EEFB1EE0002E04DBB3458E
:1043F00002DD01A8805D00E03020D4E90121904772
:10440000206A401C2062761CAAF101005FEA000AC3
:104410000AD100F029F9C0680168405CD4E90121A3
:104420009047206A401C2062281EA5F10105DCDCB3
:1044300007E0D4E9012118F8010B9047206A401CDD
:104440002062381EA7F10107F3DC2046FFF7D0FBFE
:10445000032011B043E6000001694A1C026108789C
:10446000704700B58FB0CDE90131002105910549B4
:104470007944CDE9031011466846FFF779FC0FB087
:1044800000BD0000E5FFFFFF0A6802F8010B0A60AB
:10449000704710B5436913B1AFF3008001E0FFF737
:1044A000B8FB012010BD127800F124010A7000222F
:1044B0004A700122EDE711684FF0FF32E9E7000092
:1044C0002DE9FF5F15468A460446DFF8AC80F844C4
:1044D0000027D8E900103E46CDE9001010E03AF878
:1044E00016106A4602A800F0CDF9411C07D02178C9
:1044F000890603D5E269391891420DD80744761C24
:104500002078800602D5E069B84205DDAE42E6DBE0
:104510003AF816000028E2D1A069C01BA06120462D
:10452000FFF750FBD8E90010CDE90010002017E09C
:104530003AF818106A4602A800F0A4F9B0F1FF3F5B
:1045400081460BD000250DF1080B05E0D4E90121CF
:104550001BF8050090476D1C4D45F7D308F101008D
:10456000B0428046E4DB206A384420622046FFF7F0
:104570003FFBBDE8FF9F00007A1E00002DE9F041DF
:104580008046D21D22F007020025D2E90002F5295B
:1045900015A614D0011E72F1000106DA0023D0EB3B
:1045A000030063EB020211A608E0D8F800108B07A5
:1045B00001D50FA602E0490701D50EA60125114637
:1045C000002408F1240704E000F052F830323A5594
:1045D000641C50EA0102F7D12B4632462146404680
:1045E000BDE8F041FFF7BDBC000000002D00000059
:1045F0002B0000002000000030B4002100F1240452
:1046000008E002F00705D208303542EA4372DB08C1
:104610006554491C52EA0305F3D10468002310A233
:10462000250708D504F020040C4304D0C4690123F5
:104630000CA2641EC46130BCFFF793BC10B50446E5
:1046400021461068FFF784FC02462046BDE8104072
:104650000023D1E7D21D22F00701D1E90023CBE7E7
:10466000000000003000000000487047B80700203C
:1046700030B5B0F10A024FEA900E71F100034EEA34
:10468000817EB0EB0E0061EB91014FEA101E4EEA05
:10469000017E10EB0E0041EB11114FEA102E4EEA95
:1046A000016E10EB0E0041EB11214FEA104E4EEA65
:1046B000014E10EB0E0041EB1141401841F1000199
:1046C0004FEAD00040EA41704FEAD10110EB80057B
:1046D0004FEA810444EA907444EB01046D1944EB01
:1046E0000404521BA3414FF0000348BF0A3200D517
:1046F00030BD401C41F1000130BD00002DE9F0410A
:104700001F46044603260168072A01F4006004DB03
:1047100008B116A505E016A503E008B115A500E04F
:1047200015A521F010002060A069C01EA0610FB186
:10473000401EA0612046FFF745FA4FB1D4E90121A0
:1047400038469047206A401C2062C01C206206E068
:10475000206AFAE7D4E9012115F8010B9047761E8B
:10476000F8D22046FFF744FABDE8F0814E414E00F2
:104770006E616E00494E4600696E660010B5436971
:1047800013B1AFF3008001E0FFF79AFE012010BDE6
:10479000128800F1240182840022C2840122EDE704
:1047A00011684FF0FF32E9E72DE9F04781461646E0
:1047B0008AB0334878440DC88DE80D0030487844FD
:1047C000801C03AC0DC884E80D0041F69B30084402
:1047D000372190FBF1F290FBF1F5A5F1800501FB8B
:1047E00012041B3C02D56442012000E00020DFF8E7
:1047F00090A080460027FA44AAF1BE0A0DE0E00727
:1048000009D03246684607EB47010AEB810100F008
:1048100056FB8DE8070064107F1C002CEFD1184F69
:104820007F44AC3F18E0E80714D007EB04100DF10B
:10483000180A90E80E008AE80E00C068F04201D124
:1048400098190890324606A903A800F038FB03AB7C
:1048500083E807006D10641C002DE4D132466946E0
:10486000B8F1000F03A802D000F015FB01E000F042
:1048700026FBC9E90001C9F808200AB0BDE8F087A5
:10488000181C000070B516460C46054600F044F8AA
:10489000036893F80101012806D0FF2C0FD8185D9A
:1048A00068B101202C7070BDD3F807013246214653
:1048B00003F2071303442846BDE8704018474FF041
:1048C000FF3070BD00487047980700207546FFF71D
:1048D000F9FFAE4605006946534620F007008546BD
:1048E00018B020B5FDF706F9BDE820404FF00006EE
:1048F0004FF000074FF000084FF0000B21F00701C8
:10490000AC46ACE8C009ACE8C009ACE8C009ACE80A
:10491000C0098D467047000010B5FFF7A5FE001DC9
:1049200010BD00BF690800000446AFF300802046B8
:10493000FBF7BBFC4FF0013C50F8042B51F8043B53
:104940009A4221D1A2EB0C03934313EACC1317D163
:1049500050F8042B51F8043B9A4215D1A2EB0C03FA
:10496000934313EACC130BD150F8042B51F8043BBA
:104970009A4209D1A2EB0C03934313EACC13DBD088
:104980004FF00000704700BFD01A01BAB1FA81F1B0
:1049900001F0180122FA01F0CB40C1F12001DBB295
:1049A000C0B2C01A2CFA01F3D11A914311EAC31113
:1049B000E6D170475FEA400C08BF91F0000F4FEA64
:1049C0008C234FEAC12243EA51514FEA1C5018BFD1
:1049D00000F5F0404FEA300018BF41F000415FEAB7
:1049E0006C5C00F02980BCF1FF3F08BF40F08040C4
:1049F0007047130C06BF12044FF0100C4FF0000C60
:104A0000130E04BF12020CF1080C130F04BF1201A5
:104A10000CF1040C930F04BF92000CF1020CD30FA5
:104A200004BF52000CF1010C11464FF00002A0F13E
:104A30001F00A0EB0C00704711F0004F08BF70473B
:104A400031F000413FF4D5AF0B0C06BF09044FF025
:104A5000100C4FF0000C0B0E04BF09020CF1080CF7
:104A60000B0F04BF09010CF1040C8B0F04BF89006C
:104A70000CF1020CCB0F04BF49000CF1010CCCF17E
:104A80002003A0EB0C0022FA03F302FA0CF241EA35
:104A9000030100F10100704720F07F4C80EA030021
:104AA00023F07F47ACEB070303F57C5300F0004095
:104AB00003F1FF032DE980494FEA154B09B44FEA92
:104AC000144325EA0B4E24EA03480FF2042606EBB2
:104AD000132749083E785FEA320203FB0667C7F5F1
:104AE000000707FB06F64FEA54374FEAD64606F1B1
:104AF000020607FB066CCCF1005C4FEA1C472CEA6F
:104B0000074C07FB06F40CFB06F504EB15464FEAD1
:104B1000961634BF00204FF000404FEAD13706FB15
:104B200007FC4FEA1C4C0CFB0BF7D21B03FB0CF7EA
:104B300061EB07010CFB0EF7B0EB074072EB17427D
:104B40000CFB08F734BFA2EB0742B2EB074261EB64
:104B500017414FEA0C444FEA910706FB07FC4FEA66
:104B60001C4C0CFB0BF7B0EBC74072EB573203FB4E
:104B70000CF734BFA2EBC742B2EBC74261EB57312F
:104B80000CFB0EF7B0EBC70072EB57720CFB08F78B
:104B900034BFA2EBC702B2EBC70261EB5771039FB0
:104BA0004FEA816141EA921104EBCC044FEAD1371C
:104BB0004FEA826206FB07FC42EA90124FEA8060ED
:104BC0004FEA1C4C0CFB0BF7D21B03FB0CF761EB01
:104BD00007010CFB0EF7B0EB074072EB17420CFB22
:104BE00008F734BFA2EB0742B2EB074261EB174173
:104BF0004FEA8C554FEA910704EB9C2406FB07FC17
:104C00004FEA1C4C0CFB0BF7B0EBC74072EB573272
:104C100003FB0CF734BFA2EBC742B2EBC74261EB18
:104C200057310CFB0EF7B0EBC70072EB57720CFB61
:104C300008F734BFA2EBC702B2EBC70261EB5771B2
:104C400015EB4C254FEA816141EA92114FEA8262ED
:104C50004FEAD13742EA901206FB07FC44F1000408
:104C60004FEA80604FEA1C4C0CFB0BF7D21B03FB96
:104C70000CF761EB07010CFB0EF7B0EB074072EB92
:104C800017420CFB08F734BFA2EB0742B2EB074216
:104C900061EB174115EB1C154FEA813141EA924156
:104CA0004FEA823242EA90424FEA80304FEA0C7675
:104CB00044F1000448EA03434EEA0B484FF0000E6B
:104CC000B2EB080C71EB030724BF624639464EEB8A
:104CD0000E0E4FF0000B0018524149414BEB0B0BED
:104CE000B2EB080C71EB03077BF1000B24BF6246AB
:104CF00039464EEB0E0E4FF0000B00185241494161
:104D00004BEB0B0BB2EB080C71EB03077BF1000BC9
:104D100024BF624639464EEB0E0E51EA020718BF19
:104D200046F0010616EB0E7655F1000254F1000133
:104D300003D5BDE88901BDE80088BDE88901BDE86B
:104D40000048B619524141EB0101A3F1010370473C
:104D500080807F7E7D7C7B7A7978777676757473B8
:104D6000727171706F6E6E6D6C6C6B6A6A69686877
:104D7000676666656464636362616160605F5F5E0D
:104D80005E5D5D5C5C5B5B5A5A5959585857575683
:104D900056555555545453535252525151505050E8
:104DA0004F4F4F4E4E4D4D4D4C4C4C4B4B4B4A4A3A
:104DB0004A4949494848484747474746464645457E
:104DC00045444444444343434342424242414141B7
:104DD000002B26D4770021D01CB54FEA370703B447
:104DE0004FF010004FF010014FF000000FBCBDE875
:104DF00010400BF1010BBBF1010F08BF5FEA170771
:104E000022BF12F1010211F101014FF0004143F103
:104E1000000300F0004043EA00007047F9D3570850
:104E2000DAE746EA064613F1400F4FEA16461FDD61
:104E300013F1200FDFBF16430A46002120335B42E7
:104E4000C8D0C3F1200746EA064602FA07F74FEA40
:104E5000164646EA0706C3F1200722FA03F201FAD2
:104E600007F721FA03F14FF0000342EA0702B1E726
:104E700046EA020646EA06464FEA164646EA0106B2
:104E8000BCBF46EA0646360C4FF000034FF0000266
:104E90004FF000019EE72DE9C048934630B491E8F9
:104EA000380007C831EA400C48BF34EA430C03D548
:104EB000FFF7F2FDFFF78CFFF0BCBDE800882DE99D
:104EC000C048934630B491E8380007C810F0804FCE
:104ED00008BF13F0804F03D100F005F8FFF778FF0B
:104EE000F0BCBDE8008820F07F4780EA030023F093
:104EF0007F4C07EB0C03A3F57C5300F00040A3F1BB
:104F0000FE0392F0000F00F0B38095F0000F00F068
:104F100077802DE901494FEA11404FEA144621EA12
:104F2000004800FB06FC24EA064708FB06F607FBE0
:104F300008F800FB07F718EB06484CEB164C4FEA55
:104F4000124B18EB07484FEA15464CEB174022EA84
:104F50000B4E0BFB06FC25EA06470EFB06F607FB8D
:104F60000EFE0BFB07F71EEB064E4CEB164C4FF0FC
:104F700000061EEB074E4CEB174B18EB0B0840F1ED
:104F8000000018EB0E0B58EB000840F100008F1AE0
:104F90004FF000013CBFC943661B14BFB5EB040CC6
:104FA00000213CBFC943F61B4FEA17444EEA8E0E60
:104FB00027EA04454FEA1C4704FB07622CEA074C2A
:104FC00005FB07F70CFB05F604FB0CFC16EB07468C
:104FD00042EB174216EB0C4642EB1C421BEB06065B
:104FE00058EB0202414146EA9E0601D5BDE801891F
:104FF000B619524141EB0101A3F10103BDE801895A
:105000004FEA14454FEA114724EA054621EA074CC6
:1050100005FB07F406FB07F70CFB06F105FB0CFC90
:1050200011EB074144EB17444FEA124711EB0C41D7
:1050300044EB1C4422EA074C05FB07F206FB07F78A
:105040000CFB06F605FB0CFC16EB074642EB174281
:1050500016EB0C4642EB1C456A1854F1000148BFA0
:105060007047B619524141EB0101A3F101037047AA
:1050700095F0000F37D04FEA11424FEA144721EA6A
:10508000024624EA074C02FB07F106FB07F70CFB7C
:1050900006F402FB0CFC14EB074441EB17414FEA0A
:1050A000154714EB0C4441EB1C4125EA074C02FB6D
:1050B00007F506FB07F70CFB06F602FB0CFC16EBEC
:1050C000074645EB174516EB0C4645EB1C421219FB
:1050D00051F1000148BF7047B619524141EB01013F
:1050E000A3F1010370474FEA14454FEA114724EA40
:1050F000054621EA074C05FB07F106FB07F70CFB09
:1051000006F24FF0000605FB0CFC12EB074241EBE8
:10511000174112EB0C4251EB1C4148BF70479218EB
:1051200041EB0101A3F101037047490050EAC1209E
:1051300018BF04204A0D18BF40F0010040F2FF7272
:10514000B2EB515F08BF40F00200012808BF052004
:10515000704730380A2801D201207047002070477C
:1051600010B500290AD00878002807D005487844EF
:10517000FFF7E0FB002801D0002010BD0248784472
:1051800010BD00009A1200009212000010B5002914
:105190000AD00878002807D005487844FFF7CAFBF2
:1051A000002801D0002010BD0248784410BD000046
:1051B0008A1200008212000021F00042A2F1605227
:1051C000B2F5801F01F0004328BFD2F17F6C0BD9EC
:1051D0005FEA001C43EAC20242EB507018BF7047FE
:1051E00028BF20F001007047B2F5801FBCBF1846F1
:1051F00070474FEA410C1CF5001F02D2084600F030
:10520000C5BB70B500F070F900000089FFF7F6BF6C
:105210004FF00040A0F580007047000010B591EA03
:10522000030F48BF83F0004300F1BA81841A71EB89
:10523000030C05D2121943EB0C03001B61EB0C01AC
:10524000DFF824E14FEA1154A4EB135C1EEA430F8C
:1052500018BF9EEA445F73D023EA0E03DCF1200EF0
:1052600021EA045143F4801332D322FA0CFE10EBEE
:105270000E0023FA0CFE41EB0E01CCF1200E03FAD6
:105280000EFE10EB0E0051F10001B1F5801FCCF1C4
:10529000200E32D201EB045112FA0EF2BDE810409A
:1052A00058BF7047401C38BF5FEA420218BF7047C2
:1052B000002814BF20F0010041F100014FEA410332
:1052C00013F5001F38BF7047A1F1C04100F05AB973
:1052D000012A43EB0302ACF1200CDCF11F0E32BFBC
:1052E0004FF0000E23FA0CF310EB030041EB0451D6
:1052F000B4EB115FD0D0A1EB045101F58011490846
:105300005FEA300001EB04510ED350F1000038BFCA
:1053100012FA0EFE08D1BDE81040C9E7401C38BFA4
:105320005FEA4202CAD1C3E7BDE810404FEA410339
:1053300013F5001F38BF7047A1F1C04100F022B93A
:105340009EEA445F08D011EA5E0FBDE8104004BF3A
:1053500001F0004100207047BDE8104070B500F03A
:10536000C3F800BF64FBBE3E0000E0FFB0FA80F36C
:1053700010FA03F10AD0C3F11D0303F580634FEA6D
:1053800041504FEA035202EBD12170474FF0000029
:1053900070470000DFF848C170B51CEA111E1EBF3F
:1053A0001CEA13159EEA0C0F95EA0C0F00F06F80B3
:1053B00081EA030423EA4C134EEAD47E21EA4C111D
:1053C00041F4801143F48013AE44A1FB024CA0FBD6
:1053D0000365AEF17F7E361955EB0C05A1FB034C3E
:1053E0004CF10003A0FB021C16EB0C06654153F1C7
:1053F0000003094218BF46F0010613F4007F0BD1E9
:105400004FEA03314FEA0530340341EA155140EACF
:1054100016506FF003020AE04FEAC3214FEAC5209D
:10542000F40241EA555140EA56506FF0020202EB95
:105430002E4201EB025585EACE710AD05FEA440C98
:1054400018BF24F0004450F1000041F1000120EAAF
:10545000D47040F2FE7C624500D270BDA84214BFF9
:105460004FF080444FF04044002E08BF0024BEF1AE
:10547000806FA8BFA1F1C041BDE8704080F282807A
:105480004FF0000001F1C04101F0004170479EEA79
:105490000C0F0CEA131518BF95EA0C0F06D04FF04D
:1054A000000081EA030E0EF0004170BD00F01CF810
:1054B0008900013E00F007B800F009B84FEA430C3C
:1054C0005FEA5C5C08D081EA030100F05BB84FEA58
:1054D000410C5FEA5C5CF6D14FF000000149704777
:1054E0000000FF070000F87F0EF1020E2EF0030E01
:1054F0005EF8046B364205D4012A43EB030515F52B
:10550000001F12D8012841EB010C1CF5001F0CD81C
:105510000ED14FEAD17C15F5001F0CEB4C0C0CF1B1
:10552000020C08BF4CEBD37C04E04FF0080C01E008
:105530004FEAD37C0CEB4C0526FA05F606F007067D
:10554000B6F1040C06D20EEB860CBDE870404CF0B0
:10555000010C6047DFE80CF0090B02024FF000413C
:105560004FF00000A1F5002170BD1946104601283A
:1055700051EB010418BFD4F5001484BF002001F0E2
:10558000004170BD0808A0F500114FEA31017047D5
:1055900010B591EA030F48BF83F000433FF546AED4
:1055A000841A71EB030C07D212198CF0004C43EBF8
:1055B0000C03001B61EB0C01DFF8A4E14FEA11546E
:1055C000A4EB135C1EEA430F18BF9EEA445F00F091
:1055D000B08023EA6E03524221EA0451C3EB6E030A
:1055E00038BF5B1EDCF1200E25D322FA0CFE10EB37
:1055F0000E0043FA0CFE41EB0E01CCF1200E03FA33
:105600000EFE10EB0E0051F10001CCF1200E29D45A
:1056100012FA0EF201EB0451BDE8104058BF70477A
:10562000401C1CBFB2F1004F704700280CBF491C42
:1056300020F00100704712EB020E43EB030218BF8B
:105640004FF0010E4EEA4202ACF1200CDCF11E0ECE
:1056500054D943FA0CFE10EB0E0051F1FF31CCF19E
:105660001E0ED5D50EF1010E12FA0EFE404141EB91
:10567000010101EB445C5FEA5C5C10D910EBDE7069
:1056800001EB045138BFBEF1004FBDE8104018BF18
:10569000704700280CBF491C20F00100704730D231
:1056A0004FEAD42C11F5001124F400641BD0B1FA98
:1056B00081F20B3AA41AA41ED2F12003914030FAD1
:1056C00003F31943904001EBCC71002C01EB045122
:1056D000BDE81040A8BF704701F1C0414FF0000085
:1056E00001F000417047B0FA80F310FA03F100D1E5
:1056F00010BDE41A173C4805C90AE4E701EB045160
:1057000010BD491001EB0451BDE810404FEA3000D4
:1057100002E04FF0000170474A0008BF0042F8D095
:10572000B2F5001F28BF704701F000414FF00000A4
:1057300070479EEA445F07D011EA5E0FBDE8104053
:1057400004BF002100207047BDE8104070B5FFF78E
:10575000CBFE00BF40DFF63E83F0004110467047AD
:105760000000E0FF43004FEAD30C4FEA3C0C4340FB
:105770001FBF40070CF1605113F0FE4F70471CF043
:10578000006F03D100200CF0004170470CF0004383
:1057900043EA507010B540EACC0000F0B1F800BF09
:1057A000000000924FEA0001FFF7ECBE4FF000410D
:1057B0004FF00000A1F500217047000090EA010FB2
:1057C00048BF81F0004100F12881421A3CBF801A95
:1057D00089184FEAD0524FF07F4C1CEA410FA2EBE0
:1057E000D15318BF9CEA026F00F03B804FF0004C91
:1057F0004CEA00204CEA012121FA03FC10EB0C0CCE
:105800001ED202F1FF325FEA1C2040EBC25038BFCB
:1058100070471CF07F0F4FEA400C18BFBCF17F4F60
:1058200038BF7047C3F12003994008BF20F0010042
:10583000BCF17F4F38BF7047A0F1C04000F0A6B860
:105840004FEA3C00000A40EBC25028BF1CF0FF0F9B
:105850004FEA400CE6D018BFBCF17F4F38BF70470D
:10586000EAE79CEA026F05D010EA5C0F08BF00F07F
:105870000040704710B500F043F800BF64FBBE3E27
:10588000401058BFC0F14040491058BFC1F14041DD
:105890008142EFF30080704750EA010C00F1138061
:1058A0001CF5000F58BFBCF5000F01D488427047AB
:1058B00007D710F5000F58BF11F5000F15D4884217
:1058C0007047894270471CF5000F04D5BCF5000FE6
:1058D000F7D5814270474FF0807C1CEB400F38BFFA
:1058E0001CEB410F01D28142704710B500F008F85F
:1058F000922449004FF000504FF08051FFF7C0BF95
:105900000EF1020E2EF0030E5EF8044B244204D476
:105910004FEA4102B2F17F4F11D84FEA4003B3F191
:105920007F4F0CD80ED14FEAD07CB2F17F4F0CEBF9
:105930004C0C0CF1020C08BF4CEBD17C04E04FF096
:10594000080C01E04FEAD17C0CEB4C0324FA03F481
:1059500004F00704B4F1040C06D20EEB840CBDE88D
:1059600010404CF0010C6047DFE80CF00708020221
:105970004FF00040A0F5800010BD0846420018BF5F
:10598000D2F1807288BF00F0004010BDFF2141EAD3
:10599000D050C005704751EA000C00F113801CF58F
:1059A000000F58BFBCF5000F01D48142704707D7E4
:1059B00011F5000F58BF10F5000F15D48142704744
:1059C000894270471CF5000F04D5BCF5000FF7D5D0
:1059D000884270474FF0807C1CEB410F38BF1CEBB6
:1059E000400F01D28842704780EA010081EA00013D
:1059F00080EA0100FFF779BF80F0004090EA010FD4
:105A00007FF5E3AE81F0004100F007B890EA010FA6
:105A100048BF81F000413FF5D8AE421A04D882F069
:105A20000042A0EB020011444FEAD0524FF07F4CED
:105A30001CEA410FA2EBD15318BF9CEA026F4AD077
:105A40004FF0004C4CEA00204CEA012121FA03FC03
:105A5000B0EB0C0C0FD412F0FE0F36D05FEA4C0006
:105A60001DD5001240EBC25038BF70471CF03F0FED
:105A700018BF70470BE0A2F101025FEA1C2040EB67
:105A8000C25038BF70471CF07F0F18BF7047C3F17A
:105A90002003994014BF401E20F001007047800889
:105AA0004FEA122308BF7047B0FA80FCA2EB0C0249
:105AB000CCF1280C60FA0CF093EA122F04BF00EB33
:105AC000C25070474FEAC3707047130A5FEADC1098
:105AD00008BF7047F6E79CEA026F04D010EA5C0F3B
